{
  "address": "0xeD014b320C9B8F4c6c387D18Cf04dC45e5f13843",
  "abi": [
    {
      "inputs": [
        {
          "internalType": "uint256",
          "name": "_balance",
          "type": "uint256"
        }
      ],
      "stateMutability": "payable",
      "type": "constructor"
    },
    {
      "inputs": [
        {
          "internalType": "address",
          "name": "",
          "type": "address"
        },
        {
          "internalType": "bytes",
          "name": "",
          "type": "bytes"
        }
      ],
      "name": "getVoiceCredits",
      "outputs": [
        {
          "internalType": "uint256",
          "name": "",
          "type": "uint256"
        }
      ],
      "stateMutability": "view",
      "type": "function"
    }
  ],
  "transactionHash": "0x63e8c03744dce66dbe56d0c6117961a4c60e317e776351efa23160ffe1348118",
  "args": [
    99
  ],
  "numDeployments": 2,
  "solcInputHash": "79ae3e088114d792164a9068ef4ed3b4",
  "bytecode": "0x6080601f61016b38819003918201601f19168301916001600160401b038311848410176100515780849260209460405283398101031261004c575160005560405161010390816100688239f35b600080fd5b634e487b7160e01b600052604160045260246000fdfe60806004361015600e57600080fd5b6000803560e01c63b36543a914602357600080fd5b3460ca57604036600319011260ca576004356001600160a01b0381160360ca5767ffffffffffffffff9160243583811160b2573660238201121560b25780600401359380851160b657601f8501601f19908116603f011683019081118382101760b657604052838252366024858301011160b25783839260209560248794018483013701015254604051908152f35b8280fd5b634e487b7160e01b84526041600452602484fd5b80fdfea264697066735822122069e5aec4ec37f0596837b540a59dc18755fe91c7a9aeaaaa648c35a7af86ee9664736f6c63430008140033",
  "devdoc": {
    "kind": "dev",
    "methods": {
      "constructor": {
        "params": {
          "_balance": "the balance to be returned by getVoiceCredits"
        }
      },
      "getVoiceCredits(address,bytes)": {
        "returns": {
          "_0": "balance"
        }
      }
    },
    "title": "ConstantInitialVoiceCreditProxy",
    "version": 1
  },
  "userdoc": {
    "kind": "user",
    "methods": {
      "constructor": {
        "notice": "creates a new ConstantInitialVoiceCreditProxy"
      },
      "getVoiceCredits(address,bytes)": {
        "notice": "Returns the constant balance for any new MACI's voter"
      }
    },
    "notice": "This contract allows to set a constant initial voice credit balance for MACI's voters.",
    "version": 1
  },
  "storageLayout": {
    "storage": [
      {
        "astId": 9391,
        "contract": "contracts/maci-contracts/initialVoiceCreditProxy/ConstantInitialVoiceCreditProxy.sol:ConstantInitialVoiceCreditProxy",
        "label": "balance",
        "offset": 0,
        "slot": "0",
        "type": "t_uint256"
      }
    ],
    "types": {
      "t_uint256": {
        "encoding": "inplace",
        "label": "uint256",
        "numberOfBytes": "32"
      }
    }
  }
}