{
  "address": "0x9bD7EF3cb8d23071CCD1924cAE3B0Ec9Fe028891",
  "abi": [
    {
      "inputs": [
        {
          "internalType": "contract IPollFactory",
          "name": "_pollFactory",
          "type": "address"
        },
        {
          "internalType": "contract IMessageProcessorFactory",
          "name": "_messageProcessorFactory",
          "type": "address"
        },
        {
          "internalType": "contract ITallyFactory",
          "name": "_tallyFactory",
          "type": "address"
        },
        {
          "internalType": "contract SignUpGatekeeper",
          "name": "_signUpGatekeeper",
          "type": "address"
        },
        {
          "internalType": "contract InitialVoiceCreditProxy",
          "name": "_initialVoiceCreditProxy",
          "type": "address"
        },
        {
          "internalType": "contract TopupCredit",
          "name": "_topupCredit",
          "type": "address"
        },
        {
          "internalType": "uint8",
          "name": "_stateTreeDepth",
          "type": "uint8"
        }
      ],
      "stateMutability": "payable",
      "type": "constructor"
    },
    {
      "inputs": [
        {
          "internalType": "address",
          "name": "_caller",
          "type": "address"
        }
      ],
      "name": "CallerMustBePoll",
      "type": "error"
    },
    {
      "inputs": [],
      "name": "InvalidMessage",
      "type": "error"
    },
    {
      "inputs": [],
      "name": "MaciPubKeyLargerThanSnarkFieldSize",
      "type": "error"
    },
    {
      "inputs": [
        {
          "internalType": "address",
          "name": "pollAddr",
          "type": "address"
        }
      ],
      "name": "PollAddressDoesNotExist",
      "type": "error"
    },
    {
      "inputs": [
        {
          "internalType": "uint256",
          "name": "pollId",
          "type": "uint256"
        }
      ],
      "name": "PollDoesNotExist",
      "type": "error"
    },
    {
      "inputs": [],
      "name": "PoseidonHashLibrariesNotLinked",
      "type": "error"
    },
    {
      "inputs": [
        {
          "internalType": "uint256",
          "name": "pollId",
          "type": "uint256"
        }
      ],
      "name": "PreviousPollNotCompleted",
      "type": "error"
    },
    {
      "inputs": [],
      "name": "PubKeyAlreadyRegistered",
      "type": "error"
    },
    {
      "inputs": [],
      "name": "SignupTemporaryBlocked",
      "type": "error"
    },
    {
      "inputs": [],
      "name": "TooManySignups",
      "type": "error"
    },
    {
      "anonymous": false,
      "inputs": [
        {
          "indexed": false,
          "internalType": "uint256",
          "name": "_pollId",
          "type": "uint256"
        },
        {
          "indexed": true,
          "internalType": "uint256",
          "name": "_coordinatorPubKeyX",
          "type": "uint256"
        },
        {
          "indexed": true,
          "internalType": "uint256",
          "name": "_coordinatorPubKeyY",
          "type": "uint256"
        },
        {
          "components": [
            {
              "internalType": "address",
              "name": "poll",
              "type": "address"
            },
            {
              "internalType": "address",
              "name": "messageProcessor",
              "type": "address"
            },
            {
              "internalType": "address",
              "name": "tally",
              "type": "address"
            }
          ],
          "indexed": false,
          "internalType": "struct MACI.PollContracts",
          "name": "pollAddr",
          "type": "tuple"
        }
      ],
      "name": "DeployPoll",
      "type": "event"
    },
    {
      "anonymous": false,
      "inputs": [
        {
          "indexed": true,
          "internalType": "address",
          "name": "previousOwner",
          "type": "address"
        },
        {
          "indexed": true,
          "internalType": "address",
          "name": "newOwner",
          "type": "address"
        }
      ],
      "name": "OwnershipTransferred",
      "type": "event"
    },
    {
      "anonymous": false,
      "inputs": [
        {
          "indexed": false,
          "internalType": "uint256",
          "name": "_stateIndex",
          "type": "uint256"
        },
        {
          "indexed": true,
          "internalType": "uint256",
          "name": "_userPubKeyX",
          "type": "uint256"
        },
        {
          "indexed": true,
          "internalType": "uint256",
          "name": "_userPubKeyY",
          "type": "uint256"
        },
        {
          "indexed": false,
          "internalType": "uint256",
          "name": "_voiceCreditBalance",
          "type": "uint256"
        },
        {
          "indexed": false,
          "internalType": "uint256",
          "name": "_timestamp",
          "type": "uint256"
        }
      ],
      "name": "SignUp",
      "type": "event"
    },
    {
      "inputs": [],
      "name": "MESSAGE_DATA_LENGTH",
      "outputs": [
        {
          "internalType": "uint8",
          "name": "",
          "type": "uint8"
        }
      ],
      "stateMutability": "view",
      "type": "function"
    },
    {
      "inputs": [
        {
          "internalType": "uint256",
          "name": "_duration",
          "type": "uint256"
        },
        {
          "components": [
            {
              "internalType": "uint8",
              "name": "intStateTreeDepth",
              "type": "uint8"
            },
            {
              "internalType": "uint8",
              "name": "messageTreeSubDepth",
              "type": "uint8"
            },
            {
              "internalType": "uint8",
              "name": "messageTreeDepth",
              "type": "uint8"
            },
            {
              "internalType": "uint8",
              "name": "voteOptionTreeDepth",
              "type": "uint8"
            }
          ],
          "internalType": "struct Params.TreeDepths",
          "name": "_treeDepths",
          "type": "tuple"
        },
        {
          "components": [
            {
              "internalType": "uint256",
              "name": "x",
              "type": "uint256"
            },
            {
              "internalType": "uint256",
              "name": "y",
              "type": "uint256"
            }
          ],
          "internalType": "struct DomainObjs.PubKey",
          "name": "_coordinatorPubKey",
          "type": "tuple"
        },
        {
          "internalType": "address",
          "name": "_verifier",
          "type": "address"
        },
        {
          "internalType": "address",
          "name": "_vkRegistry",
          "type": "address"
        },
        {
          "internalType": "bool",
          "name": "_isQv",
          "type": "bool"
        }
      ],
      "name": "deployPoll",
      "outputs": [
        {
          "components": [
            {
              "internalType": "address",
              "name": "poll",
              "type": "address"
            },
            {
              "internalType": "address",
              "name": "messageProcessor",
              "type": "address"
            },
            {
              "internalType": "address",
              "name": "tally",
              "type": "address"
            }
          ],
          "internalType": "struct MACI.PollContracts",
          "name": "pollAddr",
          "type": "tuple"
        }
      ],
      "stateMutability": "nonpayable",
      "type": "function"
    },
    {
      "inputs": [
        {
          "internalType": "uint256",
          "name": "_pollId",
          "type": "uint256"
        }
      ],
      "name": "getPoll",
      "outputs": [
        {
          "internalType": "address",
          "name": "poll",
          "type": "address"
        }
      ],
      "stateMutability": "view",
      "type": "function"
    },
    {
      "inputs": [
        {
          "internalType": "address",
          "name": "_poll",
          "type": "address"
        }
      ],
      "name": "getPollId",
      "outputs": [
        {
          "internalType": "uint256",
          "name": "pollId",
          "type": "uint256"
        }
      ],
      "stateMutability": "view",
      "type": "function"
    },
    {
      "inputs": [],
      "name": "getStateAqRoot",
      "outputs": [
        {
          "internalType": "uint256",
          "name": "root",
          "type": "uint256"
        }
      ],
      "stateMutability": "view",
      "type": "function"
    },
    {
      "inputs": [
        {
          "internalType": "uint256[2]",
          "name": "array",
          "type": "uint256[2]"
        }
      ],
      "name": "hash2",
      "outputs": [
        {
          "internalType": "uint256",
          "name": "result",
          "type": "uint256"
        }
      ],
      "stateMutability": "pure",
      "type": "function"
    },
    {
      "inputs": [
        {
          "internalType": "uint256[3]",
          "name": "array",
          "type": "uint256[3]"
        }
      ],
      "name": "hash3",
      "outputs": [
        {
          "internalType": "uint256",
          "name": "result",
          "type": "uint256"
        }
      ],
      "stateMutability": "pure",
      "type": "function"
    },
    {
      "inputs": [
        {
          "internalType": "uint256[4]",
          "name": "array",
          "type": "uint256[4]"
        }
      ],
      "name": "hash4",
      "outputs": [
        {
          "internalType": "uint256",
          "name": "result",
          "type": "uint256"
        }
      ],
      "stateMutability": "pure",
      "type": "function"
    },
    {
      "inputs": [
        {
          "internalType": "uint256[5]",
          "name": "array",
          "type": "uint256[5]"
        }
      ],
      "name": "hash5",
      "outputs": [
        {
          "internalType": "uint256",
          "name": "result",
          "type": "uint256"
        }
      ],
      "stateMutability": "pure",
      "type": "function"
    },
    {
      "inputs": [
        {
          "internalType": "uint256",
          "name": "left",
          "type": "uint256"
        },
        {
          "internalType": "uint256",
          "name": "right",
          "type": "uint256"
        }
      ],
      "name": "hashLeftRight",
      "outputs": [
        {
          "internalType": "uint256",
          "name": "result",
          "type": "uint256"
        }
      ],
      "stateMutability": "pure",
      "type": "function"
    },
    {
      "inputs": [
        {
          "components": [
            {
              "internalType": "uint256",
              "name": "msgType",
              "type": "uint256"
            },
            {
              "internalType": "uint256[10]",
              "name": "data",
              "type": "uint256[10]"
            }
          ],
          "internalType": "struct DomainObjs.Message",
          "name": "_message",
          "type": "tuple"
        },
        {
          "components": [
            {
              "internalType": "uint256",
              "name": "x",
              "type": "uint256"
            },
            {
              "internalType": "uint256",
              "name": "y",
              "type": "uint256"
            }
          ],
          "internalType": "struct DomainObjs.PubKey",
          "name": "_encPubKey",
          "type": "tuple"
        }
      ],
      "name": "hashMessageAndEncPubKey",
      "outputs": [
        {
          "internalType": "uint256",
          "name": "msgHash",
          "type": "uint256"
        }
      ],
      "stateMutability": "pure",
      "type": "function"
    },
    {
      "inputs": [
        {
          "components": [
            {
              "components": [
                {
                  "internalType": "uint256",
                  "name": "x",
                  "type": "uint256"
                },
                {
                  "internalType": "uint256",
                  "name": "y",
                  "type": "uint256"
                }
              ],
              "internalType": "struct DomainObjs.PubKey",
              "name": "pubKey",
              "type": "tuple"
            },
            {
              "internalType": "uint256",
              "name": "voiceCreditBalance",
              "type": "uint256"
            },
            {
              "internalType": "uint256",
              "name": "timestamp",
              "type": "uint256"
            }
          ],
          "internalType": "struct DomainObjs.StateLeaf",
          "name": "_stateLeaf",
          "type": "tuple"
        }
      ],
      "name": "hashStateLeaf",
      "outputs": [
        {
          "internalType": "uint256",
          "name": "ciphertext",
          "type": "uint256"
        }
      ],
      "stateMutability": "pure",
      "type": "function"
    },
    {
      "inputs": [],
      "name": "initialVoiceCreditProxy",
      "outputs": [
        {
          "internalType": "contract InitialVoiceCreditProxy",
          "name": "",
          "type": "address"
        }
      ],
      "stateMutability": "view",
      "type": "function"
    },
    {
      "inputs": [
        {
          "internalType": "uint256",
          "name": "",
          "type": "uint256"
        },
        {
          "internalType": "uint256",
          "name": "",
          "type": "uint256"
        }
      ],
      "name": "isPublicKeyRegistered",
      "outputs": [
        {
          "internalType": "bool",
          "name": "",
          "type": "bool"
        }
      ],
      "stateMutability": "view",
      "type": "function"
    },
    {
      "inputs": [],
      "name": "manager",
      "outputs": [
        {
          "internalType": "address",
          "name": "",
          "type": "address"
        }
      ],
      "stateMutability": "view",
      "type": "function"
    },
    {
      "inputs": [
        {
          "internalType": "uint256",
          "name": "_pollId",
          "type": "uint256"
        }
      ],
      "name": "mergeStateAq",
      "outputs": [
        {
          "internalType": "uint256",
          "name": "root",
          "type": "uint256"
        }
      ],
      "stateMutability": "nonpayable",
      "type": "function"
    },
    {
      "inputs": [
        {
          "internalType": "uint256",
          "name": "_numSrQueueOps",
          "type": "uint256"
        },
        {
          "internalType": "uint256",
          "name": "_pollId",
          "type": "uint256"
        }
      ],
      "name": "mergeStateAqSubRoots",
      "outputs": [],
      "stateMutability": "nonpayable",
      "type": "function"
    },
    {
      "inputs": [],
      "name": "messageProcessorFactory",
      "outputs": [
        {
          "internalType": "contract IMessageProcessorFactory",
          "name": "",
          "type": "address"
        }
      ],
      "stateMutability": "view",
      "type": "function"
    },
    {
      "inputs": [],
      "name": "nextPollId",
      "outputs": [
        {
          "internalType": "uint256",
          "name": "",
          "type": "uint256"
        }
      ],
      "stateMutability": "view",
      "type": "function"
    },
    {
      "inputs": [],
      "name": "numSignUps",
      "outputs": [
        {
          "internalType": "uint256",
          "name": "",
          "type": "uint256"
        }
      ],
      "stateMutability": "view",
      "type": "function"
    },
    {
      "inputs": [],
      "name": "owner",
      "outputs": [
        {
          "internalType": "address",
          "name": "",
          "type": "address"
        }
      ],
      "stateMutability": "view",
      "type": "function"
    },
    {
      "inputs": [
        {
          "internalType": "uint256[2]",
          "name": "dataToPad",
          "type": "uint256[2]"
        },
        {
          "internalType": "uint256",
          "name": "msgType",
          "type": "uint256"
        }
      ],
      "name": "padAndHashMessage",
      "outputs": [
        {
          "components": [
            {
              "internalType": "uint256",
              "name": "msgType",
              "type": "uint256"
            },
            {
              "internalType": "uint256[10]",
              "name": "data",
              "type": "uint256[10]"
            }
          ],
          "internalType": "struct DomainObjs.Message",
          "name": "message",
          "type": "tuple"
        },
        {
          "components": [
            {
              "internalType": "uint256",
              "name": "x",
              "type": "uint256"
            },
            {
              "internalType": "uint256",
              "name": "y",
              "type": "uint256"
            }
          ],
          "internalType": "struct DomainObjs.PubKey",
          "name": "padKey",
          "type": "tuple"
        },
        {
          "internalType": "uint256",
          "name": "msgHash",
          "type": "uint256"
        }
      ],
      "stateMutability": "pure",
      "type": "function"
    },
    {
      "inputs": [],
      "name": "pollFactory",
      "outputs": [
        {
          "internalType": "contract IPollFactory",
          "name": "",
          "type": "address"
        }
      ],
      "stateMutability": "view",
      "type": "function"
    },
    {
      "inputs": [
        {
          "internalType": "address",
          "name": "",
          "type": "address"
        }
      ],
      "name": "pollIds",
      "outputs": [
        {
          "internalType": "uint256",
          "name": "",
          "type": "uint256"
        }
      ],
      "stateMutability": "view",
      "type": "function"
    },
    {
      "inputs": [
        {
          "internalType": "uint256",
          "name": "",
          "type": "uint256"
        }
      ],
      "name": "polls",
      "outputs": [
        {
          "internalType": "address",
          "name": "",
          "type": "address"
        }
      ],
      "stateMutability": "view",
      "type": "function"
    },
    {
      "inputs": [],
      "name": "renounceOwnership",
      "outputs": [],
      "stateMutability": "nonpayable",
      "type": "function"
    },
    {
      "inputs": [
        {
          "internalType": "uint256[]",
          "name": "array",
          "type": "uint256[]"
        }
      ],
      "name": "sha256Hash",
      "outputs": [
        {
          "internalType": "uint256",
          "name": "result",
          "type": "uint256"
        }
      ],
      "stateMutability": "pure",
      "type": "function"
    },
    {
      "inputs": [
        {
          "components": [
            {
              "internalType": "uint256",
              "name": "x",
              "type": "uint256"
            },
            {
              "internalType": "uint256",
              "name": "y",
              "type": "uint256"
            }
          ],
          "internalType": "struct DomainObjs.PubKey",
          "name": "_pubKey",
          "type": "tuple"
        },
        {
          "internalType": "bytes",
          "name": "_signUpGatekeeperData",
          "type": "bytes"
        },
        {
          "internalType": "bytes",
          "name": "_initialVoiceCreditProxyData",
          "type": "bytes"
        }
      ],
      "name": "signUp",
      "outputs": [],
      "stateMutability": "nonpayable",
      "type": "function"
    },
    {
      "inputs": [],
      "name": "signUpGatekeeper",
      "outputs": [
        {
          "internalType": "contract SignUpGatekeeper",
          "name": "",
          "type": "address"
        }
      ],
      "stateMutability": "view",
      "type": "function"
    },
    {
      "inputs": [],
      "name": "stateAq",
      "outputs": [
        {
          "internalType": "contract AccQueue",
          "name": "",
          "type": "address"
        }
      ],
      "stateMutability": "view",
      "type": "function"
    },
    {
      "inputs": [],
      "name": "stateTreeDepth",
      "outputs": [
        {
          "internalType": "uint8",
          "name": "",
          "type": "uint8"
        }
      ],
      "stateMutability": "view",
      "type": "function"
    },
    {
      "inputs": [],
      "name": "subtreesMerged",
      "outputs": [
        {
          "internalType": "bool",
          "name": "",
          "type": "bool"
        }
      ],
      "stateMutability": "view",
      "type": "function"
    },
    {
      "inputs": [],
      "name": "tallyFactory",
      "outputs": [
        {
          "internalType": "contract ITallyFactory",
          "name": "",
          "type": "address"
        }
      ],
      "stateMutability": "view",
      "type": "function"
    },
    {
      "inputs": [],
      "name": "topupCredit",
      "outputs": [
        {
          "internalType": "contract TopupCredit",
          "name": "",
          "type": "address"
        }
      ],
      "stateMutability": "view",
      "type": "function"
    },
    {
      "inputs": [
        {
          "internalType": "address",
          "name": "newOwner",
          "type": "address"
        }
      ],
      "name": "transferOwnership",
      "outputs": [],
      "stateMutability": "nonpayable",
      "type": "function"
    },
    {
      "inputs": [
        {
          "internalType": "address",
          "name": "_manager",
          "type": "address"
        }
      ],
      "name": "updateManager",
      "outputs": [],
      "stateMutability": "nonpayable",
      "type": "function"
    }
  ],
  "transactionHash": "0x09e210903cb843da880a8772c8fa75f646e0294fcada7152ee8400c298055148",
  "args": [
    "0x135971dC56C10391E88148710577307aaE5f66A2",
    "0xed6c02318be7Ce7987a2675a7A2FF7acc8302497",
    "0x9ecb939F179A37241eD2E383Ea36D30336F1964E",
    "0x0e46b008876970437ceC806d67624A1dC34B29ed",
    "0xeD014b320C9B8F4c6c387D18Cf04dC45e5f13843",
    "0x60cfc8062dc26046c25c6a80DF4AA61FfDdAf28E",
    10
  ],
  "numDeployments": 2,
  "solcInputHash": "79ae3e088114d792164a9068ef4ed3b4",
  "bytecode": "0x610180604081815260e0826200447a80380380916200001f828562000394565b8339810103126200038f5781516001600160a01b039283821682036200038f57602092838201519385851685036200038f57818301519580871687036200038f5760608401519381851685036200038f5760808101519582871687036200038f5760a08201519183831683036200038f5760c001519160ff831683036200038f5760008054336001600160a01b03198216811783558851929592939187167f8be0079c531659141344cd1fd0a4f28419497f9722a3daafe3b4186f6b6457e08780a36001600160401b03956122af8481019490888611828710176200037b57620021cb8239888160029687815203019087f080156200037157169a85888d6101209e8f5260248c5180948193631ffc735d60e01b83527f0ef71f46e11a513c599eed9dd03576c33439bcfb1cee155316f90541e41649ba60048401525af18015620003675790899162000334575b5050600194856005540160055560c05260e0526101009b8c5260a05261014097885261016098895260805285519386850190858210908211176200032057865281845284840182905285516314d2f97b60e11b8152938390600486015b878484106200030d57945050505050826044817347076a871Ae4e442784dff8BCB42E3E4E440D5195af492831562000301578193620002c7575b50505015620002b7575192611dfc9485620003cf86396080518581816102cc01528181610cfa015281816111350152611471015260a05185818161085c0152611645015260c05185818161089a0152611076015260e05185818161091a01526118040152518481816109a00152610d340152518381816102f3015281816103e301528181610d9e0152818161129a01526114a00152518281816111a7015261168a015251818181610664015261122a0152f35b51633d7ba68560e21b8152600490fd5b9091809350813d8311620002f9575b620002e2818362000394565b81010312620002f657505138808062000204565b80fd5b503d620002d6565b508351903d90823e3d90fd5b82518252928501929182019101620001ca565b634e487b7160e01b84526041600452602484fd5b813d83116200035f575b6200034a818362000394565b810103126200035b5787386200016d565b8580fd5b503d6200033e565b8a513d89823e3d90fd5b89513d88823e3d90fd5b634e487b7160e01b88526041600452602488fd5b600080fd5b601f909101601f19168101906001600160401b03821190821017620003b857604052565b634e487b7160e01b600052604160045260246000fdfe608080604052600436101561001357600080fd5b600090813560e01c908163055575eb146117f05750806306912d3c146116b9578063079410db146116745780630dd5a8881461162f578063122db15314611611578063167fd4831461156f5780631a8cbcaa146115185780632877e036146114515780632b786571146114335780633364120a146110a5578063343393b5146110605780633dfb88b21461100857806346e47f9a14610fa1578063481c6a7514610f7857806358aba00f14610f3857806358bfc37914610dfe5780635bb9399514610dcd578063603baff814610d8857806362a361bb14610d6357806362b31f1e14610d1e578063652c76e414610ce0578063683f3dc314610cc4578063715018a614610c6a5780637d0a81c814610c285780638da5cb5b14610c015780639cfced9714610ba1578063a48e775014610693578063aab4a6701461064e578063ac2f00741461061b578063bea140b31461052b578063c02db7b814610508578063c8cf9ab2146104cf578063cfa1fa03146103b3578063d7a71b9a14610381578063dd0982a3146102755763f2fde38b146101ad57600080fd5b34610272576020366003190112610272576101c66119b6565b6101ce6119e2565b6001600160a01b0390811690811561021e57600054826001600160601b0360a01b821617600055167f8be0079c531659141344cd1fd0a4f28419497f9722a3daafe3b4186f6b6457e0600080a380f35b60405162461bcd60e51b815260206004820152602660248201527f4f776e61626c653a206e6577206f776e657220697320746865207a65726f206160448201526564647265737360d01b6064820152608490fd5b80fd5b503461027257602090816003193601126102725760043581526002825260408120546001600160a01b0390811633036103695782829160ff19600454166004556024604051809481936324a47aeb60e01b835260ff7f00000000000000000000000000000000000000000000000000000000000000001660048401527f0000000000000000000000000000000000000000000000000000000000000000165af191821561035d579161032b575b50604051908152f35b90508181813d8311610356575b61034281836118d4565b81010312610351575138610322565b600080fd5b503d610338565b604051903d90823e3d90fd5b604051635859049960e01b8152336004820152602490fd5b50346102725760ff6040602092610397366119cc565b9082526006855282822090825284522054166040519015158152f35b5034610272576103c2366119cc565b8252600260205260408220546001600160a01b0390811633036103695782907f00000000000000000000000000000000000000000000000000000000000000001691823b156104a4576040519063c15da65b60e01b82526004820152818160248183875af180156104b0576104bb575b505060206004916040519283809263b6a64acd60e01b82525afa9081156104b0578291610472575b506104625780f35b600160ff19600454161760045580f35b90506020813d82116104a8575b8161048c602093836118d4565b810103126104a4575180151581036104a4573861045a565b5080fd5b3d915061047f565b6040513d84823e3d90fd5b6104c49061184f565b6104a4578138610432565b5034610272576020366003190112610272576020906040906001600160a01b036104f76119b6565b168152600383522054604051908152f35b5034610272578060031936011261027257602060ff600454166040519015158152f35b5034610272576060366003190112610272573660231215610272576040519061055382611863565b606482368211610351576004905b82821061060b5750506040516304b98e1d60e31b81529283908390600483015b600383106105f1575050506020918173Fa21436084377C74855b2DB9CFe7322a4DDC1c3C5af490811561035d57906105bf575b602090604051908152f35b506020813d82116105e9575b816105d8602093836118d4565b8101031261035157602090516105b4565b3d91506105cb565b815181528693506001929092019160209182019101610581565b8135815260209182019101610561565b503461027257602036600319011261027257602090600435815260028252604060018060a01b0391205416604051908152f35b50346102725780600319360112610272576040517f00000000000000000000000000000000000000000000000000000000000000006001600160a01b03168152602090f35b503461027257610140366003190112610272576080366023190112610272576040516080810181811067ffffffffffffffff821117610b8b5760405260243560ff8116810361035157815260443560ff8116810361035157602082015260643560ff8116810361035157604082015260843560ff8116810361035157606082015260403660a3190112610351576040519061072d82611833565b60a435825260c435602083015260e435916001600160a01b03831683036103515761010435926001600160a01b03841684036103515761012435928315158403610b8757856040805161077f81611863565b8281526020810183905201526007546001600160a01b03163303610b425760015493600185016001556107b860ff604084015116611a3a565b6107c860ff606085015116611a3a565b604051916107d583611833565b8252602082015260ff606060018060a01b038a54169460206040519463b43c496960e01b8652600435600487015280516024870152015160448501528281511660648501528260208201511660848501528260408201511660a485015201511660c4820152845160e482015260208501516101048201523061012482015260018060a01b037f00000000000000000000000000000000000000000000000000000000000000001661014482015282610164820152602081610184818b60018060a01b037f0000000000000000000000000000000000000000000000000000000000000000165af1908115610b37578891610b18575b50604051635c2270fd60e11b81526001600160a01b038581166004830152888116602483015291821660448201819052606482018590528315156084830152979091602090839060a49082908d907f0000000000000000000000000000000000000000000000000000000000000000165af1918215610b0d578992610aec575b5060405163f68abb5960e01b81526001600160a01b03958616600482015290851660248201526044810188905290841660648201819052608482019390935290151560a482015291602090839060c49082908a907f0000000000000000000000000000000000000000000000000000000000000000165af1918215610ae15786859160609894610aad575b508082604092526002602052818120886001600160601b0360a01b8254161790558781526003602052205560405194610a0d86611863565b8552602085015260018060a01b031660408401527f5d44349ae326b87d465005978623860ad393d327ba73078f82a9331a7cc6b36060806020835193015193604051908152610a8060208201876040908160018060a01b0391828151168552826020820151166020860152015116910152565ba36040805182516001600160a01b0390811682526020808501518216908301529282015190921690820152f35b6040919450610ad39060203d602011610ada575b610acb81836118d4565b810190611b1d565b93906109d5565b503d610ac1565b6040513d88823e3d90fd5b610b0691925060203d602011610ada57610acb81836118d4565b903861094a565b6040513d8b823e3d90fd5b610b31915060203d602011610ada57610acb81836118d4565b386108ca565b6040513d8a823e3d90fd5b60405162461bcd60e51b815260206004820152601c60248201527f6f6e6c79206d616e616765722063616e2063726561746520706f6c6c000000006044820152606490fd5b8580fd5b634e487b7160e01b600052604160045260246000fd5b50346102725760a036600319011261027257366023121561027257604051610bc8816118b8565b60a481368211610351576020926004905b838210610bf25784610bea84611c45565b604051908152f35b81358152908401908401610bd9565b5034610272578060031936011261027257546040516001600160a01b039091168152602090f35b5034610272576080366003190112610272576020610bea604051610c4b81611863565b610c5436611937565b8152604435838201526064356040820152611cac565b5034610272578060031936011261027257610c836119e2565b600080546001600160a01b0319811682556001600160a01b03167f8be0079c531659141344cd1fd0a4f28419497f9722a3daafe3b4186f6b6457e08280a380f35b50346102725780600319360112610272576020604051600a8152f35b5034610272578060031936011261027257602060405160ff7f0000000000000000000000000000000000000000000000000000000000000000168152f35b50346102725780600319360112610272576040517f00000000000000000000000000000000000000000000000000000000000000006001600160a01b03168152602090f35b5034610272576040366003190112610272576020610bea610d83366118f6565b611b3c565b50346102725780600319360112610272576040517f00000000000000000000000000000000000000000000000000000000000000006001600160a01b03168152602090f35b5034610272576020610bea610de1366119cc565b60405191610dee83611833565b6040368437825283820152611b3c565b503461027257602090816003193601126102725767ffffffffffffffff600435818111610f345736602382011215610f34578060040135918211610f20578160051b9060405192610e51868401856118d4565b83528483016024819383010191368311610b875791869394916024879401905b828210610f0e57505050604051838101809251909590845b818110610ef557505050610eab81610ebc94959603601f1981018352826118d4565b604051928392839251928391611abf565b8101039060025afa1561035d577f30644e72e131a029b85045b68181585d2833e84879b9709143e1f593f0000001905106604051908152f35b8251885296860196899689965090920191600101610e89565b81358152879450908501908501610e71565b634e487b7160e01b83526041600452602483fd5b8280fd5b503461027257602036600319011261027257610f526119b6565b610f5a6119e2565b60018060a01b03166001600160601b0360a01b600754161760075580f35b50346102725780600319360112610272576007546040516001600160a01b039091168152602090f35b5034610272576020366003190112610272576001600160a01b03610fc36119b6565b16808252600360205260408220546001541115610ff0578160409160209352600383522054604051908152f35b6024906040519063e64d908d60e01b82526004820152fd5b50346102725760803660031901126102725736602312156102725760405161102f8161189c565b608481368211610351576020926004905b8382106110515784610bea84611bdd565b81358152908401908401611040565b50346102725780600319360112610272576040517f00000000000000000000000000000000000000000000000000000000000000006001600160a01b03168152602090f35b5034610272576080366003190112610272576110c036611937565b67ffffffffffffffff60443581811161142f576110e190369060040161195f565b9060643590811161142f576110fa90369060040161195f565b90825184526020926006845260408520928482019384518752855260ff60408720541661141d5760ff6004541661140b5760055461115a60ff7f000000000000000000000000000000000000000000000000000000000000000016611a3a565b8110156113f9577f30644e72e131a029b85045b68181585d2833e84879b9709143e1f593f000000180845110908115916113ed575b506113db576001016005556001600160a01b039286907f0000000000000000000000000000000000000000000000000000000000000000851690813b15610f345782916111f39160405194858094819363125c7dfb60e11b83523360048401611ae2565b03925af180156113d0576113b5575b50906112258587936040518093819263b36543a960e01b83523360048401611ae2565b0381877f0000000000000000000000000000000000000000000000000000000000000000165afa9384156113aa5786918495611378575b50602461128160405161126e81611863565b8581528785820152426040820152611cac565b6040519586938492631ffc735d60e01b845260048401527f0000000000000000000000000000000000000000000000000000000000000000165af1918215610ae1578692611329575b50907fd3c3cd829e4e37d5baaf10abace26b24e0046e20500c999380410f807edfcda09282606093518852600687526040882086518952875260408820600160ff1982541617905551945195604051928352820152426040820152a380f35b91508482813d8311611371575b61134081836118d4565b81010312610351579051907fd3c3cd829e4e37d5baaf10abace26b24e0046e20500c999380410f807edfcda06112ca565b503d611336565b9350935082813d83116113a3575b61139081836118d4565b810103126103515784869251933861125c565b503d611386565b6040513d85823e3d90fd5b85966113c66112259294939461184f565b9650919091611202565b6040513d89823e3d90fd5b6040516354be831760e11b8152600490fd5b9050855110153861118f565b60405163b984588b60e01b8152600490fd5b60405163259e785160e11b8152600490fd5b604051632e13e04560e01b8152600490fd5b8380fd5b50346102725780600319360112610272576020600154604051908152f35b5034610272578060031936011261027257604051631b9b8aa760e01b81527f000000000000000000000000000000000000000000000000000000000000000060ff1660048201526020816024817f00000000000000000000000000000000000000000000000000000000000000006001600160a01b03165afa9081156104b05782916114e3575b602082604051908152f35b90506020813d8211611510575b816114fd602093836118d4565b810103126104a4576020915051386114d8565b3d91506114f0565b5034610272576020366003190112610272576004359060015482101561155657602091815260028252604060018060a01b0391205416604051908152f35b60405163a86ecdd560e01b815260048101839052602490fd5b50346102725736600319016101a081126104a457610160136102725760405161159781611833565b600435815236604312156104a457604051916115b28361187f565b8261016493368511610f34576024905b8582106116015750506020830152604036610163190112610272576020610bea8484604051916115f183611833565b3582526101843584830152611ceb565b81358152602091820191016115c2565b50346102725780600319360112610272576020600554604051908152f35b50346102725780600319360112610272576040517f00000000000000000000000000000000000000000000000000000000000000006001600160a01b03168152602090f35b50346102725780600319360112610272576040517f00000000000000000000000000000000000000000000000000000000000000006001600160a01b03168152602090f35b5034610272576060366003190112610272576116d4366118f6565b604051906116e182611833565b828252604051916116f18361187f565b61014091823685376020938480930152848260405161170f81611833565b8281520152604051926117218461187f565b3684378051835201518282015260405161173a81611833565b7f171e826ad4a870fd925e0bf0e87884e70e080879c2205ef10114f28a3b6f6dd78152828101907f2bd407d897fbbca9f88adfd2d15252e69de8c1564eb4d3d27162e259172f1a1d82526040519361179185611833565b60443585528085019384526117a68286611ceb565b60405195518652935195908086015b600a83106117db575050506101c0945051610160840152516101808301526101a0820152f35b81806001928a518152019801920191966117b5565b9050346104a457816003193601126104a4577f00000000000000000000000000000000000000000000000000000000000000006001600160a01b03168152602090f35b6040810190811067ffffffffffffffff821117610b8b57604052565b67ffffffffffffffff8111610b8b57604052565b6060810190811067ffffffffffffffff821117610b8b57604052565b610140810190811067ffffffffffffffff821117610b8b57604052565b6080810190811067ffffffffffffffff821117610b8b57604052565b60a0810190811067ffffffffffffffff821117610b8b57604052565b90601f8019910116810190811067ffffffffffffffff821117610b8b57604052565b8060231215610351576040519061190c82611833565b816044918211610351576004905b8282106119275750505090565b813581526020918201910161191a565b6040906003190112610351576040519061195082611833565b60043582526024356020830152565b81601f820112156103515780359067ffffffffffffffff8211610b8b5760405192611994601f8401601f1916602001856118d4565b8284526020838301011161035157816000926020809301838601378301015290565b600435906001600160a01b038216820361035157565b6040906003190112610351576004359060243590565b6000546001600160a01b031633036119f657565b606460405162461bcd60e51b815260206004820152602060248201527f4f776e61626c653a2063616c6c6572206973206e6f7420746865206f776e65726044820152fd5b8015611ab957600190602081108216604e8210831617611ab15781906005925b808211611a8857505081600019048111611a72570290565b634e487b7160e01b600052601160045260246000fd5b909280600019048111611a7257818416611aa8575b800292811c90611a5a565b80920291611a9d565b905060050a90565b50600190565b60005b838110611ad25750506000910152565b8181015183820152602001611ac2565b909160609260018060a01b0316825260406020830152611b118151809281604086015260208686019101611abf565b601f01601f1916010190565b9081602091031261035157516001600160a01b03811681036103515790565b6040516314d2f97b60e11b815290600090600483015b60028310611bc6575050506020816044817347076a871Ae4e442784dff8BCB42E3E4E440D5195af4908115611bba57600091611b8c575090565b906020823d8211611bb2575b81611ba5602093836118d4565b8101031261027257505190565b3d9150611b98565b6040513d6000823e3d90fd5b600190825181526020809101920192019190611b52565b60405163248f667760e01b81529060049060008284015b838210611c2e575050505060208160848173Af8D2aF5AB9654e4818142c6511754771c8064A55af4908115611bba57600091611b8c575090565b600190835181526020809101930191019091611bf4565b604051630926f44b60e31b815290600090600483015b60058310611c955750505060208160a481732D610532b8e16e950DD853572Fee9493d3c339625af4908115611bba57600091611b8c575090565b600190825181526020809101920192019190611c5b565b611ce8906040805191611cbe8361189c565b60803684378051518352602081510151602084015260208101518284015201516060820152611bdd565b90565b906020808301916040805194611d00866118b8565b60a0368737845151865283855101518487015281855101518287015260608551015160608701526080855101516080870152610120825195611d41876118b8565b60a036883760a081510151875260c0815101518688015260e08151015184880152610100815101516060880152510151608086015281519460a0860186811067ffffffffffffffff821117610b8b57611ce897611daf93611da6928652518852611c45565b85870152611c45565b908401528051606084015201516080820152611c4556fea264697066735822122030efc1359d837b95c140397ed9067177c0625afeee9ad3312a0682dcd021c46164736f6c6343000814003360e0346200065d57601f620022af38819003918201601f19168301916001600160401b0383118484101762000662578084926020946040528339810103126200065d5751600054906040513360018060a01b0384167f8be0079c531659141344cd1fd0a4f28419497f9722a3daafe3b4186f6b6457e0600080a381156200064e5750602081116200062f576001600160a81b03199091163360ff60a01b1916176000556080819052600560a052620000b79062000678565b60c0527f0ef71f46e11a513c599eed9dd03576c33439bcfb1cee155316f90541e41649ba610172557f0404a2ed0a1df2006441895d9a65ffffdd4968cb5f555fe72a6da7aaec83e1a0610173557f0b1c3d09dd575749a374a9dc1ee32af8c2312e24ad33a3e40fce8120b0f25fe3610174557f1f60ed72fc1915366d2e52cfc7ddc0ff854c7aee9abbc07d1ca88ada842354dc610175557f2ca1efc603fc121baf791319195ee3ab7fa075cee664d008f9ab2870f5028360610176557f2a0381fc4fb108733dfc58c355f2de753bcde61bd988eaa7d33fc967262be5ad610177557f12c6c7cce0332367373dafc95d75b98dd58980410434929dff09466a4ba262db610178557f2f212d3cc7e7334c4a10ced1be011b9cd70f73cca5522fc4137a51be8a17d18e610179557f0968ef20d515d8d743b2cf66603f8b86f3fdeee932fdc911774bb8699566e11c61017a557f2e3604981890fb676c3dac1e14c5c201573f99d1b9e67025109baf274b10e9dd61017b557f147d317fd4b7a1dd6cb961cfba444466b3c431ea638c8df74a89fc591d1a3a5161017c557f10ea2b72952b619afd5b9bc50561df8de0c6e1ba9b5ad66b179c39c420304a7561017d557f1c49f7b357d244d9144676ad23f79465ef5b88ef0f91762a3d35997688af9a5a61017e557f05ca0cfef8158efc5c4af44122e2765179b5463618d5c5ac6185c192332cade961017f557f0ae1595634e8a2e23620f33f9b2b5a23387a28f5833814646900110842f3a109610180557f08be8c2a6a099d9cdc96f9197af6ad99595d73419eb0694eaea432fa18baa203610181557f207f689ce35cf857ee6e68c42d31bb2191d1e84d7a295ccd63995ca7369d20eb610182557f2a6f6b7e4a2cd1a6466ed17debb0a27904e99adbd72be85566a87340f41efd05610183557f0f0725795350566920bbf56d3f22c4d38e832e638c9cb91811f83194e9dd74be610184557f02cd50632e5c5b00a9a93f434797725ec0f85f11ba1b6a844f0cd10c70df6392610185557f08868b85d2fa4c17eec0a7d8bca4671a00474bff80e801981437b77aa11d10b5610186557f294a84b7b46ea0a781877a2c0efd1ee56758d9ee55722721867efe53f4645286610187557f02cb8070979a018bb919f0d1a25d5ad3d5a376c4cf66f36d33434d221ca77e88610188557f05dfce8303f471d776762f2ddd37f05191b8bf5064d8d28e892cd4ec21e7aab4610189557f28a47617aa1e26bf42fd3b26e88aa717fd759bb92b22faaf5ad82090680b523161018a557f1de9253f5fa546603817abd83d1a13c8562f2bf6a0069a546fe546ca0c03c17061018b557f1cb9bd316e341b873dbbef94fd699c6e3a638451de2817db1620235db2b6c39e61018c557f0654785b2917d7c659a95738add3d8eb51cbbefc0f521c2640bc74b0fec5816261018d557f2eed74eacf5de60a758f815cb5e73015455c38408143fc25810d03e1ec9e352461018e557f16bea3363deb4753db67be8b19110b169ae39f33113a92773c41a8b025ca5a9361018f557f2b0dd3b7e0a7e234a4a1b48dd0e9083dc8bfc8cd7f72abdb93a1b8e5ef3e22ed610190557f0bc1ca795d5a059b1dc0c51f72c46f2288cb139ebf09f38ac3e8bca0485ed497610191557f249ca1610a7f80bbf422388c18ef9777fcdab26ee718e2b39e4011973a90233061019255604051611ba990816200070682396080518181816102980152818161031201528181610c7b015281816110cf015281816111c5015281816114610152818161158d015281816115fb015261199b015260a05181818161046801528181610d22015281816110a5015281816111ee015281816113400152818161140b01528181611717015281816118010152611978015260c0518181816102690152818161055701528181610c4401526113a90152f35b60449060405190637ccdcc9760e11b8252600482015260206024820152fd5b63682e504160e11b8152600490fd5b600080fd5b634e487b7160e01b600052604160045260246000fd5b8015620006ff57600190602081108216604e8210831617620006f75781906005925b808211620006ca57505081600019048111620006b4570290565b634e487b7160e01b600052601160045260246000fd5b909280600019048111620006b457818416620006ed575b800292811c906200069a565b80920291620006e1565b905060050a90565b5060019056fe60406080815260048036101561001457600080fd5b600091823560e01c80631b9b8aa714610d065780631ffc735d14610beb57806324a47aeb14610bc35780633bfa6fce14610ba65780633dfb88b214610ac85780633e1a8cc114610a8e57806358bfc379146109375780635bb93995146109065780635bf1fa4d1461089057806362a361bb1461083657806369e7c5861461080e578063715018a6146107b457806381d6a24a1461078e5780638da5cb5b146107665780639cfced971461070b578063a27154ba146106f0578063b6a64acd146106cb578063bea140b3146105a7578063c00bdbcc14610516578063c15da65b146104ee578063d9c55ce114610242578063dda89a6e1461021e578063e93fb4d4146101f45763f2fde38b1461012857600080fd5b346101f05760203660031901126101f0576001600160a01b038235818116939192908490036101ec57610159610e24565b831561019a57505082546001600160a01b0319811683178455167f8be0079c531659141344cd1fd0a4f28419497f9722a3daafe3b4186f6b6457e08380a380f35b906020608492519162461bcd60e51b8352820152602660248201527f4f776e61626c653a206e6577206f776e657220697320746865207a65726f206160448201526564647265737360d01b6064820152fd5b8480fd5b8280fd5b50823461021b57602036600319011261021b575061021460209235611b2e565b9051908152f35b80fd5b83823461023e578160031936011261023e57602090610171549051908152f35b5080fd5b5082903461023e578160031936011261023e5761025d610e24565b6101719081549061028f7f00000000000000000000000000000000000000000000000000000000000000008093610e7c565b610310576102bc7f0000000000000000000000000000000000000000000000000000000000000000611b62565b90600154855261014c6020528420555b600154600181018091116102fd5790816102e892600155611023565b90558061016f5561016e60ff19815416905580f35b634e487b7160e01b845260118552602484fd5b7f0000000000000000000000000000000000000000000000000000000000000000845b81811061039c575060218110156103895760021b6002015490600154855261014c6020528420558360025b60868110610375575050610370610ff0565b6102cc565b6103818282018261100c565b01849061035e565b634e487b7160e01b855260328652602485fd5b6021811015806103c95781608601908154806103dc575b506103c95790866103c49255611071565b610333565b634e487b7160e01b875260328852602487fd5b9585979193959894929851976103f189610dcb565b60a0368a376103ff87611b62565b93865b60ff81168a811015610458578761044457908b61043961043f9361042c848e600290811b01611061565b90549060031b1c926117cb565b526117ba565b610402565b50634e487b7160e01b885260328d52602488fd5b509b9796959a94999850919290927f00000000000000000000000000000000000000000000000000000000000000009b5b60ff81168d8110156104a957908b6104396104a4938d6117cb565b610489565b5050979098506104bf9195949992969a50610f3d565b60018401908185116104db57906104d5916111c2565b896103b3565b634e487b7160e01b8a5260118b5260248afd5b50503461023e57602036600319011261023e576105139061050d610e24565b3561138b565b80f35b50346101f05760203660031901126101f057610530610e24565b600154835261014c60205281359083205561054c600154611071565b6001556101718054917f000000000000000000000000000000000000000000000000000000000000000083018093116105945750558061016f5561016e60ff19815416905580f35b634e487b7160e01b845260119052602483fd5b50346101f05760603660031901126101f05736602312156101f05780516060810181811067ffffffffffffffff8211176106b8578252806064913683116106b457849194905b8382106106a457505082516304b98e1d60e31b815293849186919083015b6003831061068a575050506020918173Fa21436084377C74855b2DB9CFe7322a4DDC1c3C5af4918215610680578392610649575b6020838351908152f35b9091506020813d8211610678575b8161066460209383610de7565b810103126101f0576020925051903861063f565b3d9150610657565b81513d85823e3d90fd5b81518152869350600192909201916020918201910161060b565b81358152602091820191016105ed565b8580fd5b634e487b7160e01b855260418452602485fd5b83823461023e578160031936011261023e5760209060ff61016e541690519015158152f35b83823461023e578160031936011261023e5760209051818152f35b5090346101f05760a03660031901126101f05736602312156101f05781519061073382610dcb565b8160a4913683116106b45760209550905b8282106107575750505061021490610f3d565b81358152908501908501610744565b83823461023e578160031936011261023e57905490516001600160a01b039091168152602090f35b50823461021b578060031936011261021b57506101705460015482519182526020820152f35b833461021b578060031936011261021b576107cd610e24565b80546001600160a01b03198116825581906001600160a01b03167f8be0079c531659141344cd1fd0a4f28419497f9722a3daafe3b4186f6b6457e08280a380f35b83823461023e578160031936011261023e5760209060ff61016e5460081c1690519015158152f35b5090346101f057816003193601126101f05736602312156101f05781519061085d82610d99565b816044913683116106b45760209550905b8282106108815750505061021490610e9c565b8135815290850190850161086e565b50823461021b576108a036610e09565b908351926108ad84610dcb565b60a036853760218210156108f35750906005602095610214949360021b908160020154855260038201548886015281015486850152015460608301526080820152610f3d565b634e487b7160e01b815260328652602490fd5b83823461023e5760209061021461091c36610e09565b83519161092883610d99565b84368437825284820152610e9c565b50823461021b576020928360031936011261023e57803567ffffffffffffffff91828211610a8a5736602383011215610a8a5781810135928311610a7757508160051b9084519261098a87840185610de7565b835285830160248193830101913683116106b45791859391602489969401905b828210610a6557505086519251858401929150845b818110610a4c57505050816109dc9103601f198101835282610de7565b84519080519084845b838110610a375750505081908101838152039060025afa15610a2c577f30644e72e131a029b85045b68181585d2833e84879b9709143e1f593f00000019051069051908152f35b9051903d90823e3d90fd5b828101820151858201528795508691016109e5565b82518452899688965093840193909201916001016109bf565b813581528795509086019086016109aa565b634e487b7160e01b845260419052602483fd5b8380fd5b50823461021b578060031936011261021b575060ff61016e541615610abb5760209061016f549051908152f35b51631e596e4360e11b8152fd5b50346101f05760803660031901126101f05736602312156101f0578051916080830183811067ffffffffffffffff821117610b93578252608490833683116106b457819491905b838210610b83575050825163248f667760e01b8152938491868284015b838210610b6957505050506020918173Af8D2aF5AB9654e4818142c6511754771c8064A55af4918215610680578392610649576020838351908152f35b825181528794506020928301926001929092019101610b2c565b8135815260209182019101610b0f565b634e487b7160e01b855260418252602485fd5b83823461023e578160031936011261023e5760209061021461133a565b50823461021b57602036600319011261021b5750610214602092610be5610e24565b35611953565b50346101f05760203660031901126101f057610c05610e24565b61017192835492610c1681356110a2565b600194858501808611610cf3578155610c6990610c31610ff0565b8361016f5561016e60ff198154169055547f000000000000000000000000000000000000000000000000000000000000000090610e7c565b15610c79575b6020848451908152f35b7f0000000000000000000000000000000000000000000000000000000000000000906021821015610ce05750819060021b60020180548654835261014c60205284832055610cc78654611071565b86555560865b60a7811015610c6f578181558401610ccd565b634e487b7160e01b835260329052602482fd5b634e487b7160e01b845260118352602484fd5b50823461021b57602036600319011261021b57823590610d46827f0000000000000000000000000000000000000000000000000000000000000000611293565b61017154809110610d7e57506021821015610d6b576020838361014d01549051908152f35b634e487b7160e01b815260328452602490fd5b8460449184865192627289df60e61b84528301526024820152fd5b6040810190811067ffffffffffffffff821117610db557604052565b634e487b7160e01b600052604160045260246000fd5b60a0810190811067ffffffffffffffff821117610db557604052565b90601f8019910116810190811067ffffffffffffffff821117610db557604052565b6040906003190112610e1f576004359060243590565b600080fd5b6000546001600160a01b03163303610e3857565b606460405162461bcd60e51b815260206004820152602060248201527f4f776e61626c653a2063616c6c6572206973206e6f7420746865206f776e65726044820152fd5b8115610e86570690565b634e487b7160e01b600052601260045260246000fd5b6040516314d2f97b60e11b815290600090600483015b60028310610f26575050506020816044817347076a871Ae4e442784dff8BCB42E3E4E440D5195af4908115610f1a57600091610eec575090565b906020823d8211610f12575b81610f0560209383610de7565b8101031261021b57505190565b3d9150610ef8565b6040513d6000823e3d90fd5b600190825181526020809101920192019190610eb2565b604051630926f44b60e31b815290600090600483015b60058310610f8d5750505060208160a481732D610532b8e16e950DD853572Fee9493d3c339625af4908115610f1a57600091610eec575090565b600190825181526020809101920192019190610f53565b60405190610fb182610dcb565b60a0368337565b60405190610fc582610d99565b6040368337565b9060018201809211610fda57565b634e487b7160e01b600052601160045260246000fd5b61014d5b61016e81106110005750565b60008155600101610ff4565b818110611017575050565b6000815560010161100c565b81810292918115918404141715610fda57565b602181101561104b5760021b60a70190600090565b634e487b7160e01b600052603260045260246000fd5b600482101561104b570190600090565b6000198114610fda5760010190565b602181101561104b5761012b0190600090565b600019810191908211610fda57565b907f00000000000000000000000000000000000000000000000000000000000000006000198101908111917f000000000000000000000000000000000000000000000000000000000000000060005b602181101561104b57806086019585875490610fda5785810361117957509060006111749261116d60406006611165825161112b81610dcb565b60a036823760029588871b809701948554835260038801546020840152600488015490830152600587015460608301526080820152610f3d565b93019061100c565b9755611071565b6110f1565b6111939192949796506111ac939550600285811b01611061565b90919082549060031b91821b91600019901b1916179055565b036111b45750565b6111be8154611071565b9055565b917f000000000000000000000000000000000000000000000000000000000000000090818311611281577f0000000000000000000000000000000000000000000000000000000000000000916000198301928311935b602181101561126c578060860195858754906112575785810361117957509060006112529261116d60406006611165825161112b81610dcb565b611218565b60246000634e487b7160e01b81526011600452fd5b60246000634e487b7160e01b81526032600452fd5b60405163d1459f7960e01b8152600490fd5b90801561133357811561132c578180600114611324576002146113135760208110610133831016604e8210600b8410161761130e57600190815b8082116112e557505081600019048111610fda570290565b909280600019048111610fda57818416611305575b800292811c906112cd565b809202916112fa565b900a90565b905060ff8111610fda576001901b90565b505050600190565b5050600090565b5050600190565b600180547f000000000000000000000000000000000000000000000000000000000000000092915b8161136d8286611293565b10156113865761137f61136d91611071565b9050611362565b925050565b60ff9061016e91808354166117a857610171908154908115611796577f0000000000000000000000000000000000000000000000000000000000000000916113d38382610e7c565b611571575b50505050600190815482811461151657506113f161133a565b90826000610170928354925b6114ae575b50505061142f827f0000000000000000000000000000000000000000000000000000000000000000611293565b9054835480911461145c575b5050602181101561104b5760021b60a7015461016f5560ff19825416179055565b6114857f0000000000000000000000000000000000000000000000000000000000000000611b62565b905b828110611494575061143b565b6114a9906114a4856000856117dc565b611071565b611487565b85548310156115115780151580611508575b6114ff576114f86114f287936114e18860006114dc8a54611b2e565b6117dc565b6114eb8754611071565b8755611071565b93611071565b92916113fd565b50505050505050565b508082146114c0565b611402565b905015611558576000805261014c6020527f2f1ae789e51094ec473affec14fe3c88a47d4230101ae4544eefebff81efc6d75461016f55815460ff1916179055565b60405163042a2e7160e11b815260006004820152602490fd5b826115839161157e610e24565b610e7c565b6115f957506115b17f0000000000000000000000000000000000000000000000000000000000000000611b62565b60015460005261014c6020526040600020555b6001549060018201809211610fda57816115e092600155611023565b9055600061016f55815460ff19168255388080806113d8565b7f00000000000000000000000000000000000000000000000000000000000000009060005b828110611677575050602181101561104b5760021b6002015460015460005261014c60205260406000205560025b60868110611662575061165d610ff0565b6115c4565b8061167160048093018261100c565b0161164c565b6021811015908161104b5780608601918254806116a5575b5061104b5760006116a09255611071565b61161e565b999792989394604097929796919651986116be8a610dcb565b60a0368b376116cc89611b62565b956000955b8689168e811015611705578a61104b57878f986104398f91938f6116fe9561042c91600290811b01611061565b96506116d1565b5092959c50929a97959998969a9390937f00000000000000000000000000000000000000000000000000000000000000009c5b808d168e811015611764578e9695949392918d610439611758938f6117cb565b90919293949550611738565b5050979496939b509761177c91995099949199610f3d565b60018301808411610fda57611790916111c2565b3861168f565b6040516316a0341160e11b8152600490fd5b604051630d36aec160e01b8152600490fd5b60ff1660ff8114610fda5760010190565b90600581101561104b5760051b0190565b929180821161194d576117fb6117f183611080565b90549060031b1c90565b906118257f0000000000000000000000000000000000000000000000000000000000000000611093565b821461187a57509061184b61187893946111936118509461184585611036565b50611061565b611080565b6118616114a48284549060031b1c90565b825460001960039390931b92831b1916911b179055565b565b9190600061188d815460ff9060a01c1690565b156118e95750506118e36118bf61187894956118a7610fb8565b906118b185611036565b505482526020820152610e9c565b915b6118de6118cd82611080565b8154906000199060031b1b19169055565b610fcc565b906117dc565b926118f695949195610fa4565b935b60ff81168781101561192857906119239161043961191c6117f1846118458a611036565b91886117cb565b6118f8565b50509261194790611878956119416118e39498836117cb565b52610f3d565b916118c1565b50509050565b8015611b1c5760ff9061016e8281541615611b0a57602092838311611aec57610171547f000000000000000000000000000000000000000000000000000000000000000094907f00000000000000000000000000000000000000000000000000000000000000005b816119c68289611293565b10156119df576119d86119c691611071565b90506119bb565b9394955050828510611acf57848303611a1a5750505061016f5491602181101561104b5761014d01829055805461ff00191661010017905590565b61016f5495949291905b838310611a4d57505050602181101561104b5761014d01839055805461ff001916610100179055565b909195611a9690611a5d88611b62565b60005460a0929190831c861615611a9d57611a909250604091825192611a8284610d99565b368437825284820152610e9c565b96611071565b9190611a24565b80611a909392604090815194611ab286610dcb565b368637845281878501528301528060608301526080820152610f3d565b6044858460405191627289df60e61b835260048301526024820152fd5b6044838560405191632cd31ae960e01b835260048301526024820152fd5b604051631e596e4360e11b8152600490fd5b604051630543d40760e11b8152600490fd5b806001541115611b4a5760005261014c60205260406000205490565b6024906040519063042a2e7160e11b82526004820152fd5b602181101561104b5761017201549056fea26469706673582212206437c9a27457aab3d2b6a4600f20672e882c5f1938a1696f6b74a6cb85a4804464736f6c63430008140033",
  "deployedBytecode": "0x608080604052600436101561001357600080fd5b600090813560e01c908163055575eb146117f05750806306912d3c146116b9578063079410db146116745780630dd5a8881461162f578063122db15314611611578063167fd4831461156f5780631a8cbcaa146115185780632877e036146114515780632b786571146114335780633364120a146110a5578063343393b5146110605780633dfb88b21461100857806346e47f9a14610fa1578063481c6a7514610f7857806358aba00f14610f3857806358bfc37914610dfe5780635bb9399514610dcd578063603baff814610d8857806362a361bb14610d6357806362b31f1e14610d1e578063652c76e414610ce0578063683f3dc314610cc4578063715018a614610c6a5780637d0a81c814610c285780638da5cb5b14610c015780639cfced9714610ba1578063a48e775014610693578063aab4a6701461064e578063ac2f00741461061b578063bea140b31461052b578063c02db7b814610508578063c8cf9ab2146104cf578063cfa1fa03146103b3578063d7a71b9a14610381578063dd0982a3146102755763f2fde38b146101ad57600080fd5b34610272576020366003190112610272576101c66119b6565b6101ce6119e2565b6001600160a01b0390811690811561021e57600054826001600160601b0360a01b821617600055167f8be0079c531659141344cd1fd0a4f28419497f9722a3daafe3b4186f6b6457e0600080a380f35b60405162461bcd60e51b815260206004820152602660248201527f4f776e61626c653a206e6577206f776e657220697320746865207a65726f206160448201526564647265737360d01b6064820152608490fd5b80fd5b503461027257602090816003193601126102725760043581526002825260408120546001600160a01b0390811633036103695782829160ff19600454166004556024604051809481936324a47aeb60e01b835260ff7f00000000000000000000000000000000000000000000000000000000000000001660048401527f0000000000000000000000000000000000000000000000000000000000000000165af191821561035d579161032b575b50604051908152f35b90508181813d8311610356575b61034281836118d4565b81010312610351575138610322565b600080fd5b503d610338565b604051903d90823e3d90fd5b604051635859049960e01b8152336004820152602490fd5b50346102725760ff6040602092610397366119cc565b9082526006855282822090825284522054166040519015158152f35b5034610272576103c2366119cc565b8252600260205260408220546001600160a01b0390811633036103695782907f00000000000000000000000000000000000000000000000000000000000000001691823b156104a4576040519063c15da65b60e01b82526004820152818160248183875af180156104b0576104bb575b505060206004916040519283809263b6a64acd60e01b82525afa9081156104b0578291610472575b506104625780f35b600160ff19600454161760045580f35b90506020813d82116104a8575b8161048c602093836118d4565b810103126104a4575180151581036104a4573861045a565b5080fd5b3d915061047f565b6040513d84823e3d90fd5b6104c49061184f565b6104a4578138610432565b5034610272576020366003190112610272576020906040906001600160a01b036104f76119b6565b168152600383522054604051908152f35b5034610272578060031936011261027257602060ff600454166040519015158152f35b5034610272576060366003190112610272573660231215610272576040519061055382611863565b606482368211610351576004905b82821061060b5750506040516304b98e1d60e31b81529283908390600483015b600383106105f1575050506020918173__$90b9196d445cf176c504004dde0b0062ce$__5af490811561035d57906105bf575b602090604051908152f35b506020813d82116105e9575b816105d8602093836118d4565b8101031261035157602090516105b4565b3d91506105cb565b815181528693506001929092019160209182019101610581565b8135815260209182019101610561565b503461027257602036600319011261027257602090600435815260028252604060018060a01b0391205416604051908152f35b50346102725780600319360112610272576040517f00000000000000000000000000000000000000000000000000000000000000006001600160a01b03168152602090f35b503461027257610140366003190112610272576080366023190112610272576040516080810181811067ffffffffffffffff821117610b8b5760405260243560ff8116810361035157815260443560ff8116810361035157602082015260643560ff8116810361035157604082015260843560ff8116810361035157606082015260403660a3190112610351576040519061072d82611833565b60a435825260c435602083015260e435916001600160a01b03831683036103515761010435926001600160a01b03841684036103515761012435928315158403610b8757856040805161077f81611863565b8281526020810183905201526007546001600160a01b03163303610b425760015493600185016001556107b860ff604084015116611a3a565b6107c860ff606085015116611a3a565b604051916107d583611833565b8252602082015260ff606060018060a01b038a54169460206040519463b43c496960e01b8652600435600487015280516024870152015160448501528281511660648501528260208201511660848501528260408201511660a485015201511660c4820152845160e482015260208501516101048201523061012482015260018060a01b037f00000000000000000000000000000000000000000000000000000000000000001661014482015282610164820152602081610184818b60018060a01b037f0000000000000000000000000000000000000000000000000000000000000000165af1908115610b37578891610b18575b50604051635c2270fd60e11b81526001600160a01b038581166004830152888116602483015291821660448201819052606482018590528315156084830152979091602090839060a49082908d907f0000000000000000000000000000000000000000000000000000000000000000165af1918215610b0d578992610aec575b5060405163f68abb5960e01b81526001600160a01b03958616600482015290851660248201526044810188905290841660648201819052608482019390935290151560a482015291602090839060c49082908a907f0000000000000000000000000000000000000000000000000000000000000000165af1918215610ae15786859160609894610aad575b508082604092526002602052818120886001600160601b0360a01b8254161790558781526003602052205560405194610a0d86611863565b8552602085015260018060a01b031660408401527f5d44349ae326b87d465005978623860ad393d327ba73078f82a9331a7cc6b36060806020835193015193604051908152610a8060208201876040908160018060a01b0391828151168552826020820151166020860152015116910152565ba36040805182516001600160a01b0390811682526020808501518216908301529282015190921690820152f35b6040919450610ad39060203d602011610ada575b610acb81836118d4565b810190611b1d565b93906109d5565b503d610ac1565b6040513d88823e3d90fd5b610b0691925060203d602011610ada57610acb81836118d4565b903861094a565b6040513d8b823e3d90fd5b610b31915060203d602011610ada57610acb81836118d4565b386108ca565b6040513d8a823e3d90fd5b60405162461bcd60e51b815260206004820152601c60248201527f6f6e6c79206d616e616765722063616e2063726561746520706f6c6c000000006044820152606490fd5b8580fd5b634e487b7160e01b600052604160045260246000fd5b50346102725760a036600319011261027257366023121561027257604051610bc8816118b8565b60a481368211610351576020926004905b838210610bf25784610bea84611c45565b604051908152f35b81358152908401908401610bd9565b5034610272578060031936011261027257546040516001600160a01b039091168152602090f35b5034610272576080366003190112610272576020610bea604051610c4b81611863565b610c5436611937565b8152604435838201526064356040820152611cac565b5034610272578060031936011261027257610c836119e2565b600080546001600160a01b0319811682556001600160a01b03167f8be0079c531659141344cd1fd0a4f28419497f9722a3daafe3b4186f6b6457e08280a380f35b50346102725780600319360112610272576020604051600a8152f35b5034610272578060031936011261027257602060405160ff7f0000000000000000000000000000000000000000000000000000000000000000168152f35b50346102725780600319360112610272576040517f00000000000000000000000000000000000000000000000000000000000000006001600160a01b03168152602090f35b5034610272576040366003190112610272576020610bea610d83366118f6565b611b3c565b50346102725780600319360112610272576040517f00000000000000000000000000000000000000000000000000000000000000006001600160a01b03168152602090f35b5034610272576020610bea610de1366119cc565b60405191610dee83611833565b6040368437825283820152611b3c565b503461027257602090816003193601126102725767ffffffffffffffff600435818111610f345736602382011215610f34578060040135918211610f20578160051b9060405192610e51868401856118d4565b83528483016024819383010191368311610b875791869394916024879401905b828210610f0e57505050604051838101809251909590845b818110610ef557505050610eab81610ebc94959603601f1981018352826118d4565b604051928392839251928391611abf565b8101039060025afa1561035d577f30644e72e131a029b85045b68181585d2833e84879b9709143e1f593f0000001905106604051908152f35b8251885296860196899689965090920191600101610e89565b81358152879450908501908501610e71565b634e487b7160e01b83526041600452602483fd5b8280fd5b503461027257602036600319011261027257610f526119b6565b610f5a6119e2565b60018060a01b03166001600160601b0360a01b600754161760075580f35b50346102725780600319360112610272576007546040516001600160a01b039091168152602090f35b5034610272576020366003190112610272576001600160a01b03610fc36119b6565b16808252600360205260408220546001541115610ff0578160409160209352600383522054604051908152f35b6024906040519063e64d908d60e01b82526004820152fd5b50346102725760803660031901126102725736602312156102725760405161102f8161189c565b608481368211610351576020926004905b8382106110515784610bea84611bdd565b81358152908401908401611040565b50346102725780600319360112610272576040517f00000000000000000000000000000000000000000000000000000000000000006001600160a01b03168152602090f35b5034610272576080366003190112610272576110c036611937565b67ffffffffffffffff60443581811161142f576110e190369060040161195f565b9060643590811161142f576110fa90369060040161195f565b90825184526020926006845260408520928482019384518752855260ff60408720541661141d5760ff6004541661140b5760055461115a60ff7f000000000000000000000000000000000000000000000000000000000000000016611a3a565b8110156113f9577f30644e72e131a029b85045b68181585d2833e84879b9709143e1f593f000000180845110908115916113ed575b506113db576001016005556001600160a01b039286907f0000000000000000000000000000000000000000000000000000000000000000851690813b15610f345782916111f39160405194858094819363125c7dfb60e11b83523360048401611ae2565b03925af180156113d0576113b5575b50906112258587936040518093819263b36543a960e01b83523360048401611ae2565b0381877f0000000000000000000000000000000000000000000000000000000000000000165afa9384156113aa5786918495611378575b50602461128160405161126e81611863565b8581528785820152426040820152611cac565b6040519586938492631ffc735d60e01b845260048401527f0000000000000000000000000000000000000000000000000000000000000000165af1918215610ae1578692611329575b50907fd3c3cd829e4e37d5baaf10abace26b24e0046e20500c999380410f807edfcda09282606093518852600687526040882086518952875260408820600160ff1982541617905551945195604051928352820152426040820152a380f35b91508482813d8311611371575b61134081836118d4565b81010312610351579051907fd3c3cd829e4e37d5baaf10abace26b24e0046e20500c999380410f807edfcda06112ca565b503d611336565b9350935082813d83116113a3575b61139081836118d4565b810103126103515784869251933861125c565b503d611386565b6040513d85823e3d90fd5b85966113c66112259294939461184f565b9650919091611202565b6040513d89823e3d90fd5b6040516354be831760e11b8152600490fd5b9050855110153861118f565b60405163b984588b60e01b8152600490fd5b60405163259e785160e11b8152600490fd5b604051632e13e04560e01b8152600490fd5b8380fd5b50346102725780600319360112610272576020600154604051908152f35b5034610272578060031936011261027257604051631b9b8aa760e01b81527f000000000000000000000000000000000000000000000000000000000000000060ff1660048201526020816024817f00000000000000000000000000000000000000000000000000000000000000006001600160a01b03165afa9081156104b05782916114e3575b602082604051908152f35b90506020813d8211611510575b816114fd602093836118d4565b810103126104a4576020915051386114d8565b3d91506114f0565b5034610272576020366003190112610272576004359060015482101561155657602091815260028252604060018060a01b0391205416604051908152f35b60405163a86ecdd560e01b815260048101839052602490fd5b50346102725736600319016101a081126104a457610160136102725760405161159781611833565b600435815236604312156104a457604051916115b28361187f565b8261016493368511610f34576024905b8582106116015750506020830152604036610163190112610272576020610bea8484604051916115f183611833565b3582526101843584830152611ceb565b81358152602091820191016115c2565b50346102725780600319360112610272576020600554604051908152f35b50346102725780600319360112610272576040517f00000000000000000000000000000000000000000000000000000000000000006001600160a01b03168152602090f35b50346102725780600319360112610272576040517f00000000000000000000000000000000000000000000000000000000000000006001600160a01b03168152602090f35b5034610272576060366003190112610272576116d4366118f6565b604051906116e182611833565b828252604051916116f18361187f565b61014091823685376020938480930152848260405161170f81611833565b8281520152604051926117218461187f565b3684378051835201518282015260405161173a81611833565b7f171e826ad4a870fd925e0bf0e87884e70e080879c2205ef10114f28a3b6f6dd78152828101907f2bd407d897fbbca9f88adfd2d15252e69de8c1564eb4d3d27162e259172f1a1d82526040519361179185611833565b60443585528085019384526117a68286611ceb565b60405195518652935195908086015b600a83106117db575050506101c0945051610160840152516101808301526101a0820152f35b81806001928a518152019801920191966117b5565b9050346104a457816003193601126104a4577f00000000000000000000000000000000000000000000000000000000000000006001600160a01b03168152602090f35b6040810190811067ffffffffffffffff821117610b8b57604052565b67ffffffffffffffff8111610b8b57604052565b6060810190811067ffffffffffffffff821117610b8b57604052565b610140810190811067ffffffffffffffff821117610b8b57604052565b6080810190811067ffffffffffffffff821117610b8b57604052565b60a0810190811067ffffffffffffffff821117610b8b57604052565b90601f8019910116810190811067ffffffffffffffff821117610b8b57604052565b8060231215610351576040519061190c82611833565b816044918211610351576004905b8282106119275750505090565b813581526020918201910161191a565b6040906003190112610351576040519061195082611833565b60043582526024356020830152565b81601f820112156103515780359067ffffffffffffffff8211610b8b5760405192611994601f8401601f1916602001856118d4565b8284526020838301011161035157816000926020809301838601378301015290565b600435906001600160a01b038216820361035157565b6040906003190112610351576004359060243590565b6000546001600160a01b031633036119f657565b606460405162461bcd60e51b815260206004820152602060248201527f4f776e61626c653a2063616c6c6572206973206e6f7420746865206f776e65726044820152fd5b8015611ab957600190602081108216604e8210831617611ab15781906005925b808211611a8857505081600019048111611a72570290565b634e487b7160e01b600052601160045260246000fd5b909280600019048111611a7257818416611aa8575b800292811c90611a5a565b80920291611a9d565b905060050a90565b50600190565b60005b838110611ad25750506000910152565b8181015183820152602001611ac2565b909160609260018060a01b0316825260406020830152611b118151809281604086015260208686019101611abf565b601f01601f1916010190565b9081602091031261035157516001600160a01b03811681036103515790565b6040516314d2f97b60e11b815290600090600483015b60028310611bc65750505060208160448173__$8658d3171857788947ecb1d152a017ec62$__5af4908115611bba57600091611b8c575090565b906020823d8211611bb2575b81611ba5602093836118d4565b8101031261027257505190565b3d9150611b98565b6040513d6000823e3d90fd5b600190825181526020809101920192019190611b52565b60405163248f667760e01b81529060049060008284015b838210611c2e575050505060208160848173__$f67ed442b9d6bc4da64e961e2430b82eb6$__5af4908115611bba57600091611b8c575090565b600190835181526020809101930191019091611bf4565b604051630926f44b60e31b815290600090600483015b60058310611c955750505060208160a48173__$d643f7f71d754779bfbed637a90c4a7526$__5af4908115611bba57600091611b8c575090565b600190825181526020809101920192019190611c5b565b611ce8906040805191611cbe8361189c565b60803684378051518352602081510151602084015260208101518284015201516060820152611bdd565b90565b906020808301916040805194611d00866118b8565b60a0368737845151865283855101518487015281855101518287015260608551015160608701526080855101516080870152610120825195611d41876118b8565b60a036883760a081510151875260c0815101518688015260e08151015184880152610100815101516060880152510151608086015281519460a0860186811067ffffffffffffffff821117610b8b57611ce897611daf93611da6928652518852611c45565b85870152611c45565b908401528051606084015201516080820152611c4556fea264697066735822122030efc1359d837b95c140397ed9067177c0625afeee9ad3312a0682dcd021c46164736f6c63430008140033",
  "libraries": {
    "PoseidonT3": "0x47076a871Ae4e442784dff8BCB42E3E4E440D519",
    "PoseidonT4": "0xFa21436084377C74855b2DB9CFe7322a4DDC1c3C",
    "PoseidonT5": "0xAf8D2aF5AB9654e4818142c6511754771c8064A5",
    "PoseidonT6": "0x2D610532b8e16e950DD853572Fee9493d3c33962"
  },
  "devdoc": {
    "kind": "dev",
    "methods": {
      "constructor": {
        "params": {
          "_initialVoiceCreditProxy": "The InitialVoiceCreditProxy contract",
          "_messageProcessorFactory": "The MessageProcessorFactory contract",
          "_pollFactory": "The PollFactory contract",
          "_signUpGatekeeper": "The SignUpGatekeeper contract",
          "_stateTreeDepth": "The depth of the state tree",
          "_tallyFactory": "The TallyFactory contract",
          "_topupCredit": "The TopupCredit contract"
        }
      },
      "deployPoll(uint256,(uint8,uint8,uint8,uint8),(uint256,uint256),address,address,bool)": {
        "params": {
          "_coordinatorPubKey": "The coordinator's public key",
          "_duration": "How long should the Poll last for",
          "_isQv": "Whether to support QV or not",
          "_treeDepths": "The depth of the Merkle trees",
          "_verifier": "The Verifier Contract",
          "_vkRegistry": "The VkRegistry Contract"
        },
        "returns": {
          "pollAddr": "a new Poll contract address"
        }
      },
      "getPoll(uint256)": {
        "params": {
          "_pollId": "The identifier of the Poll to retrieve"
        },
        "returns": {
          "poll": "The Poll contract object"
        }
      },
      "getStateAqRoot()": {
        "returns": {
          "root": "The Merkle root"
        }
      },
      "hash2(uint256[2])": {
        "params": {
          "array": "An array of two uint256 elements."
        },
        "returns": {
          "result": "The Poseidon hash of the two elements."
        }
      },
      "hash3(uint256[3])": {
        "params": {
          "array": "An array of three uint256 elements."
        },
        "returns": {
          "result": "The Poseidon hash of the three elements."
        }
      },
      "hash4(uint256[4])": {
        "params": {
          "array": "An array of four uint256 elements."
        },
        "returns": {
          "result": "The Poseidon hash of the four elements."
        }
      },
      "hash5(uint256[5])": {
        "params": {
          "array": "An array of five uint256 elements."
        },
        "returns": {
          "result": "The Poseidon hash of the five elements."
        }
      },
      "hashLeftRight(uint256,uint256)": {
        "params": {
          "left": "the first element to hash.",
          "right": "the second element to hash."
        },
        "returns": {
          "result": "The Poseidon hash of the two elements."
        }
      },
      "hashMessageAndEncPubKey((uint256,uint256[10]),(uint256,uint256))": {
        "params": {
          "_encPubKey": "the encryption public key to be hashed",
          "_message": "the message to be hashed"
        },
        "returns": {
          "msgHash": "The hash of the message and the encryption public key"
        }
      },
      "hashStateLeaf(((uint256,uint256),uint256,uint256))": {
        "params": {
          "_stateLeaf": "the state leaf to be hashed"
        },
        "returns": {
          "ciphertext": "The hash of the state leaf"
        }
      },
      "mergeStateAq(uint256)": {
        "params": {
          "_pollId": "The active Poll ID"
        },
        "returns": {
          "root": "The calculated Merkle root"
        }
      },
      "mergeStateAqSubRoots(uint256,uint256)": {
        "params": {
          "_numSrQueueOps": "Number of operations",
          "_pollId": "The ID of the active Poll"
        }
      },
      "owner()": {
        "details": "Returns the address of the current owner."
      },
      "padAndHashMessage(uint256[2],uint256)": {
        "params": {
          "dataToPad": "the data to be padded",
          "msgType": "the type of the message"
        },
        "returns": {
          "message": "The padded message",
          "msgHash": "The hash of the padded message and encryption key",
          "padKey": "The padding public key"
        }
      },
      "renounceOwnership()": {
        "details": "Leaves the contract without owner. It will not be possible to call `onlyOwner` functions anymore. Can only be called by the current owner. NOTE: Renouncing ownership will leave the contract without an owner, thereby removing any functionality that is only available to the owner."
      },
      "sha256Hash(uint256[])": {
        "params": {
          "array": "The array of uint256 elements."
        },
        "returns": {
          "result": "The SHA256 hash of the array."
        }
      },
      "signUp((uint256,uint256),bytes,bytes)": {
        "params": {
          "_initialVoiceCreditProxyData": "Data to pass to the     InitialVoiceCreditProxy, which allows it to determine how many voice     credits this user should have.",
          "_pubKey": "The user's desired public key.",
          "_signUpGatekeeperData": "Data to pass to the sign-up gatekeeper's     register() function. For instance, the POAPGatekeeper or     SignUpTokenGatekeeper requires this value to be the ABI-encoded     token ID."
        }
      },
      "transferOwnership(address)": {
        "details": "Transfers ownership of the contract to a new account (`newOwner`). Can only be called by the current owner."
      }
    },
    "title": "MACI - Minimum Anti-Collusion Infrastructure Version 1",
    "version": 1
  },
  "userdoc": {
    "errors": {
      "CallerMustBePoll(address)": [
        {
          "notice": "custom errors"
        }
      ],
      "InvalidMessage()": [
        {
          "notice": "custom errors"
        }
      ]
    },
    "kind": "user",
    "methods": {
      "MESSAGE_DATA_LENGTH()": {
        "notice": "the length of a MACI message"
      },
      "constructor": {
        "notice": "Create a new instance of the MACI contract."
      },
      "deployPoll(uint256,(uint8,uint8,uint8,uint8),(uint256,uint256),address,address,bool)": {
        "notice": "Deploy a new Poll contract."
      },
      "getPoll(uint256)": {
        "notice": "Get the Poll details"
      },
      "getStateAqRoot()": {
        "notice": "Return the main root of the StateAq contract"
      },
      "hash2(uint256[2])": {
        "notice": "Computes the Poseidon hash of two uint256 elements."
      },
      "hash3(uint256[3])": {
        "notice": "Computes the Poseidon hash of three uint256 elements."
      },
      "hash4(uint256[4])": {
        "notice": "Computes the Poseidon hash of four uint256 elements."
      },
      "hash5(uint256[5])": {
        "notice": "Computes the Poseidon hash of five uint256 elements."
      },
      "hashLeftRight(uint256,uint256)": {
        "notice": "Computes the Poseidon hash of two uint256 elements."
      },
      "hashMessageAndEncPubKey((uint256,uint256[10]),(uint256,uint256))": {
        "notice": "An utility function used to hash a MACI message and an encryption public key"
      },
      "hashStateLeaf(((uint256,uint256),uint256,uint256))": {
        "notice": "An utility function used to hash a state leaf"
      },
      "initialVoiceCreditProxy()": {
        "notice": "The contract which provides the values of the initial voice credit balance per user"
      },
      "manager()": {
        "notice": "Poll Manager contract that create polls"
      },
      "mergeStateAq(uint256)": {
        "notice": "Allow Poll contracts to merge the state root"
      },
      "mergeStateAqSubRoots(uint256,uint256)": {
        "notice": "Allow Poll contracts to merge the state subroots"
      },
      "messageProcessorFactory()": {
        "notice": "Factory contract that deploy a MessageProcessor contract"
      },
      "nextPollId()": {
        "notice": "Each poll has an incrementing ID"
      },
      "numSignUps()": {
        "notice": "The number of signups"
      },
      "padAndHashMessage(uint256[2],uint256)": {
        "notice": "An utility function used to pad and hash a MACI message"
      },
      "pollFactory()": {
        "notice": "Factory contract that deploy a Poll contract"
      },
      "polls(uint256)": {
        "notice": "A mapping of poll IDs to Poll contracts."
      },
      "sha256Hash(uint256[])": {
        "notice": "Computes the SHA256 hash of an array of uint256 elements."
      },
      "signUp((uint256,uint256),bytes,bytes)": {
        "notice": "Allows any eligible user sign up. The sign-up gatekeeper should prevent double sign-ups or ineligible users from doing so.  This function will only succeed if the sign-up deadline has not passed. It also enqueues a fresh state leaf into the state AccQueue."
      },
      "signUpGatekeeper()": {
        "notice": "Address of the SignUpGatekeeper, a contract which determines whether a user may sign up to vote"
      },
      "stateAq()": {
        "notice": "The state AccQueue. Represents a mapping between each user's public key and their voice credit balance."
      },
      "stateTreeDepth()": {
        "notice": "The state tree depth is fixed. As such it should be as large as feasible so that there can be as many users as possible.  i.e. 5 ** 10 = 9765625 this should also match the parameter of the circom circuits."
      },
      "subtreesMerged()": {
        "notice": "Whether the subtrees have been merged (can merge root before new signup)"
      },
      "tallyFactory()": {
        "notice": "Factory contract that deploy a Tally contract"
      },
      "topupCredit()": {
        "notice": "ERC20 contract that hold topup credits"
      }
    },
    "notice": "A contract which allows users to sign up, and deploy new polls",
    "version": 1
  },
  "storageLayout": {
    "storage": [
      {
        "astId": 7,
        "contract": "contracts/maci-contracts/MACI.sol:MACI",
        "label": "_owner",
        "offset": 0,
        "slot": "0",
        "type": "t_address"
      },
      {
        "astId": 4143,
        "contract": "contracts/maci-contracts/MACI.sol:MACI",
        "label": "nextPollId",
        "offset": 0,
        "slot": "1",
        "type": "t_uint256"
      },
      {
        "astId": 4148,
        "contract": "contracts/maci-contracts/MACI.sol:MACI",
        "label": "polls",
        "offset": 0,
        "slot": "2",
        "type": "t_mapping(t_uint256,t_address)"
      },
      {
        "astId": 4152,
        "contract": "contracts/maci-contracts/MACI.sol:MACI",
        "label": "pollIds",
        "offset": 0,
        "slot": "3",
        "type": "t_mapping(t_address,t_uint256)"
      },
      {
        "astId": 4155,
        "contract": "contracts/maci-contracts/MACI.sol:MACI",
        "label": "subtreesMerged",
        "offset": 0,
        "slot": "4",
        "type": "t_bool"
      },
      {
        "astId": 4158,
        "contract": "contracts/maci-contracts/MACI.sol:MACI",
        "label": "numSignUps",
        "offset": 0,
        "slot": "5",
        "type": "t_uint256"
      },
      {
        "astId": 4192,
        "contract": "contracts/maci-contracts/MACI.sol:MACI",
        "label": "isPublicKeyRegistered",
        "offset": 0,
        "slot": "6",
        "type": "t_mapping(t_uint256,t_mapping(t_uint256,t_bool))"
      },
      {
        "astId": 4195,
        "contract": "contracts/maci-contracts/MACI.sol:MACI",
        "label": "manager",
        "offset": 0,
        "slot": "7",
        "type": "t_address"
      }
    ],
    "types": {
      "t_address": {
        "encoding": "inplace",
        "label": "address",
        "numberOfBytes": "20"
      },
      "t_bool": {
        "encoding": "inplace",
        "label": "bool",
        "numberOfBytes": "1"
      },
      "t_mapping(t_address,t_uint256)": {
        "encoding": "mapping",
        "key": "t_address",
        "label": "mapping(address => uint256)",
        "numberOfBytes": "32",
        "value": "t_uint256"
      },
      "t_mapping(t_uint256,t_address)": {
        "encoding": "mapping",
        "key": "t_uint256",
        "label": "mapping(uint256 => address)",
        "numberOfBytes": "32",
        "value": "t_address"
      },
      "t_mapping(t_uint256,t_bool)": {
        "encoding": "mapping",
        "key": "t_uint256",
        "label": "mapping(uint256 => bool)",
        "numberOfBytes": "32",
        "value": "t_bool"
      },
      "t_mapping(t_uint256,t_mapping(t_uint256,t_bool))": {
        "encoding": "mapping",
        "key": "t_uint256",
        "label": "mapping(uint256 => mapping(uint256 => bool))",
        "numberOfBytes": "32",
        "value": "t_mapping(t_uint256,t_bool)"
      },
      "t_uint256": {
        "encoding": "inplace",
        "label": "uint256",
        "numberOfBytes": "32"
      }
    }
  }
}