{
  "address": "0xd7eFa0CA5FA74b65d9A1Aa080E8faB66483aBC5B",
  "abi": [
    {
      "inputs": [
        {
          "internalType": "contract MACI",
          "name": "_maci",
          "type": "address"
        },
        {
          "internalType": "bool",
          "name": "_isQv",
          "type": "bool"
        }
      ],
      "stateMutability": "nonpayable",
      "type": "constructor"
    },
    {
      "anonymous": false,
      "inputs": [
        {
          "indexed": true,
          "internalType": "uint256",
          "name": "pollId",
          "type": "uint256"
        },
        {
          "indexed": true,
          "internalType": "uint256",
          "name": "maciPollId",
          "type": "uint256"
        },
        {
          "indexed": true,
          "internalType": "address",
          "name": "creator",
          "type": "address"
        },
        {
          "components": [
            {
              "internalType": "address",
              "name": "poll",
              "type": "address"
            },
            {
              "internalType": "address",
              "name": "messageProcessor",
              "type": "address"
            },
            {
              "internalType": "address",
              "name": "tally",
              "type": "address"
            }
          ],
          "indexed": false,
          "internalType": "struct MACI.PollContracts",
          "name": "pollContracts",
          "type": "tuple"
        },
        {
          "indexed": false,
          "internalType": "string",
          "name": "name",
          "type": "string"
        },
        {
          "indexed": false,
          "internalType": "string[]",
          "name": "options",
          "type": "string[]"
        },
        {
          "indexed": false,
          "internalType": "string",
          "name": "ipfsHash",
          "type": "string"
        },
        {
          "indexed": false,
          "internalType": "uint256",
          "name": "startTime",
          "type": "uint256"
        },
        {
          "indexed": false,
          "internalType": "uint256",
          "name": "endTime",
          "type": "uint256"
        }
      ],
      "name": "PollCreated",
      "type": "event"
    },
    {
      "anonymous": false,
      "inputs": [
        {
          "indexed": true,
          "internalType": "uint256",
          "name": "pollId",
          "type": "uint256"
        },
        {
          "indexed": true,
          "internalType": "uint256",
          "name": "maciPollId",
          "type": "uint256"
        },
        {
          "indexed": false,
          "internalType": "string",
          "name": "tallyJsonCID",
          "type": "string"
        }
      ],
      "name": "PollTallyCIDUpdated",
      "type": "event"
    },
    {
      "inputs": [],
      "name": "MESSAGE_DATA_LENGTH",
      "outputs": [
        {
          "internalType": "uint8",
          "name": "",
          "type": "uint8"
        }
      ],
      "stateMutability": "view",
      "type": "function"
    },
    {
      "inputs": [],
      "name": "coordinatorPubKey",
      "outputs": [
        {
          "internalType": "uint256",
          "name": "x",
          "type": "uint256"
        },
        {
          "internalType": "uint256",
          "name": "y",
          "type": "uint256"
        }
      ],
      "stateMutability": "view",
      "type": "function"
    },
    {
      "inputs": [
        {
          "internalType": "string",
          "name": "_name",
          "type": "string"
        },
        {
          "internalType": "string[]",
          "name": "_options",
          "type": "string[]"
        },
        {
          "internalType": "string",
          "name": "_ipfsHash",
          "type": "string"
        },
        {
          "internalType": "uint256",
          "name": "_duration",
          "type": "uint256"
        }
      ],
      "name": "createPoll",
      "outputs": [],
      "stateMutability": "nonpayable",
      "type": "function"
    },
    {
      "inputs": [
        {
          "internalType": "uint256",
          "name": "_pollId",
          "type": "uint256"
        }
      ],
      "name": "fetchPoll",
      "outputs": [
        {
          "components": [
            {
              "internalType": "uint256",
              "name": "id",
              "type": "uint256"
            },
            {
              "internalType": "uint256",
              "name": "maciPollId",
              "type": "uint256"
            },
            {
              "internalType": "string",
              "name": "name",
              "type": "string"
            },
            {
              "internalType": "bytes",
              "name": "encodedOptions",
              "type": "bytes"
            },
            {
              "internalType": "string",
              "name": "ipfsHash",
              "type": "string"
            },
            {
              "components": [
                {
                  "internalType": "address",
                  "name": "poll",
                  "type": "address"
                },
                {
                  "internalType": "address",
                  "name": "messageProcessor",
                  "type": "address"
                },
                {
                  "internalType": "address",
                  "name": "tally",
                  "type": "address"
                }
              ],
              "internalType": "struct MACI.PollContracts",
              "name": "pollContracts",
              "type": "tuple"
            },
            {
              "internalType": "uint256",
              "name": "startTime",
              "type": "uint256"
            },
            {
              "internalType": "uint256",
              "name": "endTime",
              "type": "uint256"
            },
            {
              "internalType": "uint256",
              "name": "numOfOptions",
              "type": "uint256"
            },
            {
              "internalType": "string[]",
              "name": "options",
              "type": "string[]"
            },
            {
              "internalType": "string",
              "name": "tallyJsonCID",
              "type": "string"
            }
          ],
          "internalType": "struct PollManager.PollData",
          "name": "poll_",
          "type": "tuple"
        }
      ],
      "stateMutability": "view",
      "type": "function"
    },
    {
      "inputs": [
        {
          "internalType": "uint256",
          "name": "_page",
          "type": "uint256"
        },
        {
          "internalType": "uint256",
          "name": "_perPage",
          "type": "uint256"
        },
        {
          "internalType": "bool",
          "name": "_ascending",
          "type": "bool"
        }
      ],
      "name": "fetchPolls",
      "outputs": [
        {
          "components": [
            {
              "internalType": "uint256",
              "name": "id",
              "type": "uint256"
            },
            {
              "internalType": "uint256",
              "name": "maciPollId",
              "type": "uint256"
            },
            {
              "internalType": "string",
              "name": "name",
              "type": "string"
            },
            {
              "internalType": "bytes",
              "name": "encodedOptions",
              "type": "bytes"
            },
            {
              "internalType": "string",
              "name": "ipfsHash",
              "type": "string"
            },
            {
              "components": [
                {
                  "internalType": "address",
                  "name": "poll",
                  "type": "address"
                },
                {
                  "internalType": "address",
                  "name": "messageProcessor",
                  "type": "address"
                },
                {
                  "internalType": "address",
                  "name": "tally",
                  "type": "address"
                }
              ],
              "internalType": "struct MACI.PollContracts",
              "name": "pollContracts",
              "type": "tuple"
            },
            {
              "internalType": "uint256",
              "name": "startTime",
              "type": "uint256"
            },
            {
              "internalType": "uint256",
              "name": "endTime",
              "type": "uint256"
            },
            {
              "internalType": "uint256",
              "name": "numOfOptions",
              "type": "uint256"
            },
            {
              "internalType": "string[]",
              "name": "options",
              "type": "string[]"
            },
            {
              "internalType": "string",
              "name": "tallyJsonCID",
              "type": "string"
            }
          ],
          "internalType": "struct PollManager.PollData[]",
          "name": "polls_",
          "type": "tuple[]"
        }
      ],
      "stateMutability": "view",
      "type": "function"
    },
    {
      "inputs": [],
      "name": "isQv",
      "outputs": [
        {
          "internalType": "bool",
          "name": "",
          "type": "bool"
        }
      ],
      "stateMutability": "view",
      "type": "function"
    },
    {
      "inputs": [],
      "name": "maci",
      "outputs": [
        {
          "internalType": "contract MACI",
          "name": "",
          "type": "address"
        }
      ],
      "stateMutability": "view",
      "type": "function"
    },
    {
      "inputs": [],
      "name": "owner",
      "outputs": [
        {
          "internalType": "address",
          "name": "",
          "type": "address"
        }
      ],
      "stateMutability": "view",
      "type": "function"
    },
    {
      "inputs": [
        {
          "internalType": "address",
          "name": "",
          "type": "address"
        }
      ],
      "name": "pollIdByAddress",
      "outputs": [
        {
          "internalType": "uint256",
          "name": "",
          "type": "uint256"
        }
      ],
      "stateMutability": "view",
      "type": "function"
    },
    {
      "inputs": [
        {
          "components": [
            {
              "internalType": "uint8",
              "name": "intStateTreeDepth",
              "type": "uint8"
            },
            {
              "internalType": "uint8",
              "name": "messageTreeSubDepth",
              "type": "uint8"
            },
            {
              "internalType": "uint8",
              "name": "messageTreeDepth",
              "type": "uint8"
            },
            {
              "internalType": "uint8",
              "name": "voteOptionTreeDepth",
              "type": "uint8"
            }
          ],
          "internalType": "struct Params.TreeDepths",
          "name": "_treeDepths",
          "type": "tuple"
        },
        {
          "components": [
            {
              "internalType": "uint256",
              "name": "x",
              "type": "uint256"
            },
            {
              "internalType": "uint256",
              "name": "y",
              "type": "uint256"
            }
          ],
          "internalType": "struct DomainObjs.PubKey",
          "name": "_coordinatorPubKey",
          "type": "tuple"
        },
        {
          "internalType": "address",
          "name": "_verifier",
          "type": "address"
        },
        {
          "internalType": "address",
          "name": "_vkRegistry",
          "type": "address"
        },
        {
          "internalType": "bool",
          "name": "_useSubsidy",
          "type": "bool"
        }
      ],
      "name": "setConfig",
      "outputs": [],
      "stateMutability": "nonpayable",
      "type": "function"
    },
    {
      "inputs": [],
      "name": "totalPolls",
      "outputs": [
        {
          "internalType": "uint256",
          "name": "",
          "type": "uint256"
        }
      ],
      "stateMutability": "view",
      "type": "function"
    },
    {
      "inputs": [],
      "name": "treeDepths",
      "outputs": [
        {
          "internalType": "uint8",
          "name": "intStateTreeDepth",
          "type": "uint8"
        },
        {
          "internalType": "uint8",
          "name": "messageTreeSubDepth",
          "type": "uint8"
        },
        {
          "internalType": "uint8",
          "name": "messageTreeDepth",
          "type": "uint8"
        },
        {
          "internalType": "uint8",
          "name": "voteOptionTreeDepth",
          "type": "uint8"
        }
      ],
      "stateMutability": "view",
      "type": "function"
    },
    {
      "inputs": [
        {
          "internalType": "uint256",
          "name": "_pollId",
          "type": "uint256"
        },
        {
          "internalType": "string",
          "name": "_tallyJsonCID",
          "type": "string"
        }
      ],
      "name": "updatePollTallyCID",
      "outputs": [],
      "stateMutability": "nonpayable",
      "type": "function"
    },
    {
      "inputs": [],
      "name": "useSubsidy",
      "outputs": [
        {
          "internalType": "bool",
          "name": "",
          "type": "bool"
        }
      ],
      "stateMutability": "view",
      "type": "function"
    },
    {
      "inputs": [],
      "name": "verifier",
      "outputs": [
        {
          "internalType": "address",
          "name": "",
          "type": "address"
        }
      ],
      "stateMutability": "view",
      "type": "function"
    },
    {
      "inputs": [],
      "name": "vkRegistry",
      "outputs": [
        {
          "internalType": "address",
          "name": "",
          "type": "address"
        }
      ],
      "stateMutability": "view",
      "type": "function"
    }
  ],
  "transactionHash": "0x224b6899993105b51c6e9658174f530605da278b32da553d407b7bbee2c89107",
  "args": [
    "0x9bD7EF3cb8d23071CCD1924cAE3B0Ec9Fe028891",
    true
  ],
  "numDeployments": 1,
  "solcInputHash": "79ae3e088114d792164a9068ef4ed3b4",
  "bytecode": "0x6080346100a157601f611abb38819003918201601f19168301916001600160401b038311848410176100a65780849260409485528339810103126100a15780516001600160a01b03811691908290036100a15760200151908115158092036100a157600380546001600160a01b0319169190911790556008805460ff60a81b191660a89290921b60ff60a81b169190911790556040516119fe90816100bd8239f35b600080fd5b634e487b7160e01b600052604160045260246000fdfe6080604052600436101561001257600080fd5b60003560e01c80631096c30e1461108b57806313fb8932146110625780631b6ef3c514610fd55780632b7ac3f314610fac57806331e766a514610f875780633364c4c814610deb57806334a0922c14610dc2578063649d198414610d84578063683f3dc314610d6857806385e82f301461033e5780638da5cb5b14610311578063a2eeeb2f146102f3578063a5a31c08146102cd578063ac98e5df1461028b578063b95e1d25146100f75763faacdaa6146100cc57600080fd5b346100f25760003660031901126100f257602060ff60085460a01c166040519015158152f35b600080fd5b346100f257366003190161012081126100f2576080136100f2576040516001600160401b039060808101828111828210176102755760405260043560ff811681036100f25781526024359160ff831683036100f257602082019283526044359260ff841684036100f257604083019384526064359160ff831683036100f2576060840192835260403660831901126100f25760405190604082019082821090821117610275576040526084358152602081019160a435835260c4359360018060a01b03968786168096036100f25760e435968888168098036100f2576101043598891515809a036100f25761ff00916101fc60ff926101f4611310565b16331461137e565b511663ff00000062ff00006004549651945160101b16945160181b169463ffffffff1916179160081b1617171760045551600555516006556bffffffffffffffffffffffff60a01b60075416176007556008549160ff60a01b9060a01b16916affffffffffffffffffffff60a81b161717600855600080f35b634e487b7160e01b600052604160045260246000fd5b346100f25760003660031901126100f257608060045460ff604051918181168352818160081c166020840152818160101c16604084015260181c166060820152f35b346100f25760003660031901126100f257602060ff60085460a81c166040519015158152f35b346100f25760003660031901126100f2576020600254604051908152f35b346100f25760003660031901126100f257602061032c611310565b6040516001600160a01b039091168152f35b346100f25760803660031901126100f2576004356001600160401b0381116100f25761036e90369060040161125c565b6001600160401b03602435116100f2573660236024350112156100f2576001600160401b0360243560040135116100f25736602480356004013560051b81350101116100f257604435906001600160401b0382116100f2576103d660ff92369060040161125c565b92906103eb6001600160a01b036101f4611310565b606060018060a01b036003541661014460018060a01b03600754166000600854936040519788958694630a48e77560e41b86526064356004870152826004548181166024890152818160081c166044890152818160101c16606489015260181c16608487015260055460a487015260065460c487015260e486015260018060a01b03811661010486015260a81c1615156101248401525af1918215610cf157600092610cfd575b50604051936020808601526104c7856104b9604082016024356004013560248035016113f5565b03601f1981018752866112db565b6104d36064354261147e565b956104df6002546114a1565b948560025560018060a01b0385511660005260016020528560406000205560018060a01b036003541696602060018060a01b038751166024604051809b81936323723fcd60e11b835260048301525afa978815610cf157600098610cbd575b506040519061054c826112a4565b8782528860208301526105603684866114b0565b604083015260608201526105753685876114b0565b60808201528560a08201524260c08201528860e0820152602435600401356101008201526105a8602435600401356114f6565b6105b560405191826112db565b602480356004810135835201602082015b602480356004013560051b813501018210610c7b5750506101208201526040516105ef816112c0565b60008152610140820152866000526000602052604060002090805182556020810151600183015560408101518051906001600160401b0382116102755781906106488261063f600288015461150d565b6002880161155e565b602090601f8311600114610c0957600092610bfe575b50508160011b916000199060031b1c19161760028301555b60608101518051906001600160401b0382116102755781906106a88261069f600388015461150d565b6003880161155e565b602090601f8311600114610b8c57600092610b81575b50508160011b916000199060031b1c19161760038301555b60808101518051906001600160401b038211610275578190610708826106ff600488015461150d565b6004880161155e565b602090601f8311600114610b0f57600092610b04575b50508160011b916000199060031b1c19161760048301555b60a081015180516005840180546001600160a01b03199081166001600160a01b039384161790915560208301516006860180548316918416919091179055604090920151600785018054909316911617905560c0810151600883015560e08101516009830155610100810151600a83015561012081015180519068010000000000000000821161027557600b84015482600b860155808310610a8c575b5060200190600b84016000526020600020916000905b8282106109a9575050505061014001518051906001600160401b038211610275576108248261081b600c86015461150d565b600c860161155e565b602090601f831160011461090957936108dc93600c846108c3957f6f1981bad6f26572f46fadaf2046377f55be191178ad16561cf7e75968f4d2089c9b99956108ea9b996000926108fe575b50508160011b916000199060031b1c1916179101555b6040805189516001600160a01b0390811682526020808c0151821690830152998201519099169089015261010060608901526101008801916113d4565b85810360808701526024356004013560248035016113f5565b9184830360a08601526113d4565b944260c083015260e08201528033950390a4005b015190503880610870565b90600c840160005260206000209160005b601f1985168110610991575093600c6001857f6f1981bad6f26572f46fadaf2046377f55be191178ad16561cf7e75968f4d2089c9b99956108ea9b99956108dc996108c399601f19811610610978575b505050811b01910155610886565b015160001960f88460031b161c1916905538808061096a565b9192602060018192868501518155019401920161091a565b80518051906001600160401b038211610275576109d0826109ca885461150d565b8861155e565b602090601f8311600114610a1c579282600194936020938695600092610a11575b5050600019600383901b1c191690841b1787555b019401910190926107e9565b0151905038806109f1565b908660005260206000209160005b601f1985168110610a74575083602093600196938796938794601f19811610610a5b575b505050811b018755610a05565b015160001960f88460031b161c19169055388080610a4e565b91926020600181928685015181550194019201610a2a565b600b85016000526020600020908382015b8183018110610aad5750506107d3565b80610aba6001925461150d565b80610ac7575b5001610a9d565b601f81118314610add5750600081555b38610ac0565b600090828252610afb601f60208420920160051c8201858301611547565b81835555610ad7565b015190508c8061071e565b9250600485016000526020600020906000935b601f1984168510610b66576001945083601f19811610610b4d575b505050811b016004830155610736565b015160001960f88460031b161c191690558c8080610b3d565b81810151835560209485019460019093019290910190610b22565b015190508c806106be565b9250600385016000526020600020906000935b601f1984168510610be3576001945083601f19811610610bca575b505050811b0160038301556106d6565b015160001960f88460031b161c191690558c8080610bba565b81810151835560209485019460019093019290910190610b9f565b015190508c8061065e565b9250600285016000526020600020906000935b601f1984168510610c60576001945083601f19811610610c47575b505050811b016002830155610676565b015160001960f88460031b161c191690558c8080610c37565b81810151835560209485019460019093019290910190610c1c565b81356001600160401b0381116100f25760243501366043820112156100f257602091610cb2839236906044602482013591016114b0565b8152019101906105c6565b9097506020813d602011610ce9575b81610cd9602093836112db565b810103126100f25751968961053e565b3d9150610ccc565b6040513d6000823e3d90fd5b9091506060813d606011610d60575b81610d19606093836112db565b810103126100f257610d546040805192610d3284611289565b610d3b816112fc565b8452610d49602082016112fc565b6020850152016112fc565b60408201529085610492565b3d9150610d0c565b346100f25760003660031901126100f2576020604051600a8152f35b346100f25760203660031901126100f2576004356001600160a01b038116908190036100f25760005260016020526020604060002054604051908152f35b346100f25760003660031901126100f2576003546040516001600160a01b039091168152602090f35b346100f25760403660031901126100f2576001600160401b036004356024358281116100f257610e1f90369060040161125c565b9092610e346001600160a01b036101f4611310565b60025483111580610f7e575b610e49906115a5565b8260005260209060008252604060002090600c820190841161027557610e7984610e73835461150d565b8361155e565b6000601f8511600114610ef157849392610ee1927f598a224e6d3d815eb873e74dbb8aed119cdbe9fe282b7ca3e28cd41a120d782b96600193600091610ee6575b50600019600388901b1c191686841b1790555b0154956040519383859485528401916113d4565b0390a3005b90508901358a610eba565b601f1985169082600052846000209160005b818110610f67575092600192879695927f598a224e6d3d815eb873e74dbb8aed119cdbe9fe282b7ca3e28cd41a120d782b98610ee19610610f4d575b50508286811b019055610ecd565b8a0135600019600389901b60f8161c191690558980610f3f565b91928660018192868d013581550194019201610f03565b50821515610e40565b346100f25760003660031901126100f257604060055460065482519182526020820152f35b346100f25760003660031901126100f2576007546040516001600160a01b039091168152602090f35b346100f25760603660031901126100f25760443580151581036100f25761100190602435600435611870565b60405160209182820192808352815180945260408301938160408260051b8601019301916000955b8287106110365785850386f35b909192938280611052600193603f198a82030186528851611136565b9601920196019592919092611029565b346100f25760003660031901126100f2576008546040516001600160a01b039091168152602090f35b346100f25760203660031901126100f2576004356110a76115f4565b50600254811115806110ed575b6110bd906115a5565b60005260006020526110e96110d56040600020611722565b604051918291602083526020830190611136565b0390f35b508015156110b4565b919082519283825260005b848110611122575050826000602080949584010152601f8019910116010190565b602081830181015184830182015201611101565b919082518152602090818401518282015261118a61117861116660408701516101a08060408701528501906110f6565b606087015184820360608601526110f6565b608086015183820360808501526110f6565b60a08086015180516001600160a01b03908116928501929092526020810151821660c0850152604001511660e08301529360c081015190610100918284015260e08101519161012092838501528101519161014092838501528101519383870361016085015284518088528188019180808360051b8b01019701926000905b83821061122f57505050505061122c9495500151906101808184039101526110f6565b90565b9091929397838061124d6001938e601f199082030186528c516110f6565b9a019201920190939291611209565b9181601f840112156100f2578235916001600160401b0383116100f257602083818601950101116100f257565b606081019081106001600160401b0382111761027557604052565b61016081019081106001600160401b0382111761027557604052565b602081019081106001600160401b0382111761027557604052565b90601f801991011681019081106001600160401b0382111761027557604052565b51906001600160a01b03821682036100f257565b600354604051638da5cb5b60e01b815290602090829060049082906001600160a01b03165afa908115610cf157600091611348575090565b906020823d8211611376575b81611361602093836112db565b81010312611373575061122c906112fc565b80fd5b3d9150611354565b1561138557565b60405162461bcd60e51b815260206004820152602160248201527f6f6e6c79206f776e65722063616e2063616c6c20746869732066756e6374696f6044820152603760f91b6064820152608490fd5b908060209392818452848401376000828201840152601f01601f1916010190565b9082818152602080910193818360051b82010194846000925b85841061141f575050505050505090565b90919293949596601f198282030184528735601e19843603018112156100f25783018681019190356001600160401b0381116100f25780360383136100f25761146d889283926001956113d4565b99019401940192959493919061140e565b9190820180921161148b57565b634e487b7160e01b600052601160045260246000fd5b600019811461148b5760010190565b9291926001600160401b03821161027557604051916114d9601f8201601f1916602001846112db565b8294818452818301116100f2578281602093846000960137010152565b6001600160401b0381116102755760051b60200190565b90600182811c9216801561153d575b602083101461152757565b634e487b7160e01b600052602260045260246000fd5b91607f169161151c565b818110611552575050565b60008155600101611547565b9190601f811161156d57505050565b611599926000526020600020906020601f840160051c8301931061159b575b601f0160051c0190611547565b565b909150819061158c565b156115ac57565b60405162461bcd60e51b81526020600482015260136024820152721c1bdb1b08191bd95cc81b9bdd08195e1a5cdd606a1b6044820152606490fd5b9190820391821161148b57565b60405190611601826112a4565b81610140600091828152826020820152606092836040830152838083015283608083015260405161163181611289565b81815281602082015281604082015260a08301528060c08301528060e0830152610100820152826101208201520152565b80518210156116765760209160051b010190565b634e487b7160e01b600052603260045260246000fd5b906000929180549161169d8361150d565b9182825260019384811690816000146116ff57506001146116bf575b50505050565b90919394506000526020928360002092846000945b8386106116eb5750505050010190388080806116b9565b8054858701830152940193859082016116d4565b9294505050602093945060ff191683830152151560051b010190388080806116b9565b90604091825190611732826112a4565b8193815483526001808301549060209182860152825161176081611759816002890161168c565b03826112db565b83860152825161177781611759816003890161168c565b6060860152825161178f81611759816004890161168c565b6080860152825161179f81611289565b60058501546001600160a01b03908116825260068601548116848301526007860154168482015260a0860152600884015460c0860152600984015460e0860152600a840154610100860152600b84018054906117fa826114f6565b93611807865195866112db565b82855260009182528082208186015b84841061184e5750505050505061014092611843859361184a93610120600c98015251809681930161168c565b03846112db565b0152565b858381928a5161186281611759818961168c565b815201920193019290611816565b6000199392848201929091831161148b578083029280840482149015171561148b5760019081840180941161148b576118a9908461147e565b94850194851161148b5784916002548096116119c0575b8584116119a7576118d184846115e7565b9082820180921161148b576118e5826114f6565b926040926118f5845195866112db565b808552611904601f19916114f6565b0160005b81811061199057505083976000965b86811115611929575050505050505050565b808415611974575b9061196f9160005260006020526119698660002099611958611952826114a1565b9b611722565b611962828b611662565b5288611662565b506114a1565b611917565b5061197f81836115e7565b9083820180921161148b5790611931565b60209061199b6115f4565b82828901015201611908565b5050505090506040516119b9816112c0565b6000815290565b8592506118c056fea26469706673582212204774dd893d8657b2f0ded458b7e40255ed40ab6f5ce443a7bbbfb87e37d6d98d64736f6c63430008140033",
  "devdoc": {
    "kind": "dev",
    "methods": {},
    "version": 1
  },
  "userdoc": {
    "kind": "user",
    "methods": {
      "MESSAGE_DATA_LENGTH()": {
        "notice": "the length of a MACI message"
      }
    },
    "version": 1
  },
  "storageLayout": {
    "storage": [
      {
        "astId": 3685,
        "contract": "contracts/PollManager.sol:PollManager",
        "label": "polls",
        "offset": 0,
        "slot": "0",
        "type": "t_mapping(t_uint256,t_struct(PollData)3680_storage)"
      },
      {
        "astId": 3689,
        "contract": "contracts/PollManager.sol:PollManager",
        "label": "pollIdByAddress",
        "offset": 0,
        "slot": "1",
        "type": "t_mapping(t_address,t_uint256)"
      },
      {
        "astId": 3691,
        "contract": "contracts/PollManager.sol:PollManager",
        "label": "totalPolls",
        "offset": 0,
        "slot": "2",
        "type": "t_uint256"
      },
      {
        "astId": 3694,
        "contract": "contracts/PollManager.sol:PollManager",
        "label": "maci",
        "offset": 0,
        "slot": "3",
        "type": "t_contract(MACI)4744"
      },
      {
        "astId": 3697,
        "contract": "contracts/PollManager.sol:PollManager",
        "label": "treeDepths",
        "offset": 0,
        "slot": "4",
        "type": "t_struct(TreeDepths)13594_storage"
      },
      {
        "astId": 3700,
        "contract": "contracts/PollManager.sol:PollManager",
        "label": "coordinatorPubKey",
        "offset": 0,
        "slot": "5",
        "type": "t_struct(PubKey)13565_storage"
      },
      {
        "astId": 3702,
        "contract": "contracts/PollManager.sol:PollManager",
        "label": "verifier",
        "offset": 0,
        "slot": "7",
        "type": "t_address"
      },
      {
        "astId": 3704,
        "contract": "contracts/PollManager.sol:PollManager",
        "label": "vkRegistry",
        "offset": 0,
        "slot": "8",
        "type": "t_address"
      },
      {
        "astId": 3706,
        "contract": "contracts/PollManager.sol:PollManager",
        "label": "useSubsidy",
        "offset": 20,
        "slot": "8",
        "type": "t_bool"
      },
      {
        "astId": 3708,
        "contract": "contracts/PollManager.sol:PollManager",
        "label": "isQv",
        "offset": 21,
        "slot": "8",
        "type": "t_bool"
      }
    ],
    "types": {
      "t_address": {
        "encoding": "inplace",
        "label": "address",
        "numberOfBytes": "20"
      },
      "t_array(t_string_storage)dyn_storage": {
        "base": "t_string_storage",
        "encoding": "dynamic_array",
        "label": "string[]",
        "numberOfBytes": "32"
      },
      "t_bool": {
        "encoding": "inplace",
        "label": "bool",
        "numberOfBytes": "1"
      },
      "t_bytes_storage": {
        "encoding": "bytes",
        "label": "bytes",
        "numberOfBytes": "32"
      },
      "t_contract(MACI)4744": {
        "encoding": "inplace",
        "label": "contract MACI",
        "numberOfBytes": "20"
      },
      "t_mapping(t_address,t_uint256)": {
        "encoding": "mapping",
        "key": "t_address",
        "label": "mapping(address => uint256)",
        "numberOfBytes": "32",
        "value": "t_uint256"
      },
      "t_mapping(t_uint256,t_struct(PollData)3680_storage)": {
        "encoding": "mapping",
        "key": "t_uint256",
        "label": "mapping(uint256 => struct PollManager.PollData)",
        "numberOfBytes": "32",
        "value": "t_struct(PollData)3680_storage"
      },
      "t_string_storage": {
        "encoding": "bytes",
        "label": "string",
        "numberOfBytes": "32"
      },
      "t_struct(PollContracts)4203_storage": {
        "encoding": "inplace",
        "label": "struct MACI.PollContracts",
        "members": [
          {
            "astId": 4198,
            "contract": "contracts/PollManager.sol:PollManager",
            "label": "poll",
            "offset": 0,
            "slot": "0",
            "type": "t_address"
          },
          {
            "astId": 4200,
            "contract": "contracts/PollManager.sol:PollManager",
            "label": "messageProcessor",
            "offset": 0,
            "slot": "1",
            "type": "t_address"
          },
          {
            "astId": 4202,
            "contract": "contracts/PollManager.sol:PollManager",
            "label": "tally",
            "offset": 0,
            "slot": "2",
            "type": "t_address"
          }
        ],
        "numberOfBytes": "96"
      },
      "t_struct(PollData)3680_storage": {
        "encoding": "inplace",
        "label": "struct PollManager.PollData",
        "members": [
          {
            "astId": 3657,
            "contract": "contracts/PollManager.sol:PollManager",
            "label": "id",
            "offset": 0,
            "slot": "0",
            "type": "t_uint256"
          },
          {
            "astId": 3659,
            "contract": "contracts/PollManager.sol:PollManager",
            "label": "maciPollId",
            "offset": 0,
            "slot": "1",
            "type": "t_uint256"
          },
          {
            "astId": 3661,
            "contract": "contracts/PollManager.sol:PollManager",
            "label": "name",
            "offset": 0,
            "slot": "2",
            "type": "t_string_storage"
          },
          {
            "astId": 3663,
            "contract": "contracts/PollManager.sol:PollManager",
            "label": "encodedOptions",
            "offset": 0,
            "slot": "3",
            "type": "t_bytes_storage"
          },
          {
            "astId": 3665,
            "contract": "contracts/PollManager.sol:PollManager",
            "label": "ipfsHash",
            "offset": 0,
            "slot": "4",
            "type": "t_string_storage"
          },
          {
            "astId": 3668,
            "contract": "contracts/PollManager.sol:PollManager",
            "label": "pollContracts",
            "offset": 0,
            "slot": "5",
            "type": "t_struct(PollContracts)4203_storage"
          },
          {
            "astId": 3670,
            "contract": "contracts/PollManager.sol:PollManager",
            "label": "startTime",
            "offset": 0,
            "slot": "8",
            "type": "t_uint256"
          },
          {
            "astId": 3672,
            "contract": "contracts/PollManager.sol:PollManager",
            "label": "endTime",
            "offset": 0,
            "slot": "9",
            "type": "t_uint256"
          },
          {
            "astId": 3674,
            "contract": "contracts/PollManager.sol:PollManager",
            "label": "numOfOptions",
            "offset": 0,
            "slot": "10",
            "type": "t_uint256"
          },
          {
            "astId": 3677,
            "contract": "contracts/PollManager.sol:PollManager",
            "label": "options",
            "offset": 0,
            "slot": "11",
            "type": "t_array(t_string_storage)dyn_storage"
          },
          {
            "astId": 3679,
            "contract": "contracts/PollManager.sol:PollManager",
            "label": "tallyJsonCID",
            "offset": 0,
            "slot": "12",
            "type": "t_string_storage"
          }
        ],
        "numberOfBytes": "416"
      },
      "t_struct(PubKey)13565_storage": {
        "encoding": "inplace",
        "label": "struct DomainObjs.PubKey",
        "members": [
          {
            "astId": 13562,
            "contract": "contracts/PollManager.sol:PollManager",
            "label": "x",
            "offset": 0,
            "slot": "0",
            "type": "t_uint256"
          },
          {
            "astId": 13564,
            "contract": "contracts/PollManager.sol:PollManager",
            "label": "y",
            "offset": 0,
            "slot": "1",
            "type": "t_uint256"
          }
        ],
        "numberOfBytes": "64"
      },
      "t_struct(TreeDepths)13594_storage": {
        "encoding": "inplace",
        "label": "struct Params.TreeDepths",
        "members": [
          {
            "astId": 13587,
            "contract": "contracts/PollManager.sol:PollManager",
            "label": "intStateTreeDepth",
            "offset": 0,
            "slot": "0",
            "type": "t_uint8"
          },
          {
            "astId": 13589,
            "contract": "contracts/PollManager.sol:PollManager",
            "label": "messageTreeSubDepth",
            "offset": 1,
            "slot": "0",
            "type": "t_uint8"
          },
          {
            "astId": 13591,
            "contract": "contracts/PollManager.sol:PollManager",
            "label": "messageTreeDepth",
            "offset": 2,
            "slot": "0",
            "type": "t_uint8"
          },
          {
            "astId": 13593,
            "contract": "contracts/PollManager.sol:PollManager",
            "label": "voteOptionTreeDepth",
            "offset": 3,
            "slot": "0",
            "type": "t_uint8"
          }
        ],
        "numberOfBytes": "32"
      },
      "t_uint256": {
        "encoding": "inplace",
        "label": "uint256",
        "numberOfBytes": "32"
      },
      "t_uint8": {
        "encoding": "inplace",
        "label": "uint8",
        "numberOfBytes": "1"
      }
    }
  }
}