{
  "address": "0x135971dC56C10391E88148710577307aaE5f66A2",
  "abi": [
    {
      "inputs": [],
      "stateMutability": "payable",
      "type": "constructor"
    },
    {
      "inputs": [],
      "name": "InvalidMaxValues",
      "type": "error"
    },
    {
      "inputs": [],
      "name": "MESSAGE_DATA_LENGTH",
      "outputs": [
        {
          "internalType": "uint8",
          "name": "",
          "type": "uint8"
        }
      ],
      "stateMutability": "view",
      "type": "function"
    },
    {
      "inputs": [
        {
          "internalType": "uint256",
          "name": "_duration",
          "type": "uint256"
        },
        {
          "components": [
            {
              "internalType": "uint256",
              "name": "maxMessages",
              "type": "uint256"
            },
            {
              "internalType": "uint256",
              "name": "maxVoteOptions",
              "type": "uint256"
            }
          ],
          "internalType": "struct Params.MaxValues",
          "name": "_maxValues",
          "type": "tuple"
        },
        {
          "components": [
            {
              "internalType": "uint8",
              "name": "intStateTreeDepth",
              "type": "uint8"
            },
            {
              "internalType": "uint8",
              "name": "messageTreeSubDepth",
              "type": "uint8"
            },
            {
              "internalType": "uint8",
              "name": "messageTreeDepth",
              "type": "uint8"
            },
            {
              "internalType": "uint8",
              "name": "voteOptionTreeDepth",
              "type": "uint8"
            }
          ],
          "internalType": "struct Params.TreeDepths",
          "name": "_treeDepths",
          "type": "tuple"
        },
        {
          "components": [
            {
              "internalType": "uint256",
              "name": "x",
              "type": "uint256"
            },
            {
              "internalType": "uint256",
              "name": "y",
              "type": "uint256"
            }
          ],
          "internalType": "struct DomainObjs.PubKey",
          "name": "_coordinatorPubKey",
          "type": "tuple"
        },
        {
          "internalType": "address",
          "name": "_maci",
          "type": "address"
        },
        {
          "internalType": "contract TopupCredit",
          "name": "_topupCredit",
          "type": "address"
        },
        {
          "internalType": "address",
          "name": "_pollOwner",
          "type": "address"
        }
      ],
      "name": "deploy",
      "outputs": [
        {
          "internalType": "address",
          "name": "pollAddr",
          "type": "address"
        }
      ],
      "stateMutability": "nonpayable",
      "type": "function"
    }
  ],
  "transactionHash": "0xa1631bfe2731dea2253a03288be95f5e376c64e66e673fb7406f9435c354093b",
  "args": [],
  "numDeployments": 2,
  "solcInputHash": "79ae3e088114d792164a9068ef4ed3b4",
  "bytecode": "0x608080604052614a3290816100128239f3fe60806040818152600490813610156200001757600080fd5b600092833560e01c908163683f3dc31462000341575063b43c4969146200003d57600080fd5b346200028a57610180806003193601126200033d57816023193601126200033d5760803660631901126200033d578160e3193601126200033d57610124356001600160a01b0381811692918390036200029857610144359281841680940362000339576101643592828416809403620003355760443591660400000000000083101562000325576084359060ff821680920362000321578751906122ae9182810167ffffffffffffffff9382821085831117620003045760209183916200274f83398681520301908cf080156200031757861697895191606083018381108582111762000304578b52825260208201938985528a83019182528a51966123c18089019589871090871117620002f0576200038e89398c35855260243560208601528b85015260643560ff8116809103620002ec576060850152608084015260a43560ff8116809103620002e85760a084015260c4359160ff8316809303620002e857869488809492819360c088015260e43560e08801526101043561010088015251166101208601525116610140840152511661016082015203019087f08015620002de571693823b156200029857835186816024818363f2fde38b60e01b988983528b888401525af18015620002d457620002be575b50843b15620002985783516370e39c9560e11b8152869081818481838b5af18015620002b4576200029c575b5050843b1562000298578351928352820152838160248183875af180156200028e5762000272575b6020838351908152f35b6200027e849162000362565b6200028a578262000268565b8280fd5b82513d86823e3d90fd5b8580fd5b620002a79062000362565b6200029857853862000240565b86513d84823e3d90fd5b620002cc9096919662000362565b943862000214565b85513d89823e3d90fd5b84513d88823e3d90fd5b8c80fd5b8d80fd5b50634e487b7160e01b8e5260418d5260248efd5b634e487b7160e01b8e5260418d5260248efd5b89513d8d823e3d90fd5b8980fd5b86516302c3596560e51b81528890fd5b8780fd5b8680fd5b8380fd5b8490346200035e57816003193601126200035e5780600a60209252f35b5080fd5b67ffffffffffffffff81116200037757604052565b634e487b7160e01b600052604160045260246000fdfe60e080604052620023c180380380916200001a8285620004c8565b8339810190808203906101808212620004625780516200003e8460208401620004ec565b916080605f19850112620004625760405194608086016001600160401b038111878210176200049357606091620000c3916040526200007f83850162000526565b88526200008f6080850162000526565b6020890152620000a260a0850162000526565b6040890152620000b560c0850162000526565b8389015260e08401620004ec565b9461011f190112620004625760405190606082016001600160401b0381118382101762000493576040526101208101516001600160a01b038116810362000462578252610140810151906001600160a01b038216820362000462576020830191825261016001516001600160a01b0381168103620004625760408301526000543360018060a01b031982161760005560405190339060018060a01b03167f8be0079c531659141344cd1fd0a4f28419497f9722a3daafe3b4186f6b6457e0600080a37f0e8c0be063e1dee5a8a9df19f0715acdfac6b7260f41d6c3769166cac049db776001557f142181123bdf04edceb703cda229ba08b79092aad0eada9552d51966ee46229a6002557f20c99bb8b43cd63ee07ee8f33b445888ff638f67a7019b6d50036352a0e5e7bd6003557f1a999f92e772c387eb618ff2864256f26f268addaca43c88af7f8fab56ee19e76004557f0b81b4da4b6b26de7e3997b3c2eb68abb7573206ae5de5b964de736ee40022ab6005557f30644e72e131a029b85045b68181585d2833e84879b9709143e1f593f00000018087511090811591620004b8575b50620004a957506020855195866007550151806008556040519586604081011060018060401b036040890111176200049357604087016040526040368837865260208601526040516314d2f97b60e11b8152946000600487015b600282106200047c575050506020856044817347076a871Ae4e442784dff8BCB42E3E4E440D5195af48015620004705760009062000432575b6020955060805260018060a01b0382511660018060a01b0319601154161760115560018060a01b0390511660018060a01b03196012541617601255604060018060a01b039101511660018060a01b0319601354161760135560c0528051600e550151600f5560ff815116906010549161ff00602083015160081b169063ff000000606062ff0000604086015160101b1694015160181b169363ffffffff1916171717176010554260a052604051611e8b908162000536823960805181610a25015260a0518181816105800152818161090501528181610a6801528181610c8a015281816111960152818161126b01528181611433015261182e015260c0518181816105a70152818161092c01528181610a8f01528181610cac015281816111b9015281816112920152818161145a01526118550152f35b506020853d60201162000467575b816200044f60209383620004c8565b81010312620004625760209451620002fb565b600080fd5b3d915062000440565b6040513d6000823e3d90fd5b6020806001928551815201930191019091620002c2565b634e487b7160e01b600052604160045260246000fd5b6354be831760e11b8152600490fd5b9050602087015110153862000268565b601f909101601f19168101906001600160401b038211908210176200049357604052565b91908260409103126200046257604080519081016001600160401b0381118282101762000493576040526020808294805184520151910152565b519060ff82168203620004625756fe6040608081526004908136101561001557600080fd5b600091823560e01c908162329f2f1461180f5781630396a0ce146117ea57816306912d3c146116df5781630f4cf692146116c0578163167fd4831461168e578163184ff47f1461141a57816331e766a5146113f5578163394b78a21461123a5781633dfb88b2146111df5781634909229f1461117f5781634f367f0f1461115a57816358bfc379146110075781635bb9399514610fd65781635d5909dd14610fb757816362a361bb14610f91578163683f3dc314610f75578163715018a614610f1b5781637296aaea14610bff5781637d0a81c814610b5457816386f3c3f714610a485781638aa0ba9214610a0d5781638da5cb5b146109e55781639c971729146108e25781639cfced9714610889578163ac98e5df14610847578163ae93a2121461055f578163b5f38c811461053b578163bc14ee2b146104ff578163bea140b31461049c578163c17268d91461047d578163e1c7392a14610287578163f2fde38b146101ae575063fba630f21461018d57600080fd5b346101aa57816003193601126101aa576020906009549051908152f35b5080fd5b91905034610283576020366003190112610283576001600160a01b0382358181169391929084900361027f576101e2611b0d565b831561022d575050600054826bffffffffffffffffffffffff60a01b821617600055167f8be0079c531659141344cd1fd0a4f28419497f9722a3daafe3b4186f6b6457e0600080a380f35b906020608492519162461bcd60e51b8352820152602660248201527f4f776e61626c653a206e6577206f776e657220697320746865207a65726f206160448201526564647265737360d01b6064820152fd5b8480fd5b8280fd5b90503461028357826003193601126102835760065460ff811661046e5760019060ff1916176006556001600c5401600c558151906102c482611918565b7f12817f4161f2f5ded33f26c55735a77e80e4f8975483c8c2704745128417f71182526020928383018581528151936102fc85611918565b60008552825161030b8161195e565b8661014096873684370152600086845161032481611918565b82815201528251946103358661195e565b368637518452518484015280519361034c85611918565b7f171e826ad4a870fd925e0bf0e87884e70e080879c2205ef10114f28a3b6f6dd78552808501927f2bd407d897fbbca9f88adfd2d15252e69de8c1564eb4d3d27162e259172f1a1d84528251946103a286611918565b6001865282860152816103b58787611d77565b6012548551631ffc735d60e01b815293840191909152829060249082908b906001600160a01b03165af1801561046457610430575b867fe2067f06dd7b8159b21a5490f8663f6bb031d9b35ed6d298b5489674cb9cda4b6101a087878a61041e89518094611a32565b5161016083015251610180820152a180f35b81949392943d831161045d575b61044781836119cf565b8101031261045857909138806103ea565b600080fd5b503d61043d565b83513d89823e3d90fd5b5090516342a2e18d60e01b8152fd5b5050346101aa57816003193601126101aa57602090600b549051908152f35b8284346104fc5760603660031901126104fc5736602312156104fc575080516104c4816119b3565b60648136821161045857602094905b8282106104ed575050506104e690611c41565b9051908152f35b813581529085019085016104d3565b80fd5b5050346101aa57816003193601126101aa5760609060018060a01b03806011541691816012541691601354169181519384526020840152820152f35b5050346101aa57816003193601126101aa5760209060ff600a541690519015158152f35b905034610283576020806003193601126108435761057b611b0d565b6105a57f000000000000000000000000000000000000000000000000000000000000000042611b65565b7f0000000000000000000000000000000000000000000000000000000000000000101561083457600a5460ff81166108245760ff1916600117600a556011548351630c0775ff60e31b81526001600160a01b039182169083818681855afa9081156107dd578391859189916107e7575b508688518094819363b6a64acd60e01b8352165afa9081156107dd5787916107b0575b50156107a157828691602487518094819363dd0982a360e01b835289358a8401525af190811561079757869161076a575b508060095584519061067a826119b3565b6060368337815260ff60105460181c16600019810160ff81116107575760051115610744578392916106b59154848201528787820152611c41565b600b556011541684519384809263122db15360e01b82525afa92831561073b5750839261070d575b505080600d556009547fa80928657383ff9d374f1409cf51e7460a64472b6baeb5ded1199830c15bae018380a380f35b90809250813d8311610734575b61072481836119cf565b81010312610458575138806106dd565b503d61071a565b513d85823e3d90fd5b634e487b7160e01b875260328552602487fd5b634e487b7160e01b885260118652602488fd5b90508281813d8311610790575b61078181836119cf565b81010312610458575138610669565b503d610777565b85513d88823e3d90fd5b8451624a03c360e31b81528490fd5b6107d09150843d86116107d6575b6107c881836119cf565b810190611b88565b38610638565b503d6107be565b86513d89823e3d90fd5b92505081813d831161081d575b6107fe81836119cf565b81010312610819575182811681036108195783839138610615565b8680fd5b503d6107f4565b835163084ef7b960e41b81528390fd5b509051630931513d60e11b8152fd5b8380fd5b5050346101aa57816003193601126101aa5760809060ff6010548251928282168452828260081c166020850152828260101c169084015260181c166060820152f35b8284346104fc5760a03660031901126104fc5736602312156104fc575080516108b181611997565b60a48136821161045857602094905b8282106108d3575050506104e690611d10565b813581529085019085016108c0565b90503461028357602036600319011261028357803591610900611b0d565b61092a7f000000000000000000000000000000000000000000000000000000000000000042611b65565b7f000000000000000000000000000000000000000000000000000000000000000010156109d85760125484926001600160a01b039091169190823b15610843578460248592838551968794859363c15da65b60e01b85528401525af19081156109cf57506109bb575b50807f1245b881cb30fdad22b2f9fde2d5c2a3605bbdf272d5e8a2235d8c9e81aba2ce91a280f35b6109c49061194a565b6101aa578138610993565b513d84823e3d90fd5b51630931513d60e11b8152fd5b5050346101aa57816003193601126101aa57905490516001600160a01b039091168152602090f35b5050346101aa57816003193601126101aa57602090517f00000000000000000000000000000000000000000000000000000000000000008152f35b8383346101aa57610a5836611af7565b919093610a63611b0d565b610a8d7f000000000000000000000000000000000000000000000000000000000000000042611b65565b7f00000000000000000000000000000000000000000000000000000000000000001015610b465760ff600a5416610b38576011546001600160a01b0316803b1561027f57604485928388938651978895869463cfa1fa0360e01b865285015260248401525af19081156109cf5750610b29575b50907fbe5eae95ff0a9a2779506ae62da06dda1e349311d3f2b6ceb990ea42b6a5f20b8280a280f35b610b329061194a565b82610b00565b905163084ef7b960e41b8152fd5b9051630931513d60e11b8152fd5b905034610283573660031901906080821261084357825193606085019285841067ffffffffffffffff851117610bec578490848252126104fc57509281602094610ba06104e694611918565b35815260243560808301528152838101604435815283820190606435825285855193610bcb8561197b565b60803686378051518552510151868401525184830152516060820152611ca8565b506041602492634e487b7160e01b835252fd5b9190503461028357806003193601126102835781359067ffffffffffffffff9283831161027f573660238401121561027f578281013591848311610f175760249061016090368383870288010111610f1357823596808811610f0f5736602389011215610f0f5787850135908111610f0f5736848260061b8a010111610f0f57808603610eff5794957f0000000000000000000000000000000000000000000000000000000000000000957f000000000000000000000000000000000000000000000000000000000000000091908a5b898110610cda578b80f35b81811015610eed57858102830190866023198336030112610ee957855191610d0183611918565b88810135835236606382011215610ee557865190610d1e8261195e565b81610184820191368311610ee057604401905b828210610ed057505050602083015284610d4b8b42611b65565b1015610ec057600c5491600e54831015610eb0578160061b8d0190898201357f30644e72e131a029b85045b68181585d2833e84879b9709143e1f593f000000180821090811591610ea1575b50610e91578f6001809601600c558583528960231985360301126104fc5760208a918d8f610ddd6044865199610dcc8b611918565b888b52013598898682015288611d77565b6012549551631ffc735d60e01b81529182015293849283916001600160a01b03165af18015610e8357610e50575b50907fe2067f06dd7b8159b21a5490f8663f6bb031d9b35ed6d298b5489674cb9cda4b926101a092610e3f8b518094611a32565b8b830152610180820152a101610ccf565b602090819392933d8311610e7c575b610e6981836119cf565b81010312610e78579038610e0b565b8f80fd5b503d610e5f565b50508f8951903d90823e3d90fd5b88516354be831760e11b81528c90fd5b90506044840135101538610d97565b8651631ec0b2f760e01b81528a90fd5b855163148fb9a960e31b81528990fd5b8135815260209182019101610d31565b508f80fd5b8d80fd5b8c80fd5b634e487b7160e01b8c5260328852868cfd5b815163ca3487f760e01b81528590fd5b8880fd5b8780fd5b8580fd5b83346104fc57806003193601126104fc57610f34611b0d565b80546001600160a01b03198116825581906001600160a01b03167f8be0079c531659141344cd1fd0a4f28419497f9722a3daafe3b4186f6b6457e08280a380f35b5050346101aa57816003193601126101aa5760209051600a8152f35b5050346101aa57806003193601126101aa576020906104e6610fb2366119f1565b611ba0565b5050346101aa57816003193601126101aa57602090600d549051908152f35b5050346101aa576020906104e6610fec36611af7565b835191610ff883611918565b84368437825284820152611ba0565b8284346104fc57602092836003193601126101aa57803567ffffffffffffffff918282116108435736602383011215610843578181013592831161114757508160051b9084519261105a878401856119cf565b83528583016024819383010191368311610f175791859391602489969401905b82821061113557505086519251858401929150845b81811061111c57505050816110ac9103601f1981018352826119cf565b84519080519084845b8381106111075750505081908101838152039060025afa156110fc577f30644e72e131a029b85045b68181585d2833e84879b9709143e1f593f00000019051069051908152f35b9051903d90823e3d90fd5b828101820151858201528795508691016110b5565b825184528996889650938401939092019160010161108f565b8135815287955090860190860161107a565b634e487b7160e01b845260419052602483fd5b8284346104fc57806003193601126104fc5750600d54600c5482519182526020820152f35b8284346104fc57806003193601126104fc575080517f000000000000000000000000000000000000000000000000000000000000000081527f00000000000000000000000000000000000000000000000000000000000000006020820152f35b905034610283576080366003190112610283573660231215610283578151906112078261197b565b81608491368311610f175760209550905b82821061122b575050506104e690611ca8565b81358152908501908501611218565b905034610283576101a090816003193601126108435761125936611a66565b90836101631936011261027f576112907f000000000000000000000000000000000000000000000000000000000000000042611b65565b7f000000000000000000000000000000000000000000000000000000000000000011156113e757600c5490600e548210156113d95761016435917f30644e72e131a029b85045b68181585d2833e84879b9709143e1f593f0000001808410908115916113cb575b506113bc57600101600c5560018352602061131a61131436611acc565b85611d77565b6012548751631ffc735d60e01b815293840191909152829060249082908a906001600160a01b03165af1801561079757611391575b5061137d7fe2067f06dd7b8159b21a5490f8663f6bb031d9b35ed6d298b5489674cb9cda4b94518093611a32565b61016082015261018435610180820152a180f35b602090813d81116113b5575b6113a781836119cf565b8101031261027f573861134f565b503d61139d565b5084516354be831760e11b8152fd5b9050610184351015386112f7565b8451631ec0b2f760e01b8152fd5b835163148fb9a960e31b8152fd5b8284346104fc57806003193601126104fc575060075460085482519182526020820152f35b919050346102835761142b36611af7565b6114589391937f000000000000000000000000000000000000000000000000000000000000000042611b65565b7f0000000000000000000000000000000000000000000000000000000000000000111561167f57600c54600e5481101561166f57600101600c5560135483516323b872dd60e01b8152338185015230602482015260448101839052602093926001600160a01b03929091908590829060649082908c9088165af18015611665579085939291611648575b508551966114ef88611918565b875282870190815285519661150388611918565b88885286516115118161195e565b84610140998a36843701528884885161152981611918565b828152015286519761153a8961195e565b368937518752518287015260246115b7865161155581611918565b7f171e826ad4a870fd925e0bf0e87884e70e080879c2205ef10114f28a3b6f6dd781527f2bd407d897fbbca9f88adfd2d15252e69de8c1564eb4d3d27162e259172f1a1d858201528751986115a98a611918565b60028a52858a015288611d77565b9160125416938887519586948593631ffc735d60e01b85528401525af1801561163e57611615575b847f935afc7bb7cc33eb3e24e20dcfc75f5b21fa58e9c82cca06435238efaf9a3a586101608661161187518092611a32565ba180f35b813d8311611637575b61162881836119cf565b810103126102835738806115df565b503d61161e565b83513d87823e3d90fd5b61165e90843d86116107d6576107c881836119cf565b50386114e2565b86513d8a823e3d90fd5b8351631ec0b2f760e01b81528390fd5b50905163148fb9a960e31b8152fd5b5050346101aa576101a03660031901126101aa576020906104e66116b136611a66565b6116ba36611acc565b90611d77565b5050346101aa57816003193601126101aa57602090600c549051908152f35b5050346101aa5760603660031901126101aa57906101c091611700366119f1565b91815161170c81611918565b81815282519361171b8561195e565b6101409283368737602095868094015282855161173781611918565b82815201528351926117488461195e565b36843780518352015183820152815161176081611918565b7f171e826ad4a870fd925e0bf0e87884e70e080879c2205ef10114f28a3b6f6dd78152838101917f2bd407d897fbbca9f88adfd2d15252e69de8c1564eb4d3d27162e259172f1a1d83528351946117b686611918565b60443586528501526117d46117cb8286611d77565b93518095611a32565b51610160840152516101808301526101a0820152f35b8284346104fc57806003193601126104fc5750600e54600f5482519182526020820152f35b905034610283578260031936011261028357611829611b0d565b6118537f000000000000000000000000000000000000000000000000000000000000000042611b65565b7f00000000000000000000000000000000000000000000000000000000000000001015610b46576012546010805484516324a47aeb60e01b8152911c60ff16928101929092526020908290602490829087906001600160a01b03165af19182156109cf575082916118e7575b507fc5624680ab5d50c84507f9e0dc2032163de2bda906ab8a661a53dd4d43bd5dc78280a280f35b90506020813d8211611910575b81611901602093836119cf565b810103126101aa5751386118bf565b3d91506118f4565b6040810190811067ffffffffffffffff82111761193457604052565b634e487b7160e01b600052604160045260246000fd5b67ffffffffffffffff811161193457604052565b610140810190811067ffffffffffffffff82111761193457604052565b6080810190811067ffffffffffffffff82111761193457604052565b60a0810190811067ffffffffffffffff82111761193457604052565b6060810190811067ffffffffffffffff82111761193457604052565b90601f8019910116810190811067ffffffffffffffff82111761193457604052565b80602312156104585760405190611a0782611918565b816044918211610458576004905b828210611a225750505090565b8135815260209182019101611a15565b805182526020808092015192016000905b600a8210611a515750505050565b82806001928651815201940191019092611a43565b906101606003198301126104585760405191611a8183611918565b82600435815281604312156104585760405191611a9d8361195e565b82610164918211610458576024905b828210611abc5750505060200152565b8135815260209182019101611aac565b6040906101631901126104585760405190611ae682611918565b610164358252610184356020830152565b6040906003190112610458576004359060243590565b6000546001600160a01b03163303611b2157565b606460405162461bcd60e51b815260206004820152602060248201527f4f776e61626c653a2063616c6c6572206973206e6f7420746865206f776e65726044820152fd5b91908203918211611b7257565b634e487b7160e01b600052601160045260246000fd5b90816020910312610458575180151581036104585790565b6040516314d2f97b60e11b815290600090600483015b60028310611c2a575050506020816044817347076a871Ae4e442784dff8BCB42E3E4E440D5195af4908115611c1e57600091611bf0575090565b906020823d8211611c16575b81611c09602093836119cf565b810103126104fc57505190565b3d9150611bfc565b6040513d6000823e3d90fd5b600190825181526020809101920192019190611bb6565b6040516304b98e1d60e31b815290600090600483015b60038310611c915750505060208160648173Fa21436084377C74855b2DB9CFe7322a4DDC1c3C5af4908115611c1e57600091611bf0575090565b600190825181526020809101920192019190611c57565b60405163248f667760e01b81529060049060008284015b838210611cf9575050505060208160848173Af8D2aF5AB9654e4818142c6511754771c8064A55af4908115611c1e57600091611bf0575090565b600190835181526020809101930191019091611cbf565b604051630926f44b60e31b815290600090600483015b60058310611d605750505060208160a481732D610532b8e16e950DD853572Fee9493d3c339625af4908115611c1e57600091611bf0575090565b600190825181526020809101920192019190611d26565b906020808301916040805194611d8c86611997565b60a0368737845151865283855101518487015281855101518287015260608551015160608701526080855101516080870152610120825195611dcd87611997565b60a036883760a081510151875260c0815101518688015260e08151015184880152610100815101516060880152510151608086015281519460a0860186811067ffffffffffffffff82111761193457611e5297611e3b93611e32928652518852611d10565b85870152611d10565b908401528051606084015201516080820152611d10565b9056fea26469706673582212202e780734c8142915b2707cdf804ba8a3584f3f4c36564eb54aae64c4054a01ea64736f6c6343000814003360e0346200065c57601f620022ae38819003918201601f19168301916001600160401b0383118484101762000661578084926020946040528339810103126200065c5751600054906040513360018060a01b0384167f8be0079c531659141344cd1fd0a4f28419497f9722a3daafe3b4186f6b6457e0600080a381156200064d5750602081116200062e576001600160a81b03199091163360ff60a01b1916176000556080819052600560a052620000b79062000677565b60c0527f12817f4161f2f5ded33f26c55735a77e80e4f8975483c8c2704745128417f711610172557f1c8de1edeabc24fc4c1595acaabb70be9b70f351d58c6fa338e1e9a994413bfb610173557f22fcda488c14b34fc60eb073fbe92fe10793e2ab14682e0f057332ddbef3d55c610174557f2db474db7c7212646cb15c6177d87be30711e6c04f1139d8e495ef1d1d998227610175557efde404053ec39a19f6ac347121a2264815dda84f910a388cb372e967a5d08c610176557f0723792ffab6ec6cfb3ece1509b9b4fb07e5bdb2299d1538e6e1db916f90cf89610177557f2a4392ec4e3d1811cd6a950cc865ee6f2342910a6551c5dce38cb995576c7c70610178557f1dead4c14f75e9d8449c80b648dcd4694c2ee50da2ba16e5e438f0d77ab02e34610179557f124c53ce0953fffb7ab5e3c143df6cd48ba747d3959fcb8086405d763ed5455061017a557f02bae19605746a8cd3f0927b2c01630f36f4d1bab9216ca839833e7ff6efa20661017b557f1f8375099becf17173d457d0d07bfb74c7067df1143b5ad987046e8e66817bc961017c557f0e13e954d61bb3fa3b03e7d136ca909b610fa2ca4443d920d94d16684f2b83d461017d557f1416ef2fc4f88fcfc4f9eb12f8e214b1c3e31c6c10ece9cfa51f078a3bbf345761017e557f032f915ff71e198a7955d2697249f40fb94c65812ed24e670c9700f52fdf6e0e61017f557f08bfebf4b3ddb0f8c51dd40193f5996da9f3d799ee0d8beb6be4038132df60b4610180557f065ac498cf4a5acaeb3b6cee826da9f834c961fa39feff6ae925b90dff79b613610181557f2e72c628101a93201b912a3e3fe96d39b0a9076ec39b7935a015c59bb32b8a2a610182557f19bba68e7b9da1e6ec42e52d7ab2adaf3b6a5521b1a454ec70f62e0ab702c085610183557f0de1f72745a5af2a34cac412e00eb6c8b5db1f3b52fa1bff88076c2726b83b08610184557f2e8f152603b2fac10d6a14c841327c23c502537367ccb1e42fab9a3bd9db2a8d610185557f14e16c3e0dcfd7e621a32627ebf37f6c0afb4467d34c7b7aeffded11769dec85610186557f0be1e62127948b4805c85a1d836574f0892ca6473fcde98f3fd1781248a9768f610187557f0930288fbd7c849197c8372f1dd8f9087f8a03f09b9cd904a469c15ef6b1b515610188557f231cac34e215e3f404d2fcfb79e0705deeb3d40978f0ee31072f6cbc1b579e33610189557f2e0e3cd2718ac7199b81dc14e841de40a9536b7ffe95fa1fc9c6b799e43e2c9761018a557f0718452506f0a232e98966d84b1a4675a66bd80263a2dc58bdac873825752fc361018b557f162d4ed998307d6e132edbf5c11f62f53d4636aa10cb3c2244c2bf5577168c3761018c557f247d6a5544a8f295a894ae77c7efcdcbf52e3bf4e5d0c0d2f40557a61d44984861018d557f0b8de3868471f109e91670daca698dba917d1c5535821f33aa9598d1db8e3d1961018e557f29851997020f527c92e20f030d232b81d334144a641e6a8866b46dd925005bbb61018f557f1a9cfcbe29a2b6503a03049727c0bca3111afd62f2836f392080321d1b4ef642610190557f1aa3ead91fa89cc1d6cb1d0eb76a27190c6abfdd3265d6d0a1e5c58feddaddf6610191557f0702fc26a7d367e6677efefd95204a7e00144c2fc7dbc2a581aa00d99f51f08161019255604051611ba990816200070582396080518181816102980152818161031201528181610c7b015281816110cf015281816111c5015281816114610152818161158d015281816115fb015261199b015260a05181818161046801528181610d22015281816110a5015281816111ee015281816113400152818161140b01528181611717015281816118010152611978015260c0518181816102690152818161055701528181610c4401526113a90152f35b60449060405190637ccdcc9760e11b8252600482015260206024820152fd5b63682e504160e11b8152600490fd5b600080fd5b634e487b7160e01b600052604160045260246000fd5b8015620006fe57600190602081108216604e8210831617620006f65781906005925b808211620006c957505081600019048111620006b3570290565b634e487b7160e01b600052601160045260246000fd5b909280600019048111620006b357818416620006ec575b800292811c9062000699565b80920291620006e0565b905060050a90565b5060019056fe60406080815260048036101561001457600080fd5b600091823560e01c80631b9b8aa714610d065780631ffc735d14610beb57806324a47aeb14610bc35780633bfa6fce14610ba65780633dfb88b214610ac85780633e1a8cc114610a8e57806358bfc379146109375780635bb93995146109065780635bf1fa4d1461089057806362a361bb1461083657806369e7c5861461080e578063715018a6146107b457806381d6a24a1461078e5780638da5cb5b146107665780639cfced971461070b578063a27154ba146106f0578063b6a64acd146106cb578063bea140b3146105a7578063c00bdbcc14610516578063c15da65b146104ee578063d9c55ce114610242578063dda89a6e1461021e578063e93fb4d4146101f45763f2fde38b1461012857600080fd5b346101f05760203660031901126101f0576001600160a01b038235818116939192908490036101ec57610159610e24565b831561019a57505082546001600160a01b0319811683178455167f8be0079c531659141344cd1fd0a4f28419497f9722a3daafe3b4186f6b6457e08380a380f35b906020608492519162461bcd60e51b8352820152602660248201527f4f776e61626c653a206e6577206f776e657220697320746865207a65726f206160448201526564647265737360d01b6064820152fd5b8480fd5b8280fd5b50823461021b57602036600319011261021b575061021460209235611b2e565b9051908152f35b80fd5b83823461023e578160031936011261023e57602090610171549051908152f35b5080fd5b5082903461023e578160031936011261023e5761025d610e24565b6101719081549061028f7f00000000000000000000000000000000000000000000000000000000000000008093610e7c565b610310576102bc7f0000000000000000000000000000000000000000000000000000000000000000611b62565b90600154855261014c6020528420555b600154600181018091116102fd5790816102e892600155611023565b90558061016f5561016e60ff19815416905580f35b634e487b7160e01b845260118552602484fd5b7f0000000000000000000000000000000000000000000000000000000000000000845b81811061039c575060218110156103895760021b6002015490600154855261014c6020528420558360025b60868110610375575050610370610ff0565b6102cc565b6103818282018261100c565b01849061035e565b634e487b7160e01b855260328652602485fd5b6021811015806103c95781608601908154806103dc575b506103c95790866103c49255611071565b610333565b634e487b7160e01b875260328852602487fd5b9585979193959894929851976103f189610dcb565b60a0368a376103ff87611b62565b93865b60ff81168a811015610458578761044457908b61043961043f9361042c848e600290811b01611061565b90549060031b1c926117cb565b526117ba565b610402565b50634e487b7160e01b885260328d52602488fd5b509b9796959a94999850919290927f00000000000000000000000000000000000000000000000000000000000000009b5b60ff81168d8110156104a957908b6104396104a4938d6117cb565b610489565b5050979098506104bf9195949992969a50610f3d565b60018401908185116104db57906104d5916111c2565b896103b3565b634e487b7160e01b8a5260118b5260248afd5b50503461023e57602036600319011261023e576105139061050d610e24565b3561138b565b80f35b50346101f05760203660031901126101f057610530610e24565b600154835261014c60205281359083205561054c600154611071565b6001556101718054917f000000000000000000000000000000000000000000000000000000000000000083018093116105945750558061016f5561016e60ff19815416905580f35b634e487b7160e01b845260119052602483fd5b50346101f05760603660031901126101f05736602312156101f05780516060810181811067ffffffffffffffff8211176106b8578252806064913683116106b457849194905b8382106106a457505082516304b98e1d60e31b815293849186919083015b6003831061068a575050506020918173Fa21436084377C74855b2DB9CFe7322a4DDC1c3C5af4918215610680578392610649575b6020838351908152f35b9091506020813d8211610678575b8161066460209383610de7565b810103126101f0576020925051903861063f565b3d9150610657565b81513d85823e3d90fd5b81518152869350600192909201916020918201910161060b565b81358152602091820191016105ed565b8580fd5b634e487b7160e01b855260418452602485fd5b83823461023e578160031936011261023e5760209060ff61016e541690519015158152f35b83823461023e578160031936011261023e5760209051818152f35b5090346101f05760a03660031901126101f05736602312156101f05781519061073382610dcb565b8160a4913683116106b45760209550905b8282106107575750505061021490610f3d565b81358152908501908501610744565b83823461023e578160031936011261023e57905490516001600160a01b039091168152602090f35b50823461021b578060031936011261021b57506101705460015482519182526020820152f35b833461021b578060031936011261021b576107cd610e24565b80546001600160a01b03198116825581906001600160a01b03167f8be0079c531659141344cd1fd0a4f28419497f9722a3daafe3b4186f6b6457e08280a380f35b83823461023e578160031936011261023e5760209060ff61016e5460081c1690519015158152f35b5090346101f057816003193601126101f05736602312156101f05781519061085d82610d99565b816044913683116106b45760209550905b8282106108815750505061021490610e9c565b8135815290850190850161086e565b50823461021b576108a036610e09565b908351926108ad84610dcb565b60a036853760218210156108f35750906005602095610214949360021b908160020154855260038201548886015281015486850152015460608301526080820152610f3d565b634e487b7160e01b815260328652602490fd5b83823461023e5760209061021461091c36610e09565b83519161092883610d99565b84368437825284820152610e9c565b50823461021b576020928360031936011261023e57803567ffffffffffffffff91828211610a8a5736602383011215610a8a5781810135928311610a7757508160051b9084519261098a87840185610de7565b835285830160248193830101913683116106b45791859391602489969401905b828210610a6557505086519251858401929150845b818110610a4c57505050816109dc9103601f198101835282610de7565b84519080519084845b838110610a375750505081908101838152039060025afa15610a2c577f30644e72e131a029b85045b68181585d2833e84879b9709143e1f593f00000019051069051908152f35b9051903d90823e3d90fd5b828101820151858201528795508691016109e5565b82518452899688965093840193909201916001016109bf565b813581528795509086019086016109aa565b634e487b7160e01b845260419052602483fd5b8380fd5b50823461021b578060031936011261021b575060ff61016e541615610abb5760209061016f549051908152f35b51631e596e4360e11b8152fd5b50346101f05760803660031901126101f05736602312156101f0578051916080830183811067ffffffffffffffff821117610b93578252608490833683116106b457819491905b838210610b83575050825163248f667760e01b8152938491868284015b838210610b6957505050506020918173Af8D2aF5AB9654e4818142c6511754771c8064A55af4918215610680578392610649576020838351908152f35b825181528794506020928301926001929092019101610b2c565b8135815260209182019101610b0f565b634e487b7160e01b855260418252602485fd5b83823461023e578160031936011261023e5760209061021461133a565b50823461021b57602036600319011261021b5750610214602092610be5610e24565b35611953565b50346101f05760203660031901126101f057610c05610e24565b61017192835492610c1681356110a2565b600194858501808611610cf3578155610c6990610c31610ff0565b8361016f5561016e60ff198154169055547f000000000000000000000000000000000000000000000000000000000000000090610e7c565b15610c79575b6020848451908152f35b7f0000000000000000000000000000000000000000000000000000000000000000906021821015610ce05750819060021b60020180548654835261014c60205284832055610cc78654611071565b86555560865b60a7811015610c6f578181558401610ccd565b634e487b7160e01b835260329052602482fd5b634e487b7160e01b845260118352602484fd5b50823461021b57602036600319011261021b57823590610d46827f0000000000000000000000000000000000000000000000000000000000000000611293565b61017154809110610d7e57506021821015610d6b576020838361014d01549051908152f35b634e487b7160e01b815260328452602490fd5b8460449184865192627289df60e61b84528301526024820152fd5b6040810190811067ffffffffffffffff821117610db557604052565b634e487b7160e01b600052604160045260246000fd5b60a0810190811067ffffffffffffffff821117610db557604052565b90601f8019910116810190811067ffffffffffffffff821117610db557604052565b6040906003190112610e1f576004359060243590565b600080fd5b6000546001600160a01b03163303610e3857565b606460405162461bcd60e51b815260206004820152602060248201527f4f776e61626c653a2063616c6c6572206973206e6f7420746865206f776e65726044820152fd5b8115610e86570690565b634e487b7160e01b600052601260045260246000fd5b6040516314d2f97b60e11b815290600090600483015b60028310610f26575050506020816044817347076a871Ae4e442784dff8BCB42E3E4E440D5195af4908115610f1a57600091610eec575090565b906020823d8211610f12575b81610f0560209383610de7565b8101031261021b57505190565b3d9150610ef8565b6040513d6000823e3d90fd5b600190825181526020809101920192019190610eb2565b604051630926f44b60e31b815290600090600483015b60058310610f8d5750505060208160a481732D610532b8e16e950DD853572Fee9493d3c339625af4908115610f1a57600091610eec575090565b600190825181526020809101920192019190610f53565b60405190610fb182610dcb565b60a0368337565b60405190610fc582610d99565b6040368337565b9060018201809211610fda57565b634e487b7160e01b600052601160045260246000fd5b61014d5b61016e81106110005750565b60008155600101610ff4565b818110611017575050565b6000815560010161100c565b81810292918115918404141715610fda57565b602181101561104b5760021b60a70190600090565b634e487b7160e01b600052603260045260246000fd5b600482101561104b570190600090565b6000198114610fda5760010190565b602181101561104b5761012b0190600090565b600019810191908211610fda57565b907f00000000000000000000000000000000000000000000000000000000000000006000198101908111917f000000000000000000000000000000000000000000000000000000000000000060005b602181101561104b57806086019585875490610fda5785810361117957509060006111749261116d60406006611165825161112b81610dcb565b60a036823760029588871b809701948554835260038801546020840152600488015490830152600587015460608301526080820152610f3d565b93019061100c565b9755611071565b6110f1565b6111939192949796506111ac939550600285811b01611061565b90919082549060031b91821b91600019901b1916179055565b036111b45750565b6111be8154611071565b9055565b917f000000000000000000000000000000000000000000000000000000000000000090818311611281577f0000000000000000000000000000000000000000000000000000000000000000916000198301928311935b602181101561126c578060860195858754906112575785810361117957509060006112529261116d60406006611165825161112b81610dcb565b611218565b60246000634e487b7160e01b81526011600452fd5b60246000634e487b7160e01b81526032600452fd5b60405163d1459f7960e01b8152600490fd5b90801561133357811561132c578180600114611324576002146113135760208110610133831016604e8210600b8410161761130e57600190815b8082116112e557505081600019048111610fda570290565b909280600019048111610fda57818416611305575b800292811c906112cd565b809202916112fa565b900a90565b905060ff8111610fda576001901b90565b505050600190565b5050600090565b5050600190565b600180547f000000000000000000000000000000000000000000000000000000000000000092915b8161136d8286611293565b10156113865761137f61136d91611071565b9050611362565b925050565b60ff9061016e91808354166117a857610171908154908115611796577f0000000000000000000000000000000000000000000000000000000000000000916113d38382610e7c565b611571575b50505050600190815482811461151657506113f161133a565b90826000610170928354925b6114ae575b50505061142f827f0000000000000000000000000000000000000000000000000000000000000000611293565b9054835480911461145c575b5050602181101561104b5760021b60a7015461016f5560ff19825416179055565b6114857f0000000000000000000000000000000000000000000000000000000000000000611b62565b905b828110611494575061143b565b6114a9906114a4856000856117dc565b611071565b611487565b85548310156115115780151580611508575b6114ff576114f86114f287936114e18860006114dc8a54611b2e565b6117dc565b6114eb8754611071565b8755611071565b93611071565b92916113fd565b50505050505050565b508082146114c0565b611402565b905015611558576000805261014c6020527f2f1ae789e51094ec473affec14fe3c88a47d4230101ae4544eefebff81efc6d75461016f55815460ff1916179055565b60405163042a2e7160e11b815260006004820152602490fd5b826115839161157e610e24565b610e7c565b6115f957506115b17f0000000000000000000000000000000000000000000000000000000000000000611b62565b60015460005261014c6020526040600020555b6001549060018201809211610fda57816115e092600155611023565b9055600061016f55815460ff19168255388080806113d8565b7f00000000000000000000000000000000000000000000000000000000000000009060005b828110611677575050602181101561104b5760021b6002015460015460005261014c60205260406000205560025b60868110611662575061165d610ff0565b6115c4565b8061167160048093018261100c565b0161164c565b6021811015908161104b5780608601918254806116a5575b5061104b5760006116a09255611071565b61161e565b999792989394604097929796919651986116be8a610dcb565b60a0368b376116cc89611b62565b956000955b8689168e811015611705578a61104b57878f986104398f91938f6116fe9561042c91600290811b01611061565b96506116d1565b5092959c50929a97959998969a9390937f00000000000000000000000000000000000000000000000000000000000000009c5b808d168e811015611764578e9695949392918d610439611758938f6117cb565b90919293949550611738565b5050979496939b509761177c91995099949199610f3d565b60018301808411610fda57611790916111c2565b3861168f565b6040516316a0341160e11b8152600490fd5b604051630d36aec160e01b8152600490fd5b60ff1660ff8114610fda5760010190565b90600581101561104b5760051b0190565b929180821161194d576117fb6117f183611080565b90549060031b1c90565b906118257f0000000000000000000000000000000000000000000000000000000000000000611093565b821461187a57509061184b61187893946111936118509461184585611036565b50611061565b611080565b6118616114a48284549060031b1c90565b825460001960039390931b92831b1916911b179055565b565b9190600061188d815460ff9060a01c1690565b156118e95750506118e36118bf61187894956118a7610fb8565b906118b185611036565b505482526020820152610e9c565b915b6118de6118cd82611080565b8154906000199060031b1b19169055565b610fcc565b906117dc565b926118f695949195610fa4565b935b60ff81168781101561192857906119239161043961191c6117f1846118458a611036565b91886117cb565b6118f8565b50509261194790611878956119416118e39498836117cb565b52610f3d565b916118c1565b50509050565b8015611b1c5760ff9061016e8281541615611b0a57602092838311611aec57610171547f000000000000000000000000000000000000000000000000000000000000000094907f00000000000000000000000000000000000000000000000000000000000000005b816119c68289611293565b10156119df576119d86119c691611071565b90506119bb565b9394955050828510611acf57848303611a1a5750505061016f5491602181101561104b5761014d01829055805461ff00191661010017905590565b61016f5495949291905b838310611a4d57505050602181101561104b5761014d01839055805461ff001916610100179055565b909195611a9690611a5d88611b62565b60005460a0929190831c861615611a9d57611a909250604091825192611a8284610d99565b368437825284820152610e9c565b96611071565b9190611a24565b80611a909392604090815194611ab286610dcb565b368637845281878501528301528060608301526080820152610f3d565b6044858460405191627289df60e61b835260048301526024820152fd5b6044838560405191632cd31ae960e01b835260048301526024820152fd5b604051631e596e4360e11b8152600490fd5b604051630543d40760e11b8152600490fd5b806001541115611b4a5760005261014c60205260406000205490565b6024906040519063042a2e7160e11b82526004820152fd5b602181101561104b5761017201549056fea2646970667358221220aa888649b567f909a5bfd0859bac877470e2663f3b10aff1e5ca5ba44b6eb0b164736f6c63430008140033a2646970667358221220ceca36f53c6288a87b8bb5deb2a4e38c076632a986925e6ac7048e4028ef9a6664736f6c63430008140033",
  "deployedBytecode": "0x60806040818152600490813610156200001757600080fd5b600092833560e01c908163683f3dc31462000341575063b43c4969146200003d57600080fd5b346200028a57610180806003193601126200033d57816023193601126200033d5760803660631901126200033d578160e3193601126200033d57610124356001600160a01b0381811692918390036200029857610144359281841680940362000339576101643592828416809403620003355760443591660400000000000083101562000325576084359060ff821680920362000321578751906122ae9182810167ffffffffffffffff9382821085831117620003045760209183916200274f83398681520301908cf080156200031757861697895191606083018381108582111762000304578b52825260208201938985528a83019182528a51966123c18089019589871090871117620002f0576200038e89398c35855260243560208601528b85015260643560ff8116809103620002ec576060850152608084015260a43560ff8116809103620002e85760a084015260c4359160ff8316809303620002e857869488809492819360c088015260e43560e08801526101043561010088015251166101208601525116610140840152511661016082015203019087f08015620002de571693823b156200029857835186816024818363f2fde38b60e01b988983528b888401525af18015620002d457620002be575b50843b15620002985783516370e39c9560e11b8152869081818481838b5af18015620002b4576200029c575b5050843b1562000298578351928352820152838160248183875af180156200028e5762000272575b6020838351908152f35b6200027e849162000362565b6200028a578262000268565b8280fd5b82513d86823e3d90fd5b8580fd5b620002a79062000362565b6200029857853862000240565b86513d84823e3d90fd5b620002cc9096919662000362565b943862000214565b85513d89823e3d90fd5b84513d88823e3d90fd5b8c80fd5b8d80fd5b50634e487b7160e01b8e5260418d5260248efd5b634e487b7160e01b8e5260418d5260248efd5b89513d8d823e3d90fd5b8980fd5b86516302c3596560e51b81528890fd5b8780fd5b8680fd5b8380fd5b8490346200035e57816003193601126200035e5780600a60209252f35b5080fd5b67ffffffffffffffff81116200037757604052565b634e487b7160e01b600052604160045260246000fdfe60e080604052620023c180380380916200001a8285620004c8565b8339810190808203906101808212620004625780516200003e8460208401620004ec565b916080605f19850112620004625760405194608086016001600160401b038111878210176200049357606091620000c3916040526200007f83850162000526565b88526200008f6080850162000526565b6020890152620000a260a0850162000526565b6040890152620000b560c0850162000526565b8389015260e08401620004ec565b9461011f190112620004625760405190606082016001600160401b0381118382101762000493576040526101208101516001600160a01b038116810362000462578252610140810151906001600160a01b038216820362000462576020830191825261016001516001600160a01b0381168103620004625760408301526000543360018060a01b031982161760005560405190339060018060a01b03167f8be0079c531659141344cd1fd0a4f28419497f9722a3daafe3b4186f6b6457e0600080a37f0e8c0be063e1dee5a8a9df19f0715acdfac6b7260f41d6c3769166cac049db776001557f142181123bdf04edceb703cda229ba08b79092aad0eada9552d51966ee46229a6002557f20c99bb8b43cd63ee07ee8f33b445888ff638f67a7019b6d50036352a0e5e7bd6003557f1a999f92e772c387eb618ff2864256f26f268addaca43c88af7f8fab56ee19e76004557f0b81b4da4b6b26de7e3997b3c2eb68abb7573206ae5de5b964de736ee40022ab6005557f30644e72e131a029b85045b68181585d2833e84879b9709143e1f593f00000018087511090811591620004b8575b50620004a957506020855195866007550151806008556040519586604081011060018060401b036040890111176200049357604087016040526040368837865260208601526040516314d2f97b60e11b8152946000600487015b600282106200047c5750505060208560448173__$8658d3171857788947ecb1d152a017ec62$__5af48015620004705760009062000432575b6020955060805260018060a01b0382511660018060a01b0319601154161760115560018060a01b0390511660018060a01b03196012541617601255604060018060a01b039101511660018060a01b0319601354161760135560c0528051600e550151600f5560ff815116906010549161ff00602083015160081b169063ff000000606062ff0000604086015160101b1694015160181b169363ffffffff1916171717176010554260a052604051611e8b908162000536823960805181610a25015260a0518181816105800152818161090501528181610a6801528181610c8a015281816111960152818161126b01528181611433015261182e015260c0518181816105a70152818161092c01528181610a8f01528181610cac015281816111b9015281816112920152818161145a01526118550152f35b506020853d60201162000467575b816200044f60209383620004c8565b81010312620004625760209451620002fb565b600080fd5b3d915062000440565b6040513d6000823e3d90fd5b6020806001928551815201930191019091620002c2565b634e487b7160e01b600052604160045260246000fd5b6354be831760e11b8152600490fd5b9050602087015110153862000268565b601f909101601f19168101906001600160401b038211908210176200049357604052565b91908260409103126200046257604080519081016001600160401b0381118282101762000493576040526020808294805184520151910152565b519060ff82168203620004625756fe6040608081526004908136101561001557600080fd5b600091823560e01c908162329f2f1461180f5781630396a0ce146117ea57816306912d3c146116df5781630f4cf692146116c0578163167fd4831461168e578163184ff47f1461141a57816331e766a5146113f5578163394b78a21461123a5781633dfb88b2146111df5781634909229f1461117f5781634f367f0f1461115a57816358bfc379146110075781635bb9399514610fd65781635d5909dd14610fb757816362a361bb14610f91578163683f3dc314610f75578163715018a614610f1b5781637296aaea14610bff5781637d0a81c814610b5457816386f3c3f714610a485781638aa0ba9214610a0d5781638da5cb5b146109e55781639c971729146108e25781639cfced9714610889578163ac98e5df14610847578163ae93a2121461055f578163b5f38c811461053b578163bc14ee2b146104ff578163bea140b31461049c578163c17268d91461047d578163e1c7392a14610287578163f2fde38b146101ae575063fba630f21461018d57600080fd5b346101aa57816003193601126101aa576020906009549051908152f35b5080fd5b91905034610283576020366003190112610283576001600160a01b0382358181169391929084900361027f576101e2611b0d565b831561022d575050600054826bffffffffffffffffffffffff60a01b821617600055167f8be0079c531659141344cd1fd0a4f28419497f9722a3daafe3b4186f6b6457e0600080a380f35b906020608492519162461bcd60e51b8352820152602660248201527f4f776e61626c653a206e6577206f776e657220697320746865207a65726f206160448201526564647265737360d01b6064820152fd5b8480fd5b8280fd5b90503461028357826003193601126102835760065460ff811661046e5760019060ff1916176006556001600c5401600c558151906102c482611918565b7f12817f4161f2f5ded33f26c55735a77e80e4f8975483c8c2704745128417f71182526020928383018581528151936102fc85611918565b60008552825161030b8161195e565b8661014096873684370152600086845161032481611918565b82815201528251946103358661195e565b368637518452518484015280519361034c85611918565b7f171e826ad4a870fd925e0bf0e87884e70e080879c2205ef10114f28a3b6f6dd78552808501927f2bd407d897fbbca9f88adfd2d15252e69de8c1564eb4d3d27162e259172f1a1d84528251946103a286611918565b6001865282860152816103b58787611d77565b6012548551631ffc735d60e01b815293840191909152829060249082908b906001600160a01b03165af1801561046457610430575b867fe2067f06dd7b8159b21a5490f8663f6bb031d9b35ed6d298b5489674cb9cda4b6101a087878a61041e89518094611a32565b5161016083015251610180820152a180f35b81949392943d831161045d575b61044781836119cf565b8101031261045857909138806103ea565b600080fd5b503d61043d565b83513d89823e3d90fd5b5090516342a2e18d60e01b8152fd5b5050346101aa57816003193601126101aa57602090600b549051908152f35b8284346104fc5760603660031901126104fc5736602312156104fc575080516104c4816119b3565b60648136821161045857602094905b8282106104ed575050506104e690611c41565b9051908152f35b813581529085019085016104d3565b80fd5b5050346101aa57816003193601126101aa5760609060018060a01b03806011541691816012541691601354169181519384526020840152820152f35b5050346101aa57816003193601126101aa5760209060ff600a541690519015158152f35b905034610283576020806003193601126108435761057b611b0d565b6105a57f000000000000000000000000000000000000000000000000000000000000000042611b65565b7f0000000000000000000000000000000000000000000000000000000000000000101561083457600a5460ff81166108245760ff1916600117600a556011548351630c0775ff60e31b81526001600160a01b039182169083818681855afa9081156107dd578391859189916107e7575b508688518094819363b6a64acd60e01b8352165afa9081156107dd5787916107b0575b50156107a157828691602487518094819363dd0982a360e01b835289358a8401525af190811561079757869161076a575b508060095584519061067a826119b3565b6060368337815260ff60105460181c16600019810160ff81116107575760051115610744578392916106b59154848201528787820152611c41565b600b556011541684519384809263122db15360e01b82525afa92831561073b5750839261070d575b505080600d556009547fa80928657383ff9d374f1409cf51e7460a64472b6baeb5ded1199830c15bae018380a380f35b90809250813d8311610734575b61072481836119cf565b81010312610458575138806106dd565b503d61071a565b513d85823e3d90fd5b634e487b7160e01b875260328552602487fd5b634e487b7160e01b885260118652602488fd5b90508281813d8311610790575b61078181836119cf565b81010312610458575138610669565b503d610777565b85513d88823e3d90fd5b8451624a03c360e31b81528490fd5b6107d09150843d86116107d6575b6107c881836119cf565b810190611b88565b38610638565b503d6107be565b86513d89823e3d90fd5b92505081813d831161081d575b6107fe81836119cf565b81010312610819575182811681036108195783839138610615565b8680fd5b503d6107f4565b835163084ef7b960e41b81528390fd5b509051630931513d60e11b8152fd5b8380fd5b5050346101aa57816003193601126101aa5760809060ff6010548251928282168452828260081c166020850152828260101c169084015260181c166060820152f35b8284346104fc5760a03660031901126104fc5736602312156104fc575080516108b181611997565b60a48136821161045857602094905b8282106108d3575050506104e690611d10565b813581529085019085016108c0565b90503461028357602036600319011261028357803591610900611b0d565b61092a7f000000000000000000000000000000000000000000000000000000000000000042611b65565b7f000000000000000000000000000000000000000000000000000000000000000010156109d85760125484926001600160a01b039091169190823b15610843578460248592838551968794859363c15da65b60e01b85528401525af19081156109cf57506109bb575b50807f1245b881cb30fdad22b2f9fde2d5c2a3605bbdf272d5e8a2235d8c9e81aba2ce91a280f35b6109c49061194a565b6101aa578138610993565b513d84823e3d90fd5b51630931513d60e11b8152fd5b5050346101aa57816003193601126101aa57905490516001600160a01b039091168152602090f35b5050346101aa57816003193601126101aa57602090517f00000000000000000000000000000000000000000000000000000000000000008152f35b8383346101aa57610a5836611af7565b919093610a63611b0d565b610a8d7f000000000000000000000000000000000000000000000000000000000000000042611b65565b7f00000000000000000000000000000000000000000000000000000000000000001015610b465760ff600a5416610b38576011546001600160a01b0316803b1561027f57604485928388938651978895869463cfa1fa0360e01b865285015260248401525af19081156109cf5750610b29575b50907fbe5eae95ff0a9a2779506ae62da06dda1e349311d3f2b6ceb990ea42b6a5f20b8280a280f35b610b329061194a565b82610b00565b905163084ef7b960e41b8152fd5b9051630931513d60e11b8152fd5b905034610283573660031901906080821261084357825193606085019285841067ffffffffffffffff851117610bec578490848252126104fc57509281602094610ba06104e694611918565b35815260243560808301528152838101604435815283820190606435825285855193610bcb8561197b565b60803686378051518552510151868401525184830152516060820152611ca8565b506041602492634e487b7160e01b835252fd5b9190503461028357806003193601126102835781359067ffffffffffffffff9283831161027f573660238401121561027f578281013591848311610f175760249061016090368383870288010111610f1357823596808811610f0f5736602389011215610f0f5787850135908111610f0f5736848260061b8a010111610f0f57808603610eff5794957f0000000000000000000000000000000000000000000000000000000000000000957f000000000000000000000000000000000000000000000000000000000000000091908a5b898110610cda578b80f35b81811015610eed57858102830190866023198336030112610ee957855191610d0183611918565b88810135835236606382011215610ee557865190610d1e8261195e565b81610184820191368311610ee057604401905b828210610ed057505050602083015284610d4b8b42611b65565b1015610ec057600c5491600e54831015610eb0578160061b8d0190898201357f30644e72e131a029b85045b68181585d2833e84879b9709143e1f593f000000180821090811591610ea1575b50610e91578f6001809601600c558583528960231985360301126104fc5760208a918d8f610ddd6044865199610dcc8b611918565b888b52013598898682015288611d77565b6012549551631ffc735d60e01b81529182015293849283916001600160a01b03165af18015610e8357610e50575b50907fe2067f06dd7b8159b21a5490f8663f6bb031d9b35ed6d298b5489674cb9cda4b926101a092610e3f8b518094611a32565b8b830152610180820152a101610ccf565b602090819392933d8311610e7c575b610e6981836119cf565b81010312610e78579038610e0b565b8f80fd5b503d610e5f565b50508f8951903d90823e3d90fd5b88516354be831760e11b81528c90fd5b90506044840135101538610d97565b8651631ec0b2f760e01b81528a90fd5b855163148fb9a960e31b81528990fd5b8135815260209182019101610d31565b508f80fd5b8d80fd5b8c80fd5b634e487b7160e01b8c5260328852868cfd5b815163ca3487f760e01b81528590fd5b8880fd5b8780fd5b8580fd5b83346104fc57806003193601126104fc57610f34611b0d565b80546001600160a01b03198116825581906001600160a01b03167f8be0079c531659141344cd1fd0a4f28419497f9722a3daafe3b4186f6b6457e08280a380f35b5050346101aa57816003193601126101aa5760209051600a8152f35b5050346101aa57806003193601126101aa576020906104e6610fb2366119f1565b611ba0565b5050346101aa57816003193601126101aa57602090600d549051908152f35b5050346101aa576020906104e6610fec36611af7565b835191610ff883611918565b84368437825284820152611ba0565b8284346104fc57602092836003193601126101aa57803567ffffffffffffffff918282116108435736602383011215610843578181013592831161114757508160051b9084519261105a878401856119cf565b83528583016024819383010191368311610f175791859391602489969401905b82821061113557505086519251858401929150845b81811061111c57505050816110ac9103601f1981018352826119cf565b84519080519084845b8381106111075750505081908101838152039060025afa156110fc577f30644e72e131a029b85045b68181585d2833e84879b9709143e1f593f00000019051069051908152f35b9051903d90823e3d90fd5b828101820151858201528795508691016110b5565b825184528996889650938401939092019160010161108f565b8135815287955090860190860161107a565b634e487b7160e01b845260419052602483fd5b8284346104fc57806003193601126104fc5750600d54600c5482519182526020820152f35b8284346104fc57806003193601126104fc575080517f000000000000000000000000000000000000000000000000000000000000000081527f00000000000000000000000000000000000000000000000000000000000000006020820152f35b905034610283576080366003190112610283573660231215610283578151906112078261197b565b81608491368311610f175760209550905b82821061122b575050506104e690611ca8565b81358152908501908501611218565b905034610283576101a090816003193601126108435761125936611a66565b90836101631936011261027f576112907f000000000000000000000000000000000000000000000000000000000000000042611b65565b7f000000000000000000000000000000000000000000000000000000000000000011156113e757600c5490600e548210156113d95761016435917f30644e72e131a029b85045b68181585d2833e84879b9709143e1f593f0000001808410908115916113cb575b506113bc57600101600c5560018352602061131a61131436611acc565b85611d77565b6012548751631ffc735d60e01b815293840191909152829060249082908a906001600160a01b03165af1801561079757611391575b5061137d7fe2067f06dd7b8159b21a5490f8663f6bb031d9b35ed6d298b5489674cb9cda4b94518093611a32565b61016082015261018435610180820152a180f35b602090813d81116113b5575b6113a781836119cf565b8101031261027f573861134f565b503d61139d565b5084516354be831760e11b8152fd5b9050610184351015386112f7565b8451631ec0b2f760e01b8152fd5b835163148fb9a960e31b8152fd5b8284346104fc57806003193601126104fc575060075460085482519182526020820152f35b919050346102835761142b36611af7565b6114589391937f000000000000000000000000000000000000000000000000000000000000000042611b65565b7f0000000000000000000000000000000000000000000000000000000000000000111561167f57600c54600e5481101561166f57600101600c5560135483516323b872dd60e01b8152338185015230602482015260448101839052602093926001600160a01b03929091908590829060649082908c9088165af18015611665579085939291611648575b508551966114ef88611918565b875282870190815285519661150388611918565b88885286516115118161195e565b84610140998a36843701528884885161152981611918565b828152015286519761153a8961195e565b368937518752518287015260246115b7865161155581611918565b7f171e826ad4a870fd925e0bf0e87884e70e080879c2205ef10114f28a3b6f6dd781527f2bd407d897fbbca9f88adfd2d15252e69de8c1564eb4d3d27162e259172f1a1d858201528751986115a98a611918565b60028a52858a015288611d77565b9160125416938887519586948593631ffc735d60e01b85528401525af1801561163e57611615575b847f935afc7bb7cc33eb3e24e20dcfc75f5b21fa58e9c82cca06435238efaf9a3a586101608661161187518092611a32565ba180f35b813d8311611637575b61162881836119cf565b810103126102835738806115df565b503d61161e565b83513d87823e3d90fd5b61165e90843d86116107d6576107c881836119cf565b50386114e2565b86513d8a823e3d90fd5b8351631ec0b2f760e01b81528390fd5b50905163148fb9a960e31b8152fd5b5050346101aa576101a03660031901126101aa576020906104e66116b136611a66565b6116ba36611acc565b90611d77565b5050346101aa57816003193601126101aa57602090600c549051908152f35b5050346101aa5760603660031901126101aa57906101c091611700366119f1565b91815161170c81611918565b81815282519361171b8561195e565b6101409283368737602095868094015282855161173781611918565b82815201528351926117488461195e565b36843780518352015183820152815161176081611918565b7f171e826ad4a870fd925e0bf0e87884e70e080879c2205ef10114f28a3b6f6dd78152838101917f2bd407d897fbbca9f88adfd2d15252e69de8c1564eb4d3d27162e259172f1a1d83528351946117b686611918565b60443586528501526117d46117cb8286611d77565b93518095611a32565b51610160840152516101808301526101a0820152f35b8284346104fc57806003193601126104fc5750600e54600f5482519182526020820152f35b905034610283578260031936011261028357611829611b0d565b6118537f000000000000000000000000000000000000000000000000000000000000000042611b65565b7f00000000000000000000000000000000000000000000000000000000000000001015610b46576012546010805484516324a47aeb60e01b8152911c60ff16928101929092526020908290602490829087906001600160a01b03165af19182156109cf575082916118e7575b507fc5624680ab5d50c84507f9e0dc2032163de2bda906ab8a661a53dd4d43bd5dc78280a280f35b90506020813d8211611910575b81611901602093836119cf565b810103126101aa5751386118bf565b3d91506118f4565b6040810190811067ffffffffffffffff82111761193457604052565b634e487b7160e01b600052604160045260246000fd5b67ffffffffffffffff811161193457604052565b610140810190811067ffffffffffffffff82111761193457604052565b6080810190811067ffffffffffffffff82111761193457604052565b60a0810190811067ffffffffffffffff82111761193457604052565b6060810190811067ffffffffffffffff82111761193457604052565b90601f8019910116810190811067ffffffffffffffff82111761193457604052565b80602312156104585760405190611a0782611918565b816044918211610458576004905b828210611a225750505090565b8135815260209182019101611a15565b805182526020808092015192016000905b600a8210611a515750505050565b82806001928651815201940191019092611a43565b906101606003198301126104585760405191611a8183611918565b82600435815281604312156104585760405191611a9d8361195e565b82610164918211610458576024905b828210611abc5750505060200152565b8135815260209182019101611aac565b6040906101631901126104585760405190611ae682611918565b610164358252610184356020830152565b6040906003190112610458576004359060243590565b6000546001600160a01b03163303611b2157565b606460405162461bcd60e51b815260206004820152602060248201527f4f776e61626c653a2063616c6c6572206973206e6f7420746865206f776e65726044820152fd5b91908203918211611b7257565b634e487b7160e01b600052601160045260246000fd5b90816020910312610458575180151581036104585790565b6040516314d2f97b60e11b815290600090600483015b60028310611c2a5750505060208160448173__$8658d3171857788947ecb1d152a017ec62$__5af4908115611c1e57600091611bf0575090565b906020823d8211611c16575b81611c09602093836119cf565b810103126104fc57505190565b3d9150611bfc565b6040513d6000823e3d90fd5b600190825181526020809101920192019190611bb6565b6040516304b98e1d60e31b815290600090600483015b60038310611c915750505060208160648173__$90b9196d445cf176c504004dde0b0062ce$__5af4908115611c1e57600091611bf0575090565b600190825181526020809101920192019190611c57565b60405163248f667760e01b81529060049060008284015b838210611cf9575050505060208160848173__$f67ed442b9d6bc4da64e961e2430b82eb6$__5af4908115611c1e57600091611bf0575090565b600190835181526020809101930191019091611cbf565b604051630926f44b60e31b815290600090600483015b60058310611d605750505060208160a48173__$d643f7f71d754779bfbed637a90c4a7526$__5af4908115611c1e57600091611bf0575090565b600190825181526020809101920192019190611d26565b906020808301916040805194611d8c86611997565b60a0368737845151865283855101518487015281855101518287015260608551015160608701526080855101516080870152610120825195611dcd87611997565b60a036883760a081510151875260c0815101518688015260e08151015184880152610100815101516060880152510151608086015281519460a0860186811067ffffffffffffffff82111761193457611e5297611e3b93611e32928652518852611d10565b85870152611d10565b908401528051606084015201516080820152611d10565b9056fea26469706673582212202e780734c8142915b2707cdf804ba8a3584f3f4c36564eb54aae64c4054a01ea64736f6c6343000814003360e0346200065c57601f620022ae38819003918201601f19168301916001600160401b0383118484101762000661578084926020946040528339810103126200065c5751600054906040513360018060a01b0384167f8be0079c531659141344cd1fd0a4f28419497f9722a3daafe3b4186f6b6457e0600080a381156200064d5750602081116200062e576001600160a81b03199091163360ff60a01b1916176000556080819052600560a052620000b79062000677565b60c0527f12817f4161f2f5ded33f26c55735a77e80e4f8975483c8c2704745128417f711610172557f1c8de1edeabc24fc4c1595acaabb70be9b70f351d58c6fa338e1e9a994413bfb610173557f22fcda488c14b34fc60eb073fbe92fe10793e2ab14682e0f057332ddbef3d55c610174557f2db474db7c7212646cb15c6177d87be30711e6c04f1139d8e495ef1d1d998227610175557efde404053ec39a19f6ac347121a2264815dda84f910a388cb372e967a5d08c610176557f0723792ffab6ec6cfb3ece1509b9b4fb07e5bdb2299d1538e6e1db916f90cf89610177557f2a4392ec4e3d1811cd6a950cc865ee6f2342910a6551c5dce38cb995576c7c70610178557f1dead4c14f75e9d8449c80b648dcd4694c2ee50da2ba16e5e438f0d77ab02e34610179557f124c53ce0953fffb7ab5e3c143df6cd48ba747d3959fcb8086405d763ed5455061017a557f02bae19605746a8cd3f0927b2c01630f36f4d1bab9216ca839833e7ff6efa20661017b557f1f8375099becf17173d457d0d07bfb74c7067df1143b5ad987046e8e66817bc961017c557f0e13e954d61bb3fa3b03e7d136ca909b610fa2ca4443d920d94d16684f2b83d461017d557f1416ef2fc4f88fcfc4f9eb12f8e214b1c3e31c6c10ece9cfa51f078a3bbf345761017e557f032f915ff71e198a7955d2697249f40fb94c65812ed24e670c9700f52fdf6e0e61017f557f08bfebf4b3ddb0f8c51dd40193f5996da9f3d799ee0d8beb6be4038132df60b4610180557f065ac498cf4a5acaeb3b6cee826da9f834c961fa39feff6ae925b90dff79b613610181557f2e72c628101a93201b912a3e3fe96d39b0a9076ec39b7935a015c59bb32b8a2a610182557f19bba68e7b9da1e6ec42e52d7ab2adaf3b6a5521b1a454ec70f62e0ab702c085610183557f0de1f72745a5af2a34cac412e00eb6c8b5db1f3b52fa1bff88076c2726b83b08610184557f2e8f152603b2fac10d6a14c841327c23c502537367ccb1e42fab9a3bd9db2a8d610185557f14e16c3e0dcfd7e621a32627ebf37f6c0afb4467d34c7b7aeffded11769dec85610186557f0be1e62127948b4805c85a1d836574f0892ca6473fcde98f3fd1781248a9768f610187557f0930288fbd7c849197c8372f1dd8f9087f8a03f09b9cd904a469c15ef6b1b515610188557f231cac34e215e3f404d2fcfb79e0705deeb3d40978f0ee31072f6cbc1b579e33610189557f2e0e3cd2718ac7199b81dc14e841de40a9536b7ffe95fa1fc9c6b799e43e2c9761018a557f0718452506f0a232e98966d84b1a4675a66bd80263a2dc58bdac873825752fc361018b557f162d4ed998307d6e132edbf5c11f62f53d4636aa10cb3c2244c2bf5577168c3761018c557f247d6a5544a8f295a894ae77c7efcdcbf52e3bf4e5d0c0d2f40557a61d44984861018d557f0b8de3868471f109e91670daca698dba917d1c5535821f33aa9598d1db8e3d1961018e557f29851997020f527c92e20f030d232b81d334144a641e6a8866b46dd925005bbb61018f557f1a9cfcbe29a2b6503a03049727c0bca3111afd62f2836f392080321d1b4ef642610190557f1aa3ead91fa89cc1d6cb1d0eb76a27190c6abfdd3265d6d0a1e5c58feddaddf6610191557f0702fc26a7d367e6677efefd95204a7e00144c2fc7dbc2a581aa00d99f51f08161019255604051611ba990816200070582396080518181816102980152818161031201528181610c7b015281816110cf015281816111c5015281816114610152818161158d015281816115fb015261199b015260a05181818161046801528181610d22015281816110a5015281816111ee015281816113400152818161140b01528181611717015281816118010152611978015260c0518181816102690152818161055701528181610c4401526113a90152f35b60449060405190637ccdcc9760e11b8252600482015260206024820152fd5b63682e504160e11b8152600490fd5b600080fd5b634e487b7160e01b600052604160045260246000fd5b8015620006fe57600190602081108216604e8210831617620006f65781906005925b808211620006c957505081600019048111620006b3570290565b634e487b7160e01b600052601160045260246000fd5b909280600019048111620006b357818416620006ec575b800292811c9062000699565b80920291620006e0565b905060050a90565b5060019056fe60406080815260048036101561001457600080fd5b600091823560e01c80631b9b8aa714610d065780631ffc735d14610beb57806324a47aeb14610bc35780633bfa6fce14610ba65780633dfb88b214610ac85780633e1a8cc114610a8e57806358bfc379146109375780635bb93995146109065780635bf1fa4d1461089057806362a361bb1461083657806369e7c5861461080e578063715018a6146107b457806381d6a24a1461078e5780638da5cb5b146107665780639cfced971461070b578063a27154ba146106f0578063b6a64acd146106cb578063bea140b3146105a7578063c00bdbcc14610516578063c15da65b146104ee578063d9c55ce114610242578063dda89a6e1461021e578063e93fb4d4146101f45763f2fde38b1461012857600080fd5b346101f05760203660031901126101f0576001600160a01b038235818116939192908490036101ec57610159610e24565b831561019a57505082546001600160a01b0319811683178455167f8be0079c531659141344cd1fd0a4f28419497f9722a3daafe3b4186f6b6457e08380a380f35b906020608492519162461bcd60e51b8352820152602660248201527f4f776e61626c653a206e6577206f776e657220697320746865207a65726f206160448201526564647265737360d01b6064820152fd5b8480fd5b8280fd5b50823461021b57602036600319011261021b575061021460209235611b2e565b9051908152f35b80fd5b83823461023e578160031936011261023e57602090610171549051908152f35b5080fd5b5082903461023e578160031936011261023e5761025d610e24565b6101719081549061028f7f00000000000000000000000000000000000000000000000000000000000000008093610e7c565b610310576102bc7f0000000000000000000000000000000000000000000000000000000000000000611b62565b90600154855261014c6020528420555b600154600181018091116102fd5790816102e892600155611023565b90558061016f5561016e60ff19815416905580f35b634e487b7160e01b845260118552602484fd5b7f0000000000000000000000000000000000000000000000000000000000000000845b81811061039c575060218110156103895760021b6002015490600154855261014c6020528420558360025b60868110610375575050610370610ff0565b6102cc565b6103818282018261100c565b01849061035e565b634e487b7160e01b855260328652602485fd5b6021811015806103c95781608601908154806103dc575b506103c95790866103c49255611071565b610333565b634e487b7160e01b875260328852602487fd5b9585979193959894929851976103f189610dcb565b60a0368a376103ff87611b62565b93865b60ff81168a811015610458578761044457908b61043961043f9361042c848e600290811b01611061565b90549060031b1c926117cb565b526117ba565b610402565b50634e487b7160e01b885260328d52602488fd5b509b9796959a94999850919290927f00000000000000000000000000000000000000000000000000000000000000009b5b60ff81168d8110156104a957908b6104396104a4938d6117cb565b610489565b5050979098506104bf9195949992969a50610f3d565b60018401908185116104db57906104d5916111c2565b896103b3565b634e487b7160e01b8a5260118b5260248afd5b50503461023e57602036600319011261023e576105139061050d610e24565b3561138b565b80f35b50346101f05760203660031901126101f057610530610e24565b600154835261014c60205281359083205561054c600154611071565b6001556101718054917f000000000000000000000000000000000000000000000000000000000000000083018093116105945750558061016f5561016e60ff19815416905580f35b634e487b7160e01b845260119052602483fd5b50346101f05760603660031901126101f05736602312156101f05780516060810181811067ffffffffffffffff8211176106b8578252806064913683116106b457849194905b8382106106a457505082516304b98e1d60e31b815293849186919083015b6003831061068a575050506020918173__$90b9196d445cf176c504004dde0b0062ce$__5af4918215610680578392610649575b6020838351908152f35b9091506020813d8211610678575b8161066460209383610de7565b810103126101f0576020925051903861063f565b3d9150610657565b81513d85823e3d90fd5b81518152869350600192909201916020918201910161060b565b81358152602091820191016105ed565b8580fd5b634e487b7160e01b855260418452602485fd5b83823461023e578160031936011261023e5760209060ff61016e541690519015158152f35b83823461023e578160031936011261023e5760209051818152f35b5090346101f05760a03660031901126101f05736602312156101f05781519061073382610dcb565b8160a4913683116106b45760209550905b8282106107575750505061021490610f3d565b81358152908501908501610744565b83823461023e578160031936011261023e57905490516001600160a01b039091168152602090f35b50823461021b578060031936011261021b57506101705460015482519182526020820152f35b833461021b578060031936011261021b576107cd610e24565b80546001600160a01b03198116825581906001600160a01b03167f8be0079c531659141344cd1fd0a4f28419497f9722a3daafe3b4186f6b6457e08280a380f35b83823461023e578160031936011261023e5760209060ff61016e5460081c1690519015158152f35b5090346101f057816003193601126101f05736602312156101f05781519061085d82610d99565b816044913683116106b45760209550905b8282106108815750505061021490610e9c565b8135815290850190850161086e565b50823461021b576108a036610e09565b908351926108ad84610dcb565b60a036853760218210156108f35750906005602095610214949360021b908160020154855260038201548886015281015486850152015460608301526080820152610f3d565b634e487b7160e01b815260328652602490fd5b83823461023e5760209061021461091c36610e09565b83519161092883610d99565b84368437825284820152610e9c565b50823461021b576020928360031936011261023e57803567ffffffffffffffff91828211610a8a5736602383011215610a8a5781810135928311610a7757508160051b9084519261098a87840185610de7565b835285830160248193830101913683116106b45791859391602489969401905b828210610a6557505086519251858401929150845b818110610a4c57505050816109dc9103601f198101835282610de7565b84519080519084845b838110610a375750505081908101838152039060025afa15610a2c577f30644e72e131a029b85045b68181585d2833e84879b9709143e1f593f00000019051069051908152f35b9051903d90823e3d90fd5b828101820151858201528795508691016109e5565b82518452899688965093840193909201916001016109bf565b813581528795509086019086016109aa565b634e487b7160e01b845260419052602483fd5b8380fd5b50823461021b578060031936011261021b575060ff61016e541615610abb5760209061016f549051908152f35b51631e596e4360e11b8152fd5b50346101f05760803660031901126101f05736602312156101f0578051916080830183811067ffffffffffffffff821117610b93578252608490833683116106b457819491905b838210610b83575050825163248f667760e01b8152938491868284015b838210610b6957505050506020918173__$f67ed442b9d6bc4da64e961e2430b82eb6$__5af4918215610680578392610649576020838351908152f35b825181528794506020928301926001929092019101610b2c565b8135815260209182019101610b0f565b634e487b7160e01b855260418252602485fd5b83823461023e578160031936011261023e5760209061021461133a565b50823461021b57602036600319011261021b5750610214602092610be5610e24565b35611953565b50346101f05760203660031901126101f057610c05610e24565b61017192835492610c1681356110a2565b600194858501808611610cf3578155610c6990610c31610ff0565b8361016f5561016e60ff198154169055547f000000000000000000000000000000000000000000000000000000000000000090610e7c565b15610c79575b6020848451908152f35b7f0000000000000000000000000000000000000000000000000000000000000000906021821015610ce05750819060021b60020180548654835261014c60205284832055610cc78654611071565b86555560865b60a7811015610c6f578181558401610ccd565b634e487b7160e01b835260329052602482fd5b634e487b7160e01b845260118352602484fd5b50823461021b57602036600319011261021b57823590610d46827f0000000000000000000000000000000000000000000000000000000000000000611293565b61017154809110610d7e57506021821015610d6b576020838361014d01549051908152f35b634e487b7160e01b815260328452602490fd5b8460449184865192627289df60e61b84528301526024820152fd5b6040810190811067ffffffffffffffff821117610db557604052565b634e487b7160e01b600052604160045260246000fd5b60a0810190811067ffffffffffffffff821117610db557604052565b90601f8019910116810190811067ffffffffffffffff821117610db557604052565b6040906003190112610e1f576004359060243590565b600080fd5b6000546001600160a01b03163303610e3857565b606460405162461bcd60e51b815260206004820152602060248201527f4f776e61626c653a2063616c6c6572206973206e6f7420746865206f776e65726044820152fd5b8115610e86570690565b634e487b7160e01b600052601260045260246000fd5b6040516314d2f97b60e11b815290600090600483015b60028310610f265750505060208160448173__$8658d3171857788947ecb1d152a017ec62$__5af4908115610f1a57600091610eec575090565b906020823d8211610f12575b81610f0560209383610de7565b8101031261021b57505190565b3d9150610ef8565b6040513d6000823e3d90fd5b600190825181526020809101920192019190610eb2565b604051630926f44b60e31b815290600090600483015b60058310610f8d5750505060208160a48173__$d643f7f71d754779bfbed637a90c4a7526$__5af4908115610f1a57600091610eec575090565b600190825181526020809101920192019190610f53565b60405190610fb182610dcb565b60a0368337565b60405190610fc582610d99565b6040368337565b9060018201809211610fda57565b634e487b7160e01b600052601160045260246000fd5b61014d5b61016e81106110005750565b60008155600101610ff4565b818110611017575050565b6000815560010161100c565b81810292918115918404141715610fda57565b602181101561104b5760021b60a70190600090565b634e487b7160e01b600052603260045260246000fd5b600482101561104b570190600090565b6000198114610fda5760010190565b602181101561104b5761012b0190600090565b600019810191908211610fda57565b907f00000000000000000000000000000000000000000000000000000000000000006000198101908111917f000000000000000000000000000000000000000000000000000000000000000060005b602181101561104b57806086019585875490610fda5785810361117957509060006111749261116d60406006611165825161112b81610dcb565b60a036823760029588871b809701948554835260038801546020840152600488015490830152600587015460608301526080820152610f3d565b93019061100c565b9755611071565b6110f1565b6111939192949796506111ac939550600285811b01611061565b90919082549060031b91821b91600019901b1916179055565b036111b45750565b6111be8154611071565b9055565b917f000000000000000000000000000000000000000000000000000000000000000090818311611281577f0000000000000000000000000000000000000000000000000000000000000000916000198301928311935b602181101561126c578060860195858754906112575785810361117957509060006112529261116d60406006611165825161112b81610dcb565b611218565b60246000634e487b7160e01b81526011600452fd5b60246000634e487b7160e01b81526032600452fd5b60405163d1459f7960e01b8152600490fd5b90801561133357811561132c578180600114611324576002146113135760208110610133831016604e8210600b8410161761130e57600190815b8082116112e557505081600019048111610fda570290565b909280600019048111610fda57818416611305575b800292811c906112cd565b809202916112fa565b900a90565b905060ff8111610fda576001901b90565b505050600190565b5050600090565b5050600190565b600180547f000000000000000000000000000000000000000000000000000000000000000092915b8161136d8286611293565b10156113865761137f61136d91611071565b9050611362565b925050565b60ff9061016e91808354166117a857610171908154908115611796577f0000000000000000000000000000000000000000000000000000000000000000916113d38382610e7c565b611571575b50505050600190815482811461151657506113f161133a565b90826000610170928354925b6114ae575b50505061142f827f0000000000000000000000000000000000000000000000000000000000000000611293565b9054835480911461145c575b5050602181101561104b5760021b60a7015461016f5560ff19825416179055565b6114857f0000000000000000000000000000000000000000000000000000000000000000611b62565b905b828110611494575061143b565b6114a9906114a4856000856117dc565b611071565b611487565b85548310156115115780151580611508575b6114ff576114f86114f287936114e18860006114dc8a54611b2e565b6117dc565b6114eb8754611071565b8755611071565b93611071565b92916113fd565b50505050505050565b508082146114c0565b611402565b905015611558576000805261014c6020527f2f1ae789e51094ec473affec14fe3c88a47d4230101ae4544eefebff81efc6d75461016f55815460ff1916179055565b60405163042a2e7160e11b815260006004820152602490fd5b826115839161157e610e24565b610e7c565b6115f957506115b17f0000000000000000000000000000000000000000000000000000000000000000611b62565b60015460005261014c6020526040600020555b6001549060018201809211610fda57816115e092600155611023565b9055600061016f55815460ff19168255388080806113d8565b7f00000000000000000000000000000000000000000000000000000000000000009060005b828110611677575050602181101561104b5760021b6002015460015460005261014c60205260406000205560025b60868110611662575061165d610ff0565b6115c4565b8061167160048093018261100c565b0161164c565b6021811015908161104b5780608601918254806116a5575b5061104b5760006116a09255611071565b61161e565b999792989394604097929796919651986116be8a610dcb565b60a0368b376116cc89611b62565b956000955b8689168e811015611705578a61104b57878f986104398f91938f6116fe9561042c91600290811b01611061565b96506116d1565b5092959c50929a97959998969a9390937f00000000000000000000000000000000000000000000000000000000000000009c5b808d168e811015611764578e9695949392918d610439611758938f6117cb565b90919293949550611738565b5050979496939b509761177c91995099949199610f3d565b60018301808411610fda57611790916111c2565b3861168f565b6040516316a0341160e11b8152600490fd5b604051630d36aec160e01b8152600490fd5b60ff1660ff8114610fda5760010190565b90600581101561104b5760051b0190565b929180821161194d576117fb6117f183611080565b90549060031b1c90565b906118257f0000000000000000000000000000000000000000000000000000000000000000611093565b821461187a57509061184b61187893946111936118509461184585611036565b50611061565b611080565b6118616114a48284549060031b1c90565b825460001960039390931b92831b1916911b179055565b565b9190600061188d815460ff9060a01c1690565b156118e95750506118e36118bf61187894956118a7610fb8565b906118b185611036565b505482526020820152610e9c565b915b6118de6118cd82611080565b8154906000199060031b1b19169055565b610fcc565b906117dc565b926118f695949195610fa4565b935b60ff81168781101561192857906119239161043961191c6117f1846118458a611036565b91886117cb565b6118f8565b50509261194790611878956119416118e39498836117cb565b52610f3d565b916118c1565b50509050565b8015611b1c5760ff9061016e8281541615611b0a57602092838311611aec57610171547f000000000000000000000000000000000000000000000000000000000000000094907f00000000000000000000000000000000000000000000000000000000000000005b816119c68289611293565b10156119df576119d86119c691611071565b90506119bb565b9394955050828510611acf57848303611a1a5750505061016f5491602181101561104b5761014d01829055805461ff00191661010017905590565b61016f5495949291905b838310611a4d57505050602181101561104b5761014d01839055805461ff001916610100179055565b909195611a9690611a5d88611b62565b60005460a0929190831c861615611a9d57611a909250604091825192611a8284610d99565b368437825284820152610e9c565b96611071565b9190611a24565b80611a909392604090815194611ab286610dcb565b368637845281878501528301528060608301526080820152610f3d565b6044858460405191627289df60e61b835260048301526024820152fd5b6044838560405191632cd31ae960e01b835260048301526024820152fd5b604051631e596e4360e11b8152600490fd5b604051630543d40760e11b8152600490fd5b806001541115611b4a5760005261014c60205260406000205490565b6024906040519063042a2e7160e11b82526004820152fd5b602181101561104b5761017201549056fea2646970667358221220aa888649b567f909a5bfd0859bac877470e2663f3b10aff1e5ca5ba44b6eb0b164736f6c63430008140033a2646970667358221220ceca36f53c6288a87b8bb5deb2a4e38c076632a986925e6ac7048e4028ef9a6664736f6c63430008140033",
  "libraries": {
    "PoseidonT3": "0x47076a871Ae4e442784dff8BCB42E3E4E440D519",
    "PoseidonT4": "0xFa21436084377C74855b2DB9CFe7322a4DDC1c3C",
    "PoseidonT5": "0xAf8D2aF5AB9654e4818142c6511754771c8064A5",
    "PoseidonT6": "0x2D610532b8e16e950DD853572Fee9493d3c33962"
  },
  "devdoc": {
    "kind": "dev",
    "methods": {
      "deploy(uint256,(uint256,uint256),(uint8,uint8,uint8,uint8),(uint256,uint256),address,address,address)": {
        "params": {
          "_coordinatorPubKey": "The coordinator's public key",
          "_duration": "The duration of the poll",
          "_maci": "The MACI contract interface reference",
          "_maxValues": "The max values for the poll",
          "_pollOwner": "The owner of the poll",
          "_topupCredit": "The TopupCredit contract",
          "_treeDepths": "The depths of the merkle trees"
        },
        "returns": {
          "pollAddr": "The deployed Poll contract"
        }
      }
    },
    "title": "PollFactory",
    "version": 1
  },
  "userdoc": {
    "kind": "user",
    "methods": {
      "MESSAGE_DATA_LENGTH()": {
        "notice": "the length of a MACI message"
      },
      "constructor": {
        "notice": "The PollFactory constructor"
      },
      "deploy(uint256,(uint256,uint256),(uint8,uint8,uint8,uint8),(uint256,uint256),address,address,address)": {
        "notice": "Deploy a new Poll contract and AccQueue contract for messages."
      }
    },
    "notice": "A factory contract which deploys Poll contracts. It allows the MACI contract size to stay within the limit set by EIP-170.",
    "version": 1
  },
  "storageLayout": {
    "storage": [],
    "types": null
  }
}