{
  "address": "0x9ecb939F179A37241eD2E383Ea36D30336F1964E",
  "abi": [
    {
      "inputs": [
        {
          "internalType": "address",
          "name": "_verifier",
          "type": "address"
        },
        {
          "internalType": "address",
          "name": "_vkRegistry",
          "type": "address"
        },
        {
          "internalType": "address",
          "name": "_poll",
          "type": "address"
        },
        {
          "internalType": "address",
          "name": "_messageProcessor",
          "type": "address"
        },
        {
          "internalType": "address",
          "name": "_owner",
          "type": "address"
        },
        {
          "internalType": "bool",
          "name": "_isQv",
          "type": "bool"
        }
      ],
      "name": "deploy",
      "outputs": [
        {
          "internalType": "address",
          "name": "tallyAddr",
          "type": "address"
        }
      ],
      "stateMutability": "nonpayable",
      "type": "function"
    }
  ],
  "transactionHash": "0xda012055dc25a60649b0f0d41a14dd70f861d741dfb79bac5642427d8d572709",
  "args": [],
  "numDeployments": 2,
  "solcInputHash": "79ae3e088114d792164a9068ef4ed3b4",
  "bytecode": "0x6080806040523461001657612399908161001c8239f35b600080fdfe6080604090808252600436101561001557600080fd5b600091823560e01c63f68abb591461002c57600080fd5b3461017b5760c036600319011261017b576004356001600160a01b038181169182900361014f57602435938185168095036101775760443592828416809403610173576064359383851680950361016f576084359484861680960361016b5760a43591821515809303610167576121e4988986019467ffffffffffffffff9a8787108c88111761015357918795939160a0979593610180883985526020850152898401526060830152608082015203019086f08015610145571692833b1561014f5782519163f2fde38b60e01b83526004830152848260248183885af180156101455761011e575b6020848451908152f35b8111610131576020935081523880610114565b634e487b7160e01b84526041600452602484fd5b83513d87823e3d90fd5b8480fd5b634e487b7160e01b8d52604160045260248dfd5b8980fd5b8880fd5b8780fd5b8680fd5b8580fd5b8280fdfe610120601f620021e438819003918201601f19168301916001600160401b03831184841017620001865780849260a094604052833981010312620001815762000048816200019c565b9062000057602082016200019c565b62000065604083016200019c565b91608062000076606083016200019c565b9101519384151585036200018157600054933360018060a01b03198616176000556040519460018060a01b03948580948193823391167f8be0079c531659141344cd1fd0a4f28419497f9722a3daafe3b4186f6b6457e0600080a3166080521660a0521660c0521660e0526101009182526120329182620001b2833960805182818161084801528181610e7501526111db015260a051828181610755015281816110ec01526116f2015260c05182818161022f0152818161057a015281816106630152610ee0015260e05182818161036a01528181610f4401526115f9015251818181610461015281816104aa015281816106cd01528181610de40152818161106301526117610152f35b600080fd5b634e487b7160e01b600052604160045260246000fd5b51906001600160a01b0382168203620001815756fe60c060408181526004908136101561001657600080fd5b600092833560e01c90816310bc5f51146117215750806313fb8932146116dd57806316425eeb146115ce57806323e3feb114610ea45780632b7ac3f314610e605780632d966bf414610dc75780633dfb88b214610ca757806358bfc37914610c1b5780635bb9399514610bf85780636175029314610bd957806362a361bb14610b7f5780636b148b6014610b60578063715018a614610b065780637485dba11461062c5780638da5cb5b146106045780639cfced97146105a9578063a117527914610565578063a21fb51114610486578063a5a31c0814610449578063afb93bd31461042a578063b03698f2146103ff578063bea140b314610399578063d0380fe214610355578063d13181b814610332578063e3ff76061461020e5763f2fde38b1461014257600080fd5b3461020a57602036600319011261020a576001600160a01b0382358181169391929084900361020657610173611911565b83156101b457505082546001600160a01b0319811683178455167f8be0079c531659141344cd1fd0a4f28419497f9722a3daafe3b4186f6b6457e08380a380f35b906020608492519162461bcd60e51b8352820152602660248201527f4f776e61626c653a206e6577206f776e657220697320746865207a65726f206160448201526564647265737360d01b6064820152fd5b8480fd5b8280fd5b50903461020a578260031936011261020a57815163ac98e5df60e01b8152827f00000000000000000000000000000000000000000000000000000000000000006001600160a01b03166080838581845afa9283156103285786936102f5575b508151634f367f0f60e01b815293849182905afa9182156102e857602094926102b4575b506102ab906102a560ff6002549216611a65565b90611ad4565b10159051908152f35b6102ab9192506102d990843d86116102e1575b6102d181836118d7565b810190611a4f565b509190610291565b503d6102c7565b50505051903d90823e3d90fd5b61031791935060803d8111610321575b61030f81836118d7565b810190611a11565b505050913861026d565b503d610305565b82513d88823e3d90fd5b8382346103515781600319360112610351576020906003549051908152f35b5080fd5b838234610351578160031936011261035157517f00000000000000000000000000000000000000000000000000000000000000006001600160a01b03168152602090f35b50903461020a57606036600319011261020a57366023121561020a578151906103c1826118bb565b816064913683116103fb5760209550905b8282106103ec575050506103e590611f0c565b9051908152f35b813581529085019085016103d2565b8580fd5b50823461042757606036600319011261042757506103e5602092604435906024359035611969565b80fd5b8382346103515781600319360112610351576020906002549051908152f35b838234610351578160031936011261035157602090517f000000000000000000000000000000000000000000000000000000000000000015158152f35b508234610427576104a8610499366117fe565b97949295918997919750611c8e565b7f00000000000000000000000000000000000000000000000000000000000000001561053057855194606086019086821067ffffffffffffffff83111761051d575086526020965061050f9493929161050091611fda565b83528583015283820152611f0c565b60015414905b519015158152f35b634e487b7160e01b815260418952602490fd5b92506020955061055b93506105509085519361054b8561186d565b611fda565b825284820152611e77565b6001541490610515565b838234610351578160031936011261035157517f00000000000000000000000000000000000000000000000000000000000000006001600160a01b03168152602090f35b50903461020a5760a036600319011261020a57366023121561020a578151906105d18261189f565b8160a4913683116103fb5760209550905b8282106105f5575050506103e590611f73565b813581529085019085016105e2565b838234610351578160031936011261035157905490516001600160a01b039091168152602090f35b5082903461035157610180366003190112610351576101049236841161020a57815163ac98e5df60e01b81526001600160a01b03947f000000000000000000000000000000000000000000000000000000000000000086166080838581845afa928315610afc5786908794610ad6575b50855193849263bc14ee2b60e01b8452838760609788935afa928315610acc57908995949392918993610a71575b507f000000000000000000000000000000000000000000000000000000000000000015610a695788915b88519363194b1db960e21b855284898160209e8f94165afa938415610a5f578a94610a22575b5088516310b37e4d60e01b815260ff948516898201529084166024820152921660448301526002811015610a0f5760648201528681608481877f0000000000000000000000000000000000000000000000000000000000000000165afa908115610a05579086929188916108db575b509185939160808a96946108156101649561014496610140610124966101006107b884358c358b358535611ae7565b99516308adcb2560e21b81529e8f9d8e01378b01528a6103248b01988551908151908d01520151908a01526107f58a8401516101848b0190611c4c565b6108078c8401516102048b0190611c4c565b820151610284890190611c4c565b0151926101e061030487015283518091528661034487019401908a5b8a8282106108ba57505050508401528290039082907f0000000000000000000000000000000000000000000000000000000000000000165afa9283156108af5792610880575b50519015158152f35b6108a1919250833d85116108a8575b61089981836118d7565b810190611b66565b9083610877565b503d61088f565b8251903d90823e3d90fd5b8351805188528a01518a8801528d998b995096019590920191600101610831565b919250503d8088833e6108ee81836118d7565b81018882820312610a0157815167ffffffffffffffff928382116109fd5701916101e0838303126109f9578751926109258461189f565b61092f8382611b7e565b845261093d838a8301611beb565b8b85015261094e8360c08301611beb565b89850152610960836101408301611beb565b868501526101c08101519182116109fd570181601f820112156109f9578051610988816118f9565b926109958a5194856118d7565b8184528b8085019260061b840101928184116109f557908c808c98979695949301925b8484106109d2575050505050906080918282015290610789565b6109e38385969798999a9495611b7e565b8152019201908c8b97969594936109b8565b8b80fd5b8880fd5b8980fd5b8780fd5b86513d89823e3d90fd5b634e487b7160e01b885260218652602488fd5b9093508a81813d8311610a58575b610a3a81836118d7565b810103126109fd579060ff610a4f8193611a03565b9491925061071a565b503d610a30565b89513d8c823e3d90fd5b6001916106f4565b85809750819394509194953d8311610ac5575b610a8e81836118d7565b81010312610a015780519089821682036109f95760208101518a8116036109f95787015189811603610a015790889493928a6106ca565b503d610a84565b87513d8a823e3d90fd5b9050610af191935060803d81116103215761030f81836118d7565b94929150508861069c565b85513d88823e3d90fd5b8334610427578060031936011261042757610b1f611911565b80546001600160a01b03198116825581906001600160a01b03167f8be0079c531659141344cd1fd0a4f28419497f9722a3daafe3b4186f6b6457e08280a380f35b838234610351576020906103e5610b76366117db565b92919091611ae7565b50903461020a578160031936011261020a57366023121561020a57815190610ba68261186d565b816044913683116103fb5760209550905b828210610bca575050506103e590611e77565b81358152908501908501610bb7565b8382346103515781600319360112610351576020906001549051908152f35b508234610427578160031936011261042757506103e56020926024359035611fda565b50903461020a57602092836003193601126104275781359167ffffffffffffffff8311610351573660238401121561035157820135610c59816118f9565b92610c66855194856118d7565b81845260248685019260051b820101923684116104275750906024869201905b838210610c985782866103e587611dbe565b81358152908201908201610c86565b503461020a57608036600319011261020a57366023121561020a578051916080830183811067ffffffffffffffff821117610db4578252608490833683116103fb57819491905b838210610da4575050825163248f667760e01b8152938491868284015b838210610d8a57505050506020918173Af8D2aF5AB9654e4818142c6511754771c8064A55af4918215610d80578392610d49575b6020838351908152f35b9091506020813d8211610d78575b81610d64602093836118d7565b8101031261020a5760209250519038610d3f565b3d9150610d57565b81513d85823e3d90fd5b825181528794506020928301926001929092019101610d0b565b8135815260209182019101610cee565b634e487b7160e01b855260418252602485fd5b5082346104275750610dd8366117fe565b989691909592969493947f000000000000000000000000000000000000000000000000000000000000000015610e52575093610e4796936020999693610e2193610e3e97611c8e565b90865194610e2e866118bb565b6060368737855287850152611fda565b83820152611f0c565b600154149051908152f35b8851630280e1e560e61b8152fd5b838234610351578160031936011261035157517f00000000000000000000000000000000000000000000000000000000000000006001600160a01b03168152602090f35b503461020a5761012036600319011261020a57610124913683116115ca57610eca611911565b8151634909229f60e01b81526001600160a01b037f00000000000000000000000000000000000000000000000000000000000000008116939182818581885afa90811561124257879088926115aa575b50420342811161159757111561158957610f32611911565b81516321d8f43160e21b8152602091907f000000000000000000000000000000000000000000000000000000000000000082169083818781855afa90811561157f578991611562575b501561155257828591600354156114ee575b5050835163ac98e5df60e01b80825296915060809081818881865afa9081156114e457610fc59160ff918c916114c4575b5016611a65565b9760025497610fd48a8a611ad4565b996001809a01600255875191634f367f0f60e01b835288838b81895afa928315611388578d936114a4575b50828c101561149457908c969594939291895190815284818c81895afa90811561148a5788908992611467575b508a5163bc14ee2b60e01b8152606097889082908f9082905afa90811561145d578b8f928f8f9695948e8e9581946113fc575b50507f0000000000000000000000000000000000000000000000000000000000000000156113f657508d965b5163194b1db960e21b81529384928391165afa9a8b156113eb578e918e919c6113a5575b50516310b37e4d60e01b815260ff9b8c1691810191909152908a1660248201529816604489015260028110156113925760648801528c87608481897f0000000000000000000000000000000000000000000000000000000000000000165afa968715611388578d9761126b575b509a879593969492918a359c611133928e92611ae7565b908c89519788966308adcb2560e21b88528c8801602461010091376101048801610140905261032488019589825180516101448c015201516101648a0152898201516101848a0161118391611c4c565b8c8201516102048a0161119591611c4c565b81015161028489016111a691611c4c565b01519361030487016101e0905284518091528761034488019501915b8d8c83831061124c5750505050508401528290039082907f0000000000000000000000000000000000000000000000000000000000000000165afa918215611242578792611225575b5050156112185750505580f35b516341acf34d60e01b8152fd5b61123b9250803d106108a85761089981836118d7565b388061120b565b83513d89823e3d90fd5b8451805189528b01518b8901528c9a8c9a5097019690930192016111c2565b9096503d808e833e61127d81836118d7565b8101888282031261138457815167ffffffffffffffff928382116113805701916101e08383031261137c578a51926112b48461189f565b6112be8382611b7e565b84526112cc838d8301611beb565b8b8501526112dd8360c08301611beb565b8c8501526112ef836101408301611beb565b888501526101c0810151918211611380570181601f8201121561137c578051611317816118f9565b926113248d5194856118d7565b8184528b8085019260061b84010192818411611376578c808f9201935b85851061135e57505050505085830191909152509561113361111c565b6113688486611b7e565b8152019201918c8e91611341565b50508f80fd5b8e80fd5b8f80fd5b8d80fd5b89513d8f823e3d90fd5b634e487b7160e01b8e5260218b5260248efd5b9b505050908a8a813d83116113e4575b6113bf81836118d7565b810103126113805760ff80928e828f9d6113d890611a03565b9d9294955050916110af565b503d6113b5565b8d51903d90823e3d90fd5b9661108b565b98505050505050508783813d8311611456575b61141981836118d7565b810103126109fd578251928984168403611452578b8101518a811603611452578c0151898116036109fd57888b8f8f8f96918e3861105f565b8a80fd5b503d61140f565b8c513d8c823e3d90fd5b90506114809150853d87116103215761030f81836118d7565b929150503861102c565b8a513d8a823e3d90fd5b885163b3f8c18960e01b81528a90fd5b6114bc919350893d8b116102e1576102d181836118d7565b509138610fff565b6114db9150843d86116103215761030f81836118d7565b50505038610fbe565b86513d8c823e3d90fd5b8551631a26303760e31b815292839182905afa90811561154857889161151b575b50600355838238610f8d565b90508281813d8311611541575b61153281836118d7565b81010312610a0157513861150f565b503d611528565b84513d8a823e3d90fd5b5050505163f13e1b8560e01b8152fd5b6115799150843d86116108a85761089981836118d7565b38610f7b565b85513d8b823e3d90fd5b5051635c3017c560e11b8152fd5b634e487b7160e01b885260118552602488fd5b90506115c39150833d85116102e1576102d181836118d7565b9038610f1a565b8380fd5b50903461020a578260031936011261020a576115e8611911565b81516321d8f43160e21b81526020907f00000000000000000000000000000000000000000000000000000000000000006001600160a01b03169082818581855afa908115610afc5786916116c0575b50156116b05760035415611649578480f35b8190845193848092631a26303760e31b82525afa9283156116a757508392611679575b5050600355388080808480f35b90809250813d83116116a0575b61169081836118d7565b810103126103515751388061166c565b503d611686565b513d85823e3d90fd5b835163f13e1b8560e01b81528390fd5b6116d79150833d85116108a85761089981836118d7565b38611637565b838234610351578160031936011261035157517f00000000000000000000000000000000000000000000000000000000000000006001600160a01b03168152602090f35b8285913461020a5760209282611736366117db565b93866117468693979495986118bb565b60603682378681526117588589611fda565b818b01520152507f0000000000000000000000000000000000000000000000000000000000000000156117b2576117a59061050f94865194611799866118bb565b60603687378552611fda565b8583015283820152611f0c565b6117d2915061055b938551936117c78561186d565b863686378452611fda565b84820152611e77565b60809060031901126117f95760043590602435906044359060643590565b600080fd5b9060e06003198301126117f957600435916024359160443567ffffffffffffffff928382116117f957806023830112156117f95781600401359384116117f95760248460051b830101116117f95760240191906064359060843560ff811681036117f9579060a4359060c43590565b6040810190811067ffffffffffffffff82111761188957604052565b634e487b7160e01b600052604160045260246000fd5b60a0810190811067ffffffffffffffff82111761188957604052565b6060810190811067ffffffffffffffff82111761188957604052565b90601f8019910116810190811067ffffffffffffffff82111761188957604052565b67ffffffffffffffff81116118895760051b60200190565b6000546001600160a01b0316330361192557565b606460405162461bcd60e51b815260206004820152602060248201527f4f776e61626c653a2063616c6c6572206973206e6f7420746865206f776e65726044820152fd5b91906604000000000000808410156119f157808210156119df578210156119cd5781156119b757049060321b81018091116119a15790565b634e487b7160e01b600052601160045260246000fd5b634e487b7160e01b600052601260045260246000fd5b60405163cdc3c16b60e01b8152600490fd5b6040516334dd29a960e21b8152600490fd5b604051631805864f60e21b8152600490fd5b519060ff821682036117f957565b91908260809103126117f957611a2682611a03565b91611a3360208201611a03565b91611a4c6060611a4560408501611a03565b9301611a03565b90565b91908260409103126117f9576020825192015190565b8015611ace57600190602081108216604e8210831617611ac65781906005925b808211611a9d575050816000190481116119a1570290565b9092806000190481116119a157818416611abd575b800292811c90611a85565b80920291611ab2565b905060050a90565b50600190565b818102929181159184041417156119a157565b90611af29291611969565b60405190611aff8261189f565b60048252602082016080368237825115611b505752600354815160011015611b50576040820152600154815160021015611b50576060820152805160031015611b5057611a4c916080820152611dbe565b634e487b7160e01b600052603260045260246000fd5b908160209103126117f9575180151581036117f95790565b91908260409103126117f957604051611b968161186d565b6020808294805184520151910152565b9080601f830112156117f95760405191611bbf8361186d565b8290604081019283116117f957905b828210611bdb5750505090565b8151815260209182019101611bce565b91906080838203126117f9576020611c1f60405192611c098461186d565b60408496611c178382611ba6565b865201611ba6565b910152565b6000915b60028310611c3557505050565b600190825181526020809101920192019190611c28565b9060406020611c6a93611c60848251611c24565b0151910190611c24565b565b60ff1660ff81146119a15760010190565b906005811015611b505760051b0190565b909291939460059283850695966000611cb2604051608060a0528060a0515261189f565b60a03681515137905b60ff9384831695858116871015611db25760005b8681169089821015611d84578c828d03611cfe57611cf3611cf99360a05151611c7d565b52611c6c565b611ccf565b508b821115611d7d5760001982018881116119a157915b858a1015611b5057611fe0878c1b16880135601e19893603018112156117f957880192833567ffffffffffffffff81116117f957602090808e1b3603868301136117f9578b83161015611b5057611cf994611fe0611cf3938f1b160101359160a05151611c7d565b8091611d15565b50509550935096509650938390049383850695611dac611da660a05151611f73565b98611c6c565b90611cbb565b50975050505050505050565b604051815160209283019082908482019060005b86828210611e6057505050611df0925003601f1981018352826118d7565b604051908051908360005b838110611e4e5750505090806000928101838152039060025afa15611e42577f30644e72e131a029b85045b68181585d2833e84879b9709143e1f593f00000016000510690565b6040513d6000823e3d90fd5b81818401015181860152018490611dfb565b855184529485019486945090920191600101611dd2565b6040516314d2f97b60e11b815290600090600483015b60028310611ef5575050506020816044817347076a871Ae4e442784dff8BCB42E3E4E440D5195af4908115611e4257600091611ec7575090565b906020823d8211611eed575b81611ee0602093836118d7565b8101031261042757505190565b3d9150611ed3565b600190825181526020809101920192019190611e8d565b6040516304b98e1d60e31b815290600090600483015b60038310611f5c5750505060208160648173Fa21436084377C74855b2DB9CFe7322a4DDC1c3C5af4908115611e4257600091611ec7575090565b600190825181526020809101920192019190611f22565b604051630926f44b60e31b815290600090600483015b60058310611fc35750505060208160a481732D610532b8e16e950DD853572Fee9493d3c339625af4908115611e4257600091611ec7575090565b600190825181526020809101920192019190611f89565b611a4c9160405191611feb8361186d565b604036843782526020820152611e7756fea2646970667358221220fcbca9127a24f23336b280bbd9d3c2a0347597534f8a73d97d5407a38ab5e64c64736f6c63430008140033a26469706673582212204774a84f557e22be72931ab9573c8c3c233364bb42d57b6cd607eebcaf51582c64736f6c63430008140033",
  "deployedBytecode": "0x6080604090808252600436101561001557600080fd5b600091823560e01c63f68abb591461002c57600080fd5b3461017b5760c036600319011261017b576004356001600160a01b038181169182900361014f57602435938185168095036101775760443592828416809403610173576064359383851680950361016f576084359484861680960361016b5760a43591821515809303610167576121e4988986019467ffffffffffffffff9a8787108c88111761015357918795939160a0979593610180883985526020850152898401526060830152608082015203019086f08015610145571692833b1561014f5782519163f2fde38b60e01b83526004830152848260248183885af180156101455761011e575b6020848451908152f35b8111610131576020935081523880610114565b634e487b7160e01b84526041600452602484fd5b83513d87823e3d90fd5b8480fd5b634e487b7160e01b8d52604160045260248dfd5b8980fd5b8880fd5b8780fd5b8680fd5b8580fd5b8280fdfe610120601f620021e438819003918201601f19168301916001600160401b03831184841017620001865780849260a094604052833981010312620001815762000048816200019c565b9062000057602082016200019c565b62000065604083016200019c565b91608062000076606083016200019c565b9101519384151585036200018157600054933360018060a01b03198616176000556040519460018060a01b03948580948193823391167f8be0079c531659141344cd1fd0a4f28419497f9722a3daafe3b4186f6b6457e0600080a3166080521660a0521660c0521660e0526101009182526120329182620001b2833960805182818161084801528181610e7501526111db015260a051828181610755015281816110ec01526116f2015260c05182818161022f0152818161057a015281816106630152610ee0015260e05182818161036a01528181610f4401526115f9015251818181610461015281816104aa015281816106cd01528181610de40152818161106301526117610152f35b600080fd5b634e487b7160e01b600052604160045260246000fd5b51906001600160a01b0382168203620001815756fe60c060408181526004908136101561001657600080fd5b600092833560e01c90816310bc5f51146117215750806313fb8932146116dd57806316425eeb146115ce57806323e3feb114610ea45780632b7ac3f314610e605780632d966bf414610dc75780633dfb88b214610ca757806358bfc37914610c1b5780635bb9399514610bf85780636175029314610bd957806362a361bb14610b7f5780636b148b6014610b60578063715018a614610b065780637485dba11461062c5780638da5cb5b146106045780639cfced97146105a9578063a117527914610565578063a21fb51114610486578063a5a31c0814610449578063afb93bd31461042a578063b03698f2146103ff578063bea140b314610399578063d0380fe214610355578063d13181b814610332578063e3ff76061461020e5763f2fde38b1461014257600080fd5b3461020a57602036600319011261020a576001600160a01b0382358181169391929084900361020657610173611911565b83156101b457505082546001600160a01b0319811683178455167f8be0079c531659141344cd1fd0a4f28419497f9722a3daafe3b4186f6b6457e08380a380f35b906020608492519162461bcd60e51b8352820152602660248201527f4f776e61626c653a206e6577206f776e657220697320746865207a65726f206160448201526564647265737360d01b6064820152fd5b8480fd5b8280fd5b50903461020a578260031936011261020a57815163ac98e5df60e01b8152827f00000000000000000000000000000000000000000000000000000000000000006001600160a01b03166080838581845afa9283156103285786936102f5575b508151634f367f0f60e01b815293849182905afa9182156102e857602094926102b4575b506102ab906102a560ff6002549216611a65565b90611ad4565b10159051908152f35b6102ab9192506102d990843d86116102e1575b6102d181836118d7565b810190611a4f565b509190610291565b503d6102c7565b50505051903d90823e3d90fd5b61031791935060803d8111610321575b61030f81836118d7565b810190611a11565b505050913861026d565b503d610305565b82513d88823e3d90fd5b8382346103515781600319360112610351576020906003549051908152f35b5080fd5b838234610351578160031936011261035157517f00000000000000000000000000000000000000000000000000000000000000006001600160a01b03168152602090f35b50903461020a57606036600319011261020a57366023121561020a578151906103c1826118bb565b816064913683116103fb5760209550905b8282106103ec575050506103e590611f0c565b9051908152f35b813581529085019085016103d2565b8580fd5b50823461042757606036600319011261042757506103e5602092604435906024359035611969565b80fd5b8382346103515781600319360112610351576020906002549051908152f35b838234610351578160031936011261035157602090517f000000000000000000000000000000000000000000000000000000000000000015158152f35b508234610427576104a8610499366117fe565b97949295918997919750611c8e565b7f00000000000000000000000000000000000000000000000000000000000000001561053057855194606086019086821067ffffffffffffffff83111761051d575086526020965061050f9493929161050091611fda565b83528583015283820152611f0c565b60015414905b519015158152f35b634e487b7160e01b815260418952602490fd5b92506020955061055b93506105509085519361054b8561186d565b611fda565b825284820152611e77565b6001541490610515565b838234610351578160031936011261035157517f00000000000000000000000000000000000000000000000000000000000000006001600160a01b03168152602090f35b50903461020a5760a036600319011261020a57366023121561020a578151906105d18261189f565b8160a4913683116103fb5760209550905b8282106105f5575050506103e590611f73565b813581529085019085016105e2565b838234610351578160031936011261035157905490516001600160a01b039091168152602090f35b5082903461035157610180366003190112610351576101049236841161020a57815163ac98e5df60e01b81526001600160a01b03947f000000000000000000000000000000000000000000000000000000000000000086166080838581845afa928315610afc5786908794610ad6575b50855193849263bc14ee2b60e01b8452838760609788935afa928315610acc57908995949392918993610a71575b507f000000000000000000000000000000000000000000000000000000000000000015610a695788915b88519363194b1db960e21b855284898160209e8f94165afa938415610a5f578a94610a22575b5088516310b37e4d60e01b815260ff948516898201529084166024820152921660448301526002811015610a0f5760648201528681608481877f0000000000000000000000000000000000000000000000000000000000000000165afa908115610a05579086929188916108db575b509185939160808a96946108156101649561014496610140610124966101006107b884358c358b358535611ae7565b99516308adcb2560e21b81529e8f9d8e01378b01528a6103248b01988551908151908d01520151908a01526107f58a8401516101848b0190611c4c565b6108078c8401516102048b0190611c4c565b820151610284890190611c4c565b0151926101e061030487015283518091528661034487019401908a5b8a8282106108ba57505050508401528290039082907f0000000000000000000000000000000000000000000000000000000000000000165afa9283156108af5792610880575b50519015158152f35b6108a1919250833d85116108a8575b61089981836118d7565b810190611b66565b9083610877565b503d61088f565b8251903d90823e3d90fd5b8351805188528a01518a8801528d998b995096019590920191600101610831565b919250503d8088833e6108ee81836118d7565b81018882820312610a0157815167ffffffffffffffff928382116109fd5701916101e0838303126109f9578751926109258461189f565b61092f8382611b7e565b845261093d838a8301611beb565b8b85015261094e8360c08301611beb565b89850152610960836101408301611beb565b868501526101c08101519182116109fd570181601f820112156109f9578051610988816118f9565b926109958a5194856118d7565b8184528b8085019260061b840101928184116109f557908c808c98979695949301925b8484106109d2575050505050906080918282015290610789565b6109e38385969798999a9495611b7e565b8152019201908c8b97969594936109b8565b8b80fd5b8880fd5b8980fd5b8780fd5b86513d89823e3d90fd5b634e487b7160e01b885260218652602488fd5b9093508a81813d8311610a58575b610a3a81836118d7565b810103126109fd579060ff610a4f8193611a03565b9491925061071a565b503d610a30565b89513d8c823e3d90fd5b6001916106f4565b85809750819394509194953d8311610ac5575b610a8e81836118d7565b81010312610a015780519089821682036109f95760208101518a8116036109f95787015189811603610a015790889493928a6106ca565b503d610a84565b87513d8a823e3d90fd5b9050610af191935060803d81116103215761030f81836118d7565b94929150508861069c565b85513d88823e3d90fd5b8334610427578060031936011261042757610b1f611911565b80546001600160a01b03198116825581906001600160a01b03167f8be0079c531659141344cd1fd0a4f28419497f9722a3daafe3b4186f6b6457e08280a380f35b838234610351576020906103e5610b76366117db565b92919091611ae7565b50903461020a578160031936011261020a57366023121561020a57815190610ba68261186d565b816044913683116103fb5760209550905b828210610bca575050506103e590611e77565b81358152908501908501610bb7565b8382346103515781600319360112610351576020906001549051908152f35b508234610427578160031936011261042757506103e56020926024359035611fda565b50903461020a57602092836003193601126104275781359167ffffffffffffffff8311610351573660238401121561035157820135610c59816118f9565b92610c66855194856118d7565b81845260248685019260051b820101923684116104275750906024869201905b838210610c985782866103e587611dbe565b81358152908201908201610c86565b503461020a57608036600319011261020a57366023121561020a578051916080830183811067ffffffffffffffff821117610db4578252608490833683116103fb57819491905b838210610da4575050825163248f667760e01b8152938491868284015b838210610d8a57505050506020918173__$f67ed442b9d6bc4da64e961e2430b82eb6$__5af4918215610d80578392610d49575b6020838351908152f35b9091506020813d8211610d78575b81610d64602093836118d7565b8101031261020a5760209250519038610d3f565b3d9150610d57565b81513d85823e3d90fd5b825181528794506020928301926001929092019101610d0b565b8135815260209182019101610cee565b634e487b7160e01b855260418252602485fd5b5082346104275750610dd8366117fe565b989691909592969493947f000000000000000000000000000000000000000000000000000000000000000015610e52575093610e4796936020999693610e2193610e3e97611c8e565b90865194610e2e866118bb565b6060368737855287850152611fda565b83820152611f0c565b600154149051908152f35b8851630280e1e560e61b8152fd5b838234610351578160031936011261035157517f00000000000000000000000000000000000000000000000000000000000000006001600160a01b03168152602090f35b503461020a5761012036600319011261020a57610124913683116115ca57610eca611911565b8151634909229f60e01b81526001600160a01b037f00000000000000000000000000000000000000000000000000000000000000008116939182818581885afa90811561124257879088926115aa575b50420342811161159757111561158957610f32611911565b81516321d8f43160e21b8152602091907f000000000000000000000000000000000000000000000000000000000000000082169083818781855afa90811561157f578991611562575b501561155257828591600354156114ee575b5050835163ac98e5df60e01b80825296915060809081818881865afa9081156114e457610fc59160ff918c916114c4575b5016611a65565b9760025497610fd48a8a611ad4565b996001809a01600255875191634f367f0f60e01b835288838b81895afa928315611388578d936114a4575b50828c101561149457908c969594939291895190815284818c81895afa90811561148a5788908992611467575b508a5163bc14ee2b60e01b8152606097889082908f9082905afa90811561145d578b8f928f8f9695948e8e9581946113fc575b50507f0000000000000000000000000000000000000000000000000000000000000000156113f657508d965b5163194b1db960e21b81529384928391165afa9a8b156113eb578e918e919c6113a5575b50516310b37e4d60e01b815260ff9b8c1691810191909152908a1660248201529816604489015260028110156113925760648801528c87608481897f0000000000000000000000000000000000000000000000000000000000000000165afa968715611388578d9761126b575b509a879593969492918a359c611133928e92611ae7565b908c89519788966308adcb2560e21b88528c8801602461010091376101048801610140905261032488019589825180516101448c015201516101648a0152898201516101848a0161118391611c4c565b8c8201516102048a0161119591611c4c565b81015161028489016111a691611c4c565b01519361030487016101e0905284518091528761034488019501915b8d8c83831061124c5750505050508401528290039082907f0000000000000000000000000000000000000000000000000000000000000000165afa918215611242578792611225575b5050156112185750505580f35b516341acf34d60e01b8152fd5b61123b9250803d106108a85761089981836118d7565b388061120b565b83513d89823e3d90fd5b8451805189528b01518b8901528c9a8c9a5097019690930192016111c2565b9096503d808e833e61127d81836118d7565b8101888282031261138457815167ffffffffffffffff928382116113805701916101e08383031261137c578a51926112b48461189f565b6112be8382611b7e565b84526112cc838d8301611beb565b8b8501526112dd8360c08301611beb565b8c8501526112ef836101408301611beb565b888501526101c0810151918211611380570181601f8201121561137c578051611317816118f9565b926113248d5194856118d7565b8184528b8085019260061b84010192818411611376578c808f9201935b85851061135e57505050505085830191909152509561113361111c565b6113688486611b7e565b8152019201918c8e91611341565b50508f80fd5b8e80fd5b8f80fd5b8d80fd5b89513d8f823e3d90fd5b634e487b7160e01b8e5260218b5260248efd5b9b505050908a8a813d83116113e4575b6113bf81836118d7565b810103126113805760ff80928e828f9d6113d890611a03565b9d9294955050916110af565b503d6113b5565b8d51903d90823e3d90fd5b9661108b565b98505050505050508783813d8311611456575b61141981836118d7565b810103126109fd578251928984168403611452578b8101518a811603611452578c0151898116036109fd57888b8f8f8f96918e3861105f565b8a80fd5b503d61140f565b8c513d8c823e3d90fd5b90506114809150853d87116103215761030f81836118d7565b929150503861102c565b8a513d8a823e3d90fd5b885163b3f8c18960e01b81528a90fd5b6114bc919350893d8b116102e1576102d181836118d7565b509138610fff565b6114db9150843d86116103215761030f81836118d7565b50505038610fbe565b86513d8c823e3d90fd5b8551631a26303760e31b815292839182905afa90811561154857889161151b575b50600355838238610f8d565b90508281813d8311611541575b61153281836118d7565b81010312610a0157513861150f565b503d611528565b84513d8a823e3d90fd5b5050505163f13e1b8560e01b8152fd5b6115799150843d86116108a85761089981836118d7565b38610f7b565b85513d8b823e3d90fd5b5051635c3017c560e11b8152fd5b634e487b7160e01b885260118552602488fd5b90506115c39150833d85116102e1576102d181836118d7565b9038610f1a565b8380fd5b50903461020a578260031936011261020a576115e8611911565b81516321d8f43160e21b81526020907f00000000000000000000000000000000000000000000000000000000000000006001600160a01b03169082818581855afa908115610afc5786916116c0575b50156116b05760035415611649578480f35b8190845193848092631a26303760e31b82525afa9283156116a757508392611679575b5050600355388080808480f35b90809250813d83116116a0575b61169081836118d7565b810103126103515751388061166c565b503d611686565b513d85823e3d90fd5b835163f13e1b8560e01b81528390fd5b6116d79150833d85116108a85761089981836118d7565b38611637565b838234610351578160031936011261035157517f00000000000000000000000000000000000000000000000000000000000000006001600160a01b03168152602090f35b8285913461020a5760209282611736366117db565b93866117468693979495986118bb565b60603682378681526117588589611fda565b818b01520152507f0000000000000000000000000000000000000000000000000000000000000000156117b2576117a59061050f94865194611799866118bb565b60603687378552611fda565b8583015283820152611f0c565b6117d2915061055b938551936117c78561186d565b863686378452611fda565b84820152611e77565b60809060031901126117f95760043590602435906044359060643590565b600080fd5b9060e06003198301126117f957600435916024359160443567ffffffffffffffff928382116117f957806023830112156117f95781600401359384116117f95760248460051b830101116117f95760240191906064359060843560ff811681036117f9579060a4359060c43590565b6040810190811067ffffffffffffffff82111761188957604052565b634e487b7160e01b600052604160045260246000fd5b60a0810190811067ffffffffffffffff82111761188957604052565b6060810190811067ffffffffffffffff82111761188957604052565b90601f8019910116810190811067ffffffffffffffff82111761188957604052565b67ffffffffffffffff81116118895760051b60200190565b6000546001600160a01b0316330361192557565b606460405162461bcd60e51b815260206004820152602060248201527f4f776e61626c653a2063616c6c6572206973206e6f7420746865206f776e65726044820152fd5b91906604000000000000808410156119f157808210156119df578210156119cd5781156119b757049060321b81018091116119a15790565b634e487b7160e01b600052601160045260246000fd5b634e487b7160e01b600052601260045260246000fd5b60405163cdc3c16b60e01b8152600490fd5b6040516334dd29a960e21b8152600490fd5b604051631805864f60e21b8152600490fd5b519060ff821682036117f957565b91908260809103126117f957611a2682611a03565b91611a3360208201611a03565b91611a4c6060611a4560408501611a03565b9301611a03565b90565b91908260409103126117f9576020825192015190565b8015611ace57600190602081108216604e8210831617611ac65781906005925b808211611a9d575050816000190481116119a1570290565b9092806000190481116119a157818416611abd575b800292811c90611a85565b80920291611ab2565b905060050a90565b50600190565b818102929181159184041417156119a157565b90611af29291611969565b60405190611aff8261189f565b60048252602082016080368237825115611b505752600354815160011015611b50576040820152600154815160021015611b50576060820152805160031015611b5057611a4c916080820152611dbe565b634e487b7160e01b600052603260045260246000fd5b908160209103126117f9575180151581036117f95790565b91908260409103126117f957604051611b968161186d565b6020808294805184520151910152565b9080601f830112156117f95760405191611bbf8361186d565b8290604081019283116117f957905b828210611bdb5750505090565b8151815260209182019101611bce565b91906080838203126117f9576020611c1f60405192611c098461186d565b60408496611c178382611ba6565b865201611ba6565b910152565b6000915b60028310611c3557505050565b600190825181526020809101920192019190611c28565b9060406020611c6a93611c60848251611c24565b0151910190611c24565b565b60ff1660ff81146119a15760010190565b906005811015611b505760051b0190565b909291939460059283850695966000611cb2604051608060a0528060a0515261189f565b60a03681515137905b60ff9384831695858116871015611db25760005b8681169089821015611d84578c828d03611cfe57611cf3611cf99360a05151611c7d565b52611c6c565b611ccf565b508b821115611d7d5760001982018881116119a157915b858a1015611b5057611fe0878c1b16880135601e19893603018112156117f957880192833567ffffffffffffffff81116117f957602090808e1b3603868301136117f9578b83161015611b5057611cf994611fe0611cf3938f1b160101359160a05151611c7d565b8091611d15565b50509550935096509650938390049383850695611dac611da660a05151611f73565b98611c6c565b90611cbb565b50975050505050505050565b604051815160209283019082908482019060005b86828210611e6057505050611df0925003601f1981018352826118d7565b604051908051908360005b838110611e4e5750505090806000928101838152039060025afa15611e42577f30644e72e131a029b85045b68181585d2833e84879b9709143e1f593f00000016000510690565b6040513d6000823e3d90fd5b81818401015181860152018490611dfb565b855184529485019486945090920191600101611dd2565b6040516314d2f97b60e11b815290600090600483015b60028310611ef55750505060208160448173__$8658d3171857788947ecb1d152a017ec62$__5af4908115611e4257600091611ec7575090565b906020823d8211611eed575b81611ee0602093836118d7565b8101031261042757505190565b3d9150611ed3565b600190825181526020809101920192019190611e8d565b6040516304b98e1d60e31b815290600090600483015b60038310611f5c5750505060208160648173__$90b9196d445cf176c504004dde0b0062ce$__5af4908115611e4257600091611ec7575090565b600190825181526020809101920192019190611f22565b604051630926f44b60e31b815290600090600483015b60058310611fc35750505060208160a48173__$d643f7f71d754779bfbed637a90c4a7526$__5af4908115611e4257600091611ec7575090565b600190825181526020809101920192019190611f89565b611a4c9160405191611feb8361186d565b604036843782526020820152611e7756fea2646970667358221220fcbca9127a24f23336b280bbd9d3c2a0347597534f8a73d97d5407a38ab5e64c64736f6c63430008140033a26469706673582212204774a84f557e22be72931ab9573c8c3c233364bb42d57b6cd607eebcaf51582c64736f6c63430008140033",
  "libraries": {
    "PoseidonT3": "0x47076a871Ae4e442784dff8BCB42E3E4E440D519",
    "PoseidonT4": "0xFa21436084377C74855b2DB9CFe7322a4DDC1c3C",
    "PoseidonT5": "0xAf8D2aF5AB9654e4818142c6511754771c8064A5",
    "PoseidonT6": "0x2D610532b8e16e950DD853572Fee9493d3c33962"
  },
  "devdoc": {
    "kind": "dev",
    "methods": {
      "deploy(address,address,address,address,address,bool)": {
        "params": {
          "_isQv": "Whether to support QV or not",
          "_messageProcessor": "MessageProcessor contract",
          "_owner": "Owner of the contract",
          "_poll": "Poll contract",
          "_verifier": "Verifier contract",
          "_vkRegistry": "VkRegistry contract"
        },
        "returns": {
          "tallyAddr": "The deployed contract"
        }
      }
    },
    "title": "TallyFactory",
    "version": 1
  },
  "userdoc": {
    "kind": "user",
    "methods": {
      "deploy(address,address,address,address,address,bool)": {
        "notice": "Deploy a new Tally contract and return the address."
      }
    },
    "notice": "A factory contract which deploys Tally contracts.",
    "version": 1
  },
  "storageLayout": {
    "storage": [],
    "types": null
  }
}