{
  "address": "0x60cfc8062dc26046c25c6a80DF4AA61FfDdAf28E",
  "abi": [
    {
      "inputs": [],
      "stateMutability": "payable",
      "type": "constructor"
    },
    {
      "inputs": [],
      "name": "ExceedLimit",
      "type": "error"
    },
    {
      "anonymous": false,
      "inputs": [
        {
          "indexed": true,
          "internalType": "address",
          "name": "owner",
          "type": "address"
        },
        {
          "indexed": true,
          "internalType": "address",
          "name": "spender",
          "type": "address"
        },
        {
          "indexed": false,
          "internalType": "uint256",
          "name": "value",
          "type": "uint256"
        }
      ],
      "name": "Approval",
      "type": "event"
    },
    {
      "anonymous": false,
      "inputs": [
        {
          "indexed": true,
          "internalType": "address",
          "name": "previousOwner",
          "type": "address"
        },
        {
          "indexed": true,
          "internalType": "address",
          "name": "newOwner",
          "type": "address"
        }
      ],
      "name": "OwnershipTransferred",
      "type": "event"
    },
    {
      "anonymous": false,
      "inputs": [
        {
          "indexed": true,
          "internalType": "address",
          "name": "from",
          "type": "address"
        },
        {
          "indexed": true,
          "internalType": "address",
          "name": "to",
          "type": "address"
        },
        {
          "indexed": false,
          "internalType": "uint256",
          "name": "value",
          "type": "uint256"
        }
      ],
      "name": "Transfer",
      "type": "event"
    },
    {
      "inputs": [],
      "name": "DECIMALS",
      "outputs": [
        {
          "internalType": "uint8",
          "name": "",
          "type": "uint8"
        }
      ],
      "stateMutability": "view",
      "type": "function"
    },
    {
      "inputs": [],
      "name": "MAXIMUM_AIRDROP_AMOUNT",
      "outputs": [
        {
          "internalType": "uint256",
          "name": "",
          "type": "uint256"
        }
      ],
      "stateMutability": "view",
      "type": "function"
    },
    {
      "inputs": [
        {
          "internalType": "uint256",
          "name": "amount",
          "type": "uint256"
        }
      ],
      "name": "airdrop",
      "outputs": [],
      "stateMutability": "nonpayable",
      "type": "function"
    },
    {
      "inputs": [
        {
          "internalType": "address",
          "name": "account",
          "type": "address"
        },
        {
          "internalType": "uint256",
          "name": "amount",
          "type": "uint256"
        }
      ],
      "name": "airdropTo",
      "outputs": [],
      "stateMutability": "nonpayable",
      "type": "function"
    },
    {
      "inputs": [
        {
          "internalType": "address",
          "name": "owner",
          "type": "address"
        },
        {
          "internalType": "address",
          "name": "spender",
          "type": "address"
        }
      ],
      "name": "allowance",
      "outputs": [
        {
          "internalType": "uint256",
          "name": "",
          "type": "uint256"
        }
      ],
      "stateMutability": "view",
      "type": "function"
    },
    {
      "inputs": [
        {
          "internalType": "address",
          "name": "spender",
          "type": "address"
        },
        {
          "internalType": "uint256",
          "name": "amount",
          "type": "uint256"
        }
      ],
      "name": "approve",
      "outputs": [
        {
          "internalType": "bool",
          "name": "",
          "type": "bool"
        }
      ],
      "stateMutability": "nonpayable",
      "type": "function"
    },
    {
      "inputs": [
        {
          "internalType": "address",
          "name": "account",
          "type": "address"
        }
      ],
      "name": "balanceOf",
      "outputs": [
        {
          "internalType": "uint256",
          "name": "",
          "type": "uint256"
        }
      ],
      "stateMutability": "view",
      "type": "function"
    },
    {
      "inputs": [],
      "name": "decimals",
      "outputs": [
        {
          "internalType": "uint8",
          "name": "",
          "type": "uint8"
        }
      ],
      "stateMutability": "view",
      "type": "function"
    },
    {
      "inputs": [
        {
          "internalType": "address",
          "name": "spender",
          "type": "address"
        },
        {
          "internalType": "uint256",
          "name": "subtractedValue",
          "type": "uint256"
        }
      ],
      "name": "decreaseAllowance",
      "outputs": [
        {
          "internalType": "bool",
          "name": "",
          "type": "bool"
        }
      ],
      "stateMutability": "nonpayable",
      "type": "function"
    },
    {
      "inputs": [
        {
          "internalType": "address",
          "name": "spender",
          "type": "address"
        },
        {
          "internalType": "uint256",
          "name": "addedValue",
          "type": "uint256"
        }
      ],
      "name": "increaseAllowance",
      "outputs": [
        {
          "internalType": "bool",
          "name": "",
          "type": "bool"
        }
      ],
      "stateMutability": "nonpayable",
      "type": "function"
    },
    {
      "inputs": [],
      "name": "name",
      "outputs": [
        {
          "internalType": "string",
          "name": "",
          "type": "string"
        }
      ],
      "stateMutability": "view",
      "type": "function"
    },
    {
      "inputs": [],
      "name": "owner",
      "outputs": [
        {
          "internalType": "address",
          "name": "",
          "type": "address"
        }
      ],
      "stateMutability": "view",
      "type": "function"
    },
    {
      "inputs": [],
      "name": "renounceOwnership",
      "outputs": [],
      "stateMutability": "nonpayable",
      "type": "function"
    },
    {
      "inputs": [],
      "name": "symbol",
      "outputs": [
        {
          "internalType": "string",
          "name": "",
          "type": "string"
        }
      ],
      "stateMutability": "view",
      "type": "function"
    },
    {
      "inputs": [],
      "name": "totalSupply",
      "outputs": [
        {
          "internalType": "uint256",
          "name": "",
          "type": "uint256"
        }
      ],
      "stateMutability": "view",
      "type": "function"
    },
    {
      "inputs": [
        {
          "internalType": "address",
          "name": "to",
          "type": "address"
        },
        {
          "internalType": "uint256",
          "name": "amount",
          "type": "uint256"
        }
      ],
      "name": "transfer",
      "outputs": [
        {
          "internalType": "bool",
          "name": "",
          "type": "bool"
        }
      ],
      "stateMutability": "nonpayable",
      "type": "function"
    },
    {
      "inputs": [
        {
          "internalType": "address",
          "name": "from",
          "type": "address"
        },
        {
          "internalType": "address",
          "name": "to",
          "type": "address"
        },
        {
          "internalType": "uint256",
          "name": "amount",
          "type": "uint256"
        }
      ],
      "name": "transferFrom",
      "outputs": [
        {
          "internalType": "bool",
          "name": "",
          "type": "bool"
        }
      ],
      "stateMutability": "nonpayable",
      "type": "function"
    },
    {
      "inputs": [
        {
          "internalType": "address",
          "name": "newOwner",
          "type": "address"
        }
      ],
      "name": "transferOwnership",
      "outputs": [],
      "stateMutability": "nonpayable",
      "type": "function"
    }
  ],
  "transactionHash": "0x527080377ece35b248260b68a3536b52307b7ea95d77fe8e6424eaf9a1ca3bad",
  "args": [],
  "numDeployments": 2,
  "solcInputHash": "79ae3e088114d792164a9068ef4ed3b4",
  "bytecode": "0x60806040526200000e6200031d565b620000186200031d565b8151906001600160401b03908183116200021d576003908154906001948583811c931696871562000312575b60209788851014620002fc578190601f94858111620002a6575b5088908583116001146200023f5760009262000233575b505060001982861b1c191690861b1783555b80519384116200021d5760049586548681811c9116801562000212575b82821014620001fd57838111620001b2575b508092851160011462000144575093839491849260009562000138575b50501b92600019911b1c19161790555b60058054336001600160a01b03198216811790925560405191906001600160a01b03167f8be0079c531659141344cd1fd0a4f28419497f9722a3daafe3b4186f6b6457e0600080a3610c3a9081620003568239f35b015193503880620000d3565b92919084601f1981168860005285600020956000905b898383106200019757505050106200017c575b50505050811b019055620000e3565b01519060f884600019921b161c19169055388080806200016d565b8587015189559097019694850194889350908101906200015a565b87600052816000208480880160051c820192848910620001f3575b0160051c019087905b828110620001e6575050620000b6565b60008155018790620001d6565b92508192620001cd565b602288634e487b7160e01b6000525260246000fd5b90607f1690620000a4565b634e487b7160e01b600052604160045260246000fd5b01519050388062000075565b90889350601f19831691876000528a6000209260005b8c8282106200028f575050841162000276575b505050811b01835562000087565b015160001983881b60f8161c1916905538808062000268565b8385015186558c9790950194938401930162000255565b90915085600052886000208580850160051c8201928b8610620002f2575b918a91869594930160051c01915b828110620002e25750506200005e565b600081558594508a9101620002d2565b92508192620002c4565b634e487b7160e01b600052602260045260246000fd5b92607f169262000044565b60408051919082016001600160401b038111838210176200021d57604052600b82526a151bdc1d5c10dc99591a5d60aa1b602083015256fe6080604081815260048036101561001557600080fd5b600092833560e01c90816306fdde031461070757508063095ea7b3146106dd57806318160ddd146106be57806323633cf2146106a057806323b872dd146105d65780632e0f2625146105ba578063313ce5671461059e578063395093511461054e57806370a0823114610517578063715018a6146104ba5780638da5cb5b1461049157806395d89b411461037157806397dc4a131461032e578063a457c2d714610287578063a9059cbb14610256578063aaae80fd14610204578063dd62ed3e146101b75763f2fde38b146100e957600080fd5b346101b35760203660031901126101b357610102610845565b9061010b610876565b6001600160a01b03918216928315610161575050600554826bffffffffffffffffffffffff60a01b821617600555167f8be0079c531659141344cd1fd0a4f28419497f9722a3daafe3b4186f6b6457e08380a380f35b906020608492519162461bcd60e51b8352820152602660248201527f4f776e61626c653a206e6577206f776e657220697320746865207a65726f206160448201526564647265737360d01b6064820152fd5b8280fd5b505034610200578060031936011261020057806020926101d5610845565b6101dd610860565b6001600160a01b0391821683526001865283832091168252845220549051908152f35b5080fd5b5091903461020057806003193601126102005761021f610845565b6024359161022b610876565b620f424083101561024457509061024191610b61565b80f35b516001622863f960e21b031981528490fd5b505034610200578060031936011261020057602090610280610276610845565b60243590336108f1565b5160018152f35b50823461032b578260031936011261032b576102a1610845565b918360243592338152600160205281812060018060a01b03861682526020522054908282106102da576020856102808585038733610a5f565b608490602086519162461bcd60e51b8352820152602560248201527f45524332303a2064656372656173656420616c6c6f77616e63652062656c6f77604482015264207a65726f60d81b6064820152fd5b80fd5b50346101b35760203660031901126101b35780359161034b610876565b620f424083101561036157836102418433610b61565b516001622863f960e21b03198152fd5b50919034610200578160031936011261020057805190828454600181811c90808316928315610487575b6020938484108114610474578388529081156104585750600114610403575b505050829003601f01601f191682019267ffffffffffffffff8411838510176103f057508291826103ec9252826107fc565b0390f35b634e487b7160e01b815260418552602490fd5b8787529192508591837f8a35acfbc15ff81a39ae7d344fd709f28e8600b4aa8c65c6b64bfe7fe36bd19b5b83851061044457505050508301013880806103ba565b80548886018301529301928490820161042e565b60ff1916878501525050151560051b84010190503880806103ba565b634e487b7160e01b895260228a52602489fd5b91607f169161039b565b50503461020057816003193601126102005760055490516001600160a01b039091168152602090f35b833461032b578060031936011261032b576104d3610876565b600580546001600160a01b0319811690915581906001600160a01b03167f8be0079c531659141344cd1fd0a4f28419497f9722a3daafe3b4186f6b6457e08280a380f35b5050346102005760203660031901126102005760209181906001600160a01b0361053f610845565b16815280845220549051908152f35b505034610200578060031936011261020057610280602092610597610571610845565b338352600186528483206001600160a01b038216845286529184902054602435906108ce565b9033610a5f565b5050346102005781600319360112610200576020905160128152f35b5050346102005781600319360112610200576020905160018152f35b50829034610200576060366003190112610200576105f2610845565b6105fa610860565b91846044359460018060a01b038416815260016020528181203382526020522054906000198203610634575b6020866102808787876108f1565b84821061065d57509183916106526020969561028095033383610a5f565b919394819350610626565b606490602087519162461bcd60e51b8352820152601d60248201527f45524332303a20696e73756666696369656e7420616c6c6f77616e63650000006044820152fd5b50503461020057816003193601126102005760209051620f42408152f35b5050346102005781600319360112610200576020906002549051908152f35b5050346102005780600319360112610200576020906102806106fd610845565b6024359033610a5f565b84915083346101b357826003193601126101b35782600354600181811c908083169283156107f2575b6020938484108114610474578388529081156107d6575060011461078057505050829003601f01601f191682019267ffffffffffffffff8411838510176103f057508291826103ec9252826107fc565b600387529192508591837fc2575a0e9e593c00f959f8c92f12db2869c3395a3b0502d05e2516446f71f85b5b8385106107c257505050508301018580806103ba565b8054888601830152930192849082016107ac565b60ff1916878501525050151560051b84010190508580806103ba565b91607f1691610730565b6020808252825181830181905290939260005b82811061083157505060409293506000838284010152601f8019910116010190565b81810186015184820160400152850161080f565b600435906001600160a01b038216820361085b57565b600080fd5b602435906001600160a01b038216820361085b57565b6005546001600160a01b0316330361088a57565b606460405162461bcd60e51b815260206004820152602060248201527f4f776e61626c653a2063616c6c6572206973206e6f7420746865206f776e65726044820152fd5b919082018092116108db57565b634e487b7160e01b600052601160045260246000fd5b6001600160a01b03908116918215610a0c57169182156109bb5760008281528060205260408120549180831061096757604082827fddf252ad1be2c89b69c2b068fc378daa952ba7f163c4a11628f55a4df523b3ef958760209652828652038282205586815220818154019055604051908152a3565b60405162461bcd60e51b815260206004820152602660248201527f45524332303a207472616e7366657220616d6f756e7420657863656564732062604482015265616c616e636560d01b6064820152608490fd5b60405162461bcd60e51b815260206004820152602360248201527f45524332303a207472616e7366657220746f20746865207a65726f206164647260448201526265737360e81b6064820152608490fd5b60405162461bcd60e51b815260206004820152602560248201527f45524332303a207472616e736665722066726f6d20746865207a65726f206164604482015264647265737360d81b6064820152608490fd5b6001600160a01b03908116918215610b105716918215610ac05760207f8c5be1e5ebec7d5bd14f71427d1e84f3dd0314c0f7b2291e5b200ac8c7c3b925918360005260018252604060002085600052825280604060002055604051908152a3565b60405162461bcd60e51b815260206004820152602260248201527f45524332303a20617070726f766520746f20746865207a65726f206164647265604482015261737360f01b6064820152608490fd5b60405162461bcd60e51b8152602060048201526024808201527f45524332303a20617070726f76652066726f6d20746865207a65726f206164646044820152637265737360e01b6064820152608490fd5b6001600160a01b0316908115610bbf577fddf252ad1be2c89b69c2b068fc378daa952ba7f163c4a11628f55a4df523b3ef602082610ba36000946002546108ce565b60025584845283825260408420818154019055604051908152a3565b60405162461bcd60e51b815260206004820152601f60248201527f45524332303a206d696e7420746f20746865207a65726f2061646472657373006044820152606490fdfea2646970667358221220046b2cb99d6fbf7d7e27aeaf99b920a354b355190b01f1f7e76b986f9963f27764736f6c63430008140033",
  "devdoc": {
    "events": {
      "Approval(address,address,uint256)": {
        "details": "Emitted when the allowance of a `spender` for an `owner` is set by a call to {approve}. `value` is the new allowance."
      },
      "Transfer(address,address,uint256)": {
        "details": "Emitted when `value` tokens are moved from one account (`from`) to another (`to`). Note that `value` may be zero."
      }
    },
    "kind": "dev",
    "methods": {
      "airdrop(uint256)": {
        "params": {
          "amount": "the amount of tokens to mint"
        }
      },
      "airdropTo(address,uint256)": {
        "params": {
          "account": "the account to mint tokens to",
          "amount": "the amount of tokens to mint"
        }
      },
      "allowance(address,address)": {
        "details": "See {IERC20-allowance}."
      },
      "approve(address,uint256)": {
        "details": "See {IERC20-approve}. NOTE: If `amount` is the maximum `uint256`, the allowance is not updated on `transferFrom`. This is semantically equivalent to an infinite approval. Requirements: - `spender` cannot be the zero address."
      },
      "balanceOf(address)": {
        "details": "See {IERC20-balanceOf}."
      },
      "decimals()": {
        "details": "Returns the number of decimals used to get its user representation. For example, if `decimals` equals `2`, a balance of `505` tokens should be displayed to a user as `5.05` (`505 / 10 ** 2`). Tokens usually opt for a value of 18, imitating the relationship between Ether and Wei. This is the value {ERC20} uses, unless this function is overridden; NOTE: This information is only used for _display_ purposes: it in no way affects any of the arithmetic of the contract, including {IERC20-balanceOf} and {IERC20-transfer}."
      },
      "decreaseAllowance(address,uint256)": {
        "details": "Atomically decreases the allowance granted to `spender` by the caller. This is an alternative to {approve} that can be used as a mitigation for problems described in {IERC20-approve}. Emits an {Approval} event indicating the updated allowance. Requirements: - `spender` cannot be the zero address. - `spender` must have allowance for the caller of at least `subtractedValue`."
      },
      "increaseAllowance(address,uint256)": {
        "details": "Atomically increases the allowance granted to `spender` by the caller. This is an alternative to {approve} that can be used as a mitigation for problems described in {IERC20-approve}. Emits an {Approval} event indicating the updated allowance. Requirements: - `spender` cannot be the zero address."
      },
      "name()": {
        "details": "Returns the name of the token."
      },
      "owner()": {
        "details": "Returns the address of the current owner."
      },
      "renounceOwnership()": {
        "details": "Leaves the contract without owner. It will not be possible to call `onlyOwner` functions anymore. Can only be called by the current owner. NOTE: Renouncing ownership will leave the contract without an owner, thereby removing any functionality that is only available to the owner."
      },
      "symbol()": {
        "details": "Returns the symbol of the token, usually a shorter version of the name."
      },
      "totalSupply()": {
        "details": "See {IERC20-totalSupply}."
      },
      "transfer(address,uint256)": {
        "details": "See {IERC20-transfer}. Requirements: - `to` cannot be the zero address. - the caller must have a balance of at least `amount`."
      },
      "transferFrom(address,address,uint256)": {
        "details": "See {IERC20-transferFrom}. Emits an {Approval} event indicating the updated allowance. This is not required by the EIP. See the note at the beginning of {ERC20}. NOTE: Does not update the allowance if the current allowance is the maximum `uint256`. Requirements: - `from` and `to` cannot be the zero address. - `from` must have a balance of at least `amount`. - the caller must have allowance for ``from``'s tokens of at least `amount`."
      },
      "transferOwnership(address)": {
        "details": "Transfers ownership of the contract to a new account (`newOwner`). Can only be called by the current owner."
      }
    },
    "title": "TopupCredit",
    "version": 1
  },
  "userdoc": {
    "errors": {
      "ExceedLimit()": [
        {
          "notice": "custom errors"
        }
      ]
    },
    "kind": "user",
    "methods": {
      "airdrop(uint256)": {
        "notice": "mint tokens to the contract owner"
      },
      "airdropTo(address,uint256)": {
        "notice": "mint tokens to an account"
      },
      "constructor": {
        "notice": "create  a new TopupCredit token"
      }
    },
    "notice": "A contract representing a token used to topup a MACI's voter credits",
    "version": 1
  },
  "storageLayout": {
    "storage": [
      {
        "astId": 128,
        "contract": "contracts/maci-contracts/TopupCredit.sol:TopupCredit",
        "label": "_balances",
        "offset": 0,
        "slot": "0",
        "type": "t_mapping(t_address,t_uint256)"
      },
      {
        "astId": 134,
        "contract": "contracts/maci-contracts/TopupCredit.sol:TopupCredit",
        "label": "_allowances",
        "offset": 0,
        "slot": "1",
        "type": "t_mapping(t_address,t_mapping(t_address,t_uint256))"
      },
      {
        "astId": 136,
        "contract": "contracts/maci-contracts/TopupCredit.sol:TopupCredit",
        "label": "_totalSupply",
        "offset": 0,
        "slot": "2",
        "type": "t_uint256"
      },
      {
        "astId": 138,
        "contract": "contracts/maci-contracts/TopupCredit.sol:TopupCredit",
        "label": "_name",
        "offset": 0,
        "slot": "3",
        "type": "t_string_storage"
      },
      {
        "astId": 140,
        "contract": "contracts/maci-contracts/TopupCredit.sol:TopupCredit",
        "label": "_symbol",
        "offset": 0,
        "slot": "4",
        "type": "t_string_storage"
      },
      {
        "astId": 7,
        "contract": "contracts/maci-contracts/TopupCredit.sol:TopupCredit",
        "label": "_owner",
        "offset": 0,
        "slot": "5",
        "type": "t_address"
      }
    ],
    "types": {
      "t_address": {
        "encoding": "inplace",
        "label": "address",
        "numberOfBytes": "20"
      },
      "t_mapping(t_address,t_mapping(t_address,t_uint256))": {
        "encoding": "mapping",
        "key": "t_address",
        "label": "mapping(address => mapping(address => uint256))",
        "numberOfBytes": "32",
        "value": "t_mapping(t_address,t_uint256)"
      },
      "t_mapping(t_address,t_uint256)": {
        "encoding": "mapping",
        "key": "t_address",
        "label": "mapping(address => uint256)",
        "numberOfBytes": "32",
        "value": "t_uint256"
      },
      "t_string_storage": {
        "encoding": "bytes",
        "label": "string",
        "numberOfBytes": "32"
      },
      "t_uint256": {
        "encoding": "inplace",
        "label": "uint256",
        "numberOfBytes": "32"
      }
    }
  }
}