{
  "address": "0xb8871bdb2794265c136434f05A5C963328e4FAeD",
  "abi": [
    {
      "inputs": [],
      "name": "InvalidInputVal",
      "type": "error"
    },
    {
      "inputs": [],
      "name": "InvalidProofQ",
      "type": "error"
    },
    {
      "inputs": [],
      "name": "PairingAddFailed",
      "type": "error"
    },
    {
      "inputs": [],
      "name": "PairingMulFailed",
      "type": "error"
    },
    {
      "inputs": [],
      "name": "PairingOpcodeFailed",
      "type": "error"
    },
    {
      "inputs": [],
      "name": "PRIME_Q",
      "outputs": [
        {
          "internalType": "uint256",
          "name": "",
          "type": "uint256"
        }
      ],
      "stateMutability": "view",
      "type": "function"
    },
    {
      "inputs": [
        {
          "internalType": "uint256[8]",
          "name": "_proof",
          "type": "uint256[8]"
        },
        {
          "components": [
            {
              "components": [
                {
                  "internalType": "uint256",
                  "name": "x",
                  "type": "uint256"
                },
                {
                  "internalType": "uint256",
                  "name": "y",
                  "type": "uint256"
                }
              ],
              "internalType": "struct Pairing.G1Point",
              "name": "alpha1",
              "type": "tuple"
            },
            {
              "components": [
                {
                  "internalType": "uint256[2]",
                  "name": "x",
                  "type": "uint256[2]"
                },
                {
                  "internalType": "uint256[2]",
                  "name": "y",
                  "type": "uint256[2]"
                }
              ],
              "internalType": "struct Pairing.G2Point",
              "name": "beta2",
              "type": "tuple"
            },
            {
              "components": [
                {
                  "internalType": "uint256[2]",
                  "name": "x",
                  "type": "uint256[2]"
                },
                {
                  "internalType": "uint256[2]",
                  "name": "y",
                  "type": "uint256[2]"
                }
              ],
              "internalType": "struct Pairing.G2Point",
              "name": "gamma2",
              "type": "tuple"
            },
            {
              "components": [
                {
                  "internalType": "uint256[2]",
                  "name": "x",
                  "type": "uint256[2]"
                },
                {
                  "internalType": "uint256[2]",
                  "name": "y",
                  "type": "uint256[2]"
                }
              ],
              "internalType": "struct Pairing.G2Point",
              "name": "delta2",
              "type": "tuple"
            },
            {
              "components": [
                {
                  "internalType": "uint256",
                  "name": "x",
                  "type": "uint256"
                },
                {
                  "internalType": "uint256",
                  "name": "y",
                  "type": "uint256"
                }
              ],
              "internalType": "struct Pairing.G1Point[]",
              "name": "ic",
              "type": "tuple[]"
            }
          ],
          "internalType": "struct SnarkCommon.VerifyingKey",
          "name": "vk",
          "type": "tuple"
        },
        {
          "internalType": "uint256",
          "name": "input",
          "type": "uint256"
        }
      ],
      "name": "verify",
      "outputs": [
        {
          "internalType": "bool",
          "name": "isValid",
          "type": "bool"
        }
      ],
      "stateMutability": "view",
      "type": "function"
    }
  ],
  "transactionHash": "0x2a9cdc50950a8de46482cc83c02e14cf1bb1588607abee241bdadf23ef877cc9",
  "args": [],
  "numDeployments": 2,
  "solcInputHash": "79ae3e088114d792164a9068ef4ed3b4",
  "bytecode": "0x60808060405234610016576109bd908161001c8239f35b600080fdfe604060808152600436101561001357600080fd5b600090813560e01c91826322b72c941461003d575050638d5329081461003857600080fd5b61031e565b346101725760031961014036820112610175573660231215610175576100623661021e565b91610104359067ffffffffffffffff92838311610175576101e09083360301126101725761008e610193565b9261009c368460040161026e565b84526100ab36604485016102d2565b92602093848601526100c03660c483016102d2565b878601526100d23661014483016102d2565b60608601526101c48101359182116101795701913660238401121561017557600483013561010761010282610306565b6101f8565b9360248386848152019260061b820101933685116101725750602401905b83821061015a576101568861014589898960808201526101243591610446565b905190151581529081906020820190565b0390f35b828891610167368561026e565b815201910190610125565b80fd5b5080fd5b8280fd5b634e487b7160e01b600052604160045260246000fd5b6040519060a0820182811067ffffffffffffffff8211176101b357604052565b61017d565b604051906040820182811067ffffffffffffffff8211176101b357604052565b604051906080820182811067ffffffffffffffff8211176101b357604052565b6040519190601f01601f1916820167ffffffffffffffff8111838210176101b357604052565b9060405191610100830183811067ffffffffffffffff8211176101b35760405282610104918211610269576004905b82821061025957505050565b813581526020918201910161024d565b600080fd5b91908260409103126102695760206102846101b8565b928035845201356020830152565b9080601f83011215610269576102a66101b8565b80926040810192831161026957905b8282106102c25750505090565b81358152602091820191016102b5565b9190608083820312610269576102ff9060406102ec6101b8565b946102f78382610292565b865201610292565b6020830152565b67ffffffffffffffff81116101b35760051b60200190565b346102695760003660031901126102695760206040517f30644e72e131a029b85045b68181585d97816a916871ca8d3c208c16d87cfd478152f35b604051906020820182811067ffffffffffffffff8211176101b3576040526020368337565b604051906060820182811067ffffffffffffffff8211176101b357604052816103a56101b8565b600081526000602082015281526103ba6101b8565b6103c26101b8565b604036823781526103d16101b8565b60403682376020820152602082015260406103ea6101b8565b9160008352600060208401520152565b634e487b7160e01b600052603260045260246000fd5b8051600110156104205760400190565b6103fa565b8051156104205760200190565b80518210156104205760209160051b010190565b9061044f61037e565b91805192602093848301516104626101b8565b9182528582015281526104736101b8565b936040830151855260608301518186015261048c6101b8565b6080840151815260a0840151828201526104a46101b8565b9586528186015280820194855260e060c08401519301516104c36101b8565b93845281840152604082019283526104dc82515161094c565b6104e9818351015161094c565b6104f58551515161094c565b61050381865101515161094c565b61051861051286515160200190565b5161094c565b610529610512828751015160200190565b61053483515161094c565b610541818451015161094c565b7f30644e72e131a029b85045b68181585d2833e84879b9709143e1f593f00000018610156105dd576105be6105b76105da976105b06105a96105816101b8565b600081526000878201526105a360808b019461059d8651610410565b516106fd565b906106a5565b9151610425565b51906106a5565b9251610605565b94519084519085015191606060408701519551960151966107f7565b90565b60405163076be92360e31b8152600490fd5b634e487b7160e01b600052601160045260246000fd5b600060206106116101b8565b8281520152805190811580610688575b1561063e5750506106306101b8565b600081526000602082015290565b602001517f30644e72e131a029b85045b68181585d97816a916871ca8d3c208c16d87cfd47908190068103908111610683576106786101b8565b918252602082015290565b6105ef565b50602081015115610621565b9060048110156104205760051b0190565b60609092919260c06106b56101b8565b91600083526000602084015260208396816106ce6101d8565b936080368637805185520151828401528051604084015201518482015260066107cf195a01fa156106fb57565bfe5b91906107076101b8565b60008152600060208201528093604051606081019381851067ffffffffffffffff8611176101b3576020608093606096604052863685378051845201516020830152604082015260076107cf195a01fa156106fb57565b60405190610320820182811067ffffffffffffffff8211176101b35760405260188252610300366020840137565b60001981146106835760010190565b9060068202918083046006149015171561068357565b906001820180921161068357565b906002820180921161068357565b906003820180921161068357565b906004820180921161068357565b906005820180921161068357565b94919596929093966108076101d8565b958652602097889788880152604087015260608601526108256101d8565b938452858401526040830152606082015261083e61075e565b9160005b6004811061087057505050610300610858610359565b9384920160086107cf195a01fa156106fb5751151590565b61094291929394506108818161079b565b61088b8285610694565b51516108978288610432565b52866108a38386610694565b5101516108b86108b2836107b1565b88610432565b526108c38286610694565b5151516108d26108b2836107bf565b526108e86108e08387610694565b515160200190565b516108f56108b2836107cd565b52866109018387610694565b510151516109116108b2836107db565b5261093c61093661092f89610926868a610694565b51015160200190565b51926107e9565b87610432565b5261078c565b9084939291610842565b7f30644e72e131a029b85045b68181585d97816a916871ca8d3c208c16d87cfd47111561097557565b6040516308f69c9160e01b8152600490fdfea2646970667358221220647f442a6f73898a181496c74f0343e31f797c801f0c98955c0710e122019ef164736f6c63430008140033",
  "devdoc": {
    "kind": "dev",
    "methods": {
      "verify(uint256[8],((uint256,uint256),(uint256[2],uint256[2]),(uint256[2],uint256[2]),(uint256[2],uint256[2]),(uint256,uint256)[]),uint256)": {
        "params": {
          "_proof": "The proof",
          "input": "The public inputs to the circuit",
          "vk": "The verifying key"
        },
        "returns": {
          "isValid": "Whether the proof is valid given the verifying key and public          input. Note that this function only supports one public input.          Refer to the Semaphore source code for a verifier that supports          multiple public inputs."
        }
      }
    },
    "title": "Verifier",
    "version": 1
  },
  "userdoc": {
    "errors": {
      "InvalidProofQ()": [
        {
          "notice": "custom errors"
        }
      ],
      "PairingAddFailed()": [
        {
          "notice": "custom errors"
        }
      ]
    },
    "kind": "user",
    "methods": {
      "verify(uint256[8],((uint256,uint256),(uint256[2],uint256[2]),(uint256[2],uint256[2]),(uint256[2],uint256[2]),(uint256,uint256)[]),uint256)": {
        "notice": "Verify a zk-SNARK proof"
      }
    },
    "notice": "a Groth16 verifier contract",
    "version": 1
  },
  "storageLayout": {
    "storage": [],
    "types": null
  }
}